{
  "address": "0x42A243610863d314811b3886c8Db6358745F921A",
  "abi": [
    {
      "inputs": [
        {
          "internalType": "address",
          "name": "_tokenAddress",
          "type": "address"
        }
      ],
      "stateMutability": "nonpayable",
      "type": "constructor"
    },
    {
      "inputs": [],
      "name": "AccessControlBadConfirmation",
      "type": "error"
    },
    {
      "inputs": [
        {
          "internalType": "address",
          "name": "account",
          "type": "address"
        },
        {
          "internalType": "bytes32",
          "name": "neededRole",
          "type": "bytes32"
        }
      ],
      "name": "AccessControlUnauthorizedAccount",
      "type": "error"
    },
    {
      "inputs": [
        {
          "internalType": "address",
          "name": "owner",
          "type": "address"
        }
      ],
      "name": "OwnableInvalidOwner",
      "type": "error"
    },
    {
      "inputs": [
        {
          "internalType": "address",
          "name": "account",
          "type": "address"
        }
      ],
      "name": "OwnableUnauthorizedAccount",
      "type": "error"
    },
    {
      "anonymous": false,
      "inputs": [
        {
          "indexed": false,
          "internalType": "uint256",
          "name": "agreementId",
          "type": "uint256"
        },
        {
          "indexed": false,
          "internalType": "address",
          "name": "userAddress",
          "type": "address"
        },
        {
          "indexed": false,
          "internalType": "address",
          "name": "providerAddress",
          "type": "address"
        },
        {
          "indexed": false,
          "internalType": "uint256",
          "name": "providerId",
          "type": "uint256"
        },
        {
          "indexed": false,
          "internalType": "string",
          "name": "encApiKey",
          "type": "string"
        },
        {
          "indexed": false,
          "internalType": "string",
          "name": "encConnectionString",
          "type": "string"
        }
      ],
      "name": "AgreementActivated",
      "type": "event"
    },
    {
      "anonymous": false,
      "inputs": [
        {
          "indexed": false,
          "internalType": "uint256",
          "name": "agreementId",
          "type": "uint256"
        },
        {
          "indexed": false,
          "internalType": "address",
          "name": "userAddress",
          "type": "address"
        },
        {
          "indexed": false,
          "internalType": "address",
          "name": "providerAddress",
          "type": "address"
        },
        {
          "indexed": false,
          "internalType": "uint256",
          "name": "providerId",
          "type": "uint256"
        },
        {
          "indexed": false,
          "internalType": "string",
          "name": "encApiKey",
          "type": "string"
        }
      ],
      "name": "AgreementClosed",
      "type": "event"
    },
    {
      "anonymous": false,
      "inputs": [
        {
          "indexed": false,
          "internalType": "uint256",
          "name": "agreementId",
          "type": "uint256"
        },
        {
          "indexed": false,
          "internalType": "address",
          "name": "userAddress",
          "type": "address"
        },
        {
          "indexed": false,
          "internalType": "address",
          "name": "providerAddress",
          "type": "address"
        },
        {
          "indexed": false,
          "internalType": "uint256",
          "name": "providerId",
          "type": "uint256"
        },
        {
          "indexed": false,
          "internalType": "string",
          "name": "encApiKey",
          "type": "string"
        },
        {
          "indexed": false,
          "internalType": "string",
          "name": "encConnectionString",
          "type": "string"
        }
      ],
      "name": "AgreementCreated",
      "type": "event"
    },
    {
      "anonymous": false,
      "inputs": [
        {
          "indexed": true,
          "internalType": "address",
          "name": "previousOwner",
          "type": "address"
        },
        {
          "indexed": true,
          "internalType": "address",
          "name": "newOwner",
          "type": "address"
        }
      ],
      "name": "OwnershipTransferred",
      "type": "event"
    },
    {
      "anonymous": false,
      "inputs": [
        {
          "indexed": false,
          "internalType": "uint256",
          "name": "id",
          "type": "uint256"
        },
        {
          "indexed": false,
          "internalType": "address",
          "name": "provider",
          "type": "address"
        },
        {
          "indexed": false,
          "internalType": "uint256",
          "name": "fee",
          "type": "uint256"
        },
        {
          "indexed": false,
          "internalType": "string",
          "name": "encApiKey",
          "type": "string"
        },
        {
          "indexed": false,
          "internalType": "string",
          "name": "ensName",
          "type": "string"
        }
      ],
      "name": "ProviderRegistered",
      "type": "event"
    },
    {
      "anonymous": false,
      "inputs": [
        {
          "indexed": true,
          "internalType": "bytes32",
          "name": "role",
          "type": "bytes32"
        },
        {
          "indexed": true,
          "internalType": "bytes32",
          "name": "previousAdminRole",
          "type": "bytes32"
        },
        {
          "indexed": true,
          "internalType": "bytes32",
          "name": "newAdminRole",
          "type": "bytes32"
        }
      ],
      "name": "RoleAdminChanged",
      "type": "event"
    },
    {
      "anonymous": false,
      "inputs": [
        {
          "indexed": true,
          "internalType": "bytes32",
          "name": "role",
          "type": "bytes32"
        },
        {
          "indexed": true,
          "internalType": "address",
          "name": "account",
          "type": "address"
        },
        {
          "indexed": true,
          "internalType": "address",
          "name": "sender",
          "type": "address"
        }
      ],
      "name": "RoleGranted",
      "type": "event"
    },
    {
      "anonymous": false,
      "inputs": [
        {
          "indexed": true,
          "internalType": "bytes32",
          "name": "role",
          "type": "bytes32"
        },
        {
          "indexed": true,
          "internalType": "address",
          "name": "account",
          "type": "address"
        },
        {
          "indexed": true,
          "internalType": "address",
          "name": "sender",
          "type": "address"
        }
      ],
      "name": "RoleRevoked",
      "type": "event"
    },
    {
      "anonymous": false,
      "inputs": [
        {
          "indexed": false,
          "internalType": "uint256",
          "name": "amount",
          "type": "uint256"
        },
        {
          "indexed": false,
          "internalType": "address",
          "name": "provider",
          "type": "address"
        }
      ],
      "name": "WithdrawReward",
      "type": "event"
    },
    {
      "anonymous": false,
      "inputs": [
        {
          "indexed": false,
          "internalType": "uint256",
          "name": "amount",
          "type": "uint256"
        },
        {
          "indexed": false,
          "internalType": "address",
          "name": "user",
          "type": "address"
        }
      ],
      "name": "WithdrawUserBalance",
      "type": "event"
    },
    {
      "inputs": [],
      "name": "DEFAULT_ADMIN_ROLE",
      "outputs": [
        {
          "internalType": "bytes32",
          "name": "",
          "type": "bytes32"
        }
      ],
      "stateMutability": "view",
      "type": "function"
    },
    {
      "inputs": [
        {
          "internalType": "address",
          "name": "",
          "type": "address"
        }
      ],
      "name": "addressToProvider",
      "outputs": [
        {
          "internalType": "uint256",
          "name": "id",
          "type": "uint256"
        },
        {
          "internalType": "address",
          "name": "pAddress",
          "type": "address"
        },
        {
          "internalType": "uint256",
          "name": "fee",
          "type": "uint256"
        },
        {
          "internalType": "string",
          "name": "encApiKey",
          "type": "string"
        },
        {
          "internalType": "string",
          "name": "ensName",
          "type": "string"
        },
        {
          "internalType": "uint256",
          "name": "noOfDbAgreements",
          "type": "uint256"
        },
        {
          "internalType": "uint256",
          "name": "activeAgreements",
          "type": "uint256"
        }
      ],
      "stateMutability": "view",
      "type": "function"
    },
    {
      "inputs": [
        {
          "internalType": "uint256",
          "name": "",
          "type": "uint256"
        }
      ],
      "name": "agreementIdToAgreement",
      "outputs": [
        {
          "internalType": "uint256",
          "name": "id",
          "type": "uint256"
        },
        {
          "internalType": "address",
          "name": "user",
          "type": "address"
        },
        {
          "internalType": "uint256",
          "name": "userBalance",
          "type": "uint256"
        },
        {
          "internalType": "address",
          "name": "providerAddress",
          "type": "address"
        },
        {
          "internalType": "uint256",
          "name": "providerId",
          "type": "uint256"
        },
        {
          "internalType": "uint256",
          "name": "providerClaimed",
          "type": "uint256"
        },
        {
          "internalType": "string",
          "name": "encConnectionString",
          "type": "string"
        },
        {
          "internalType": "uint256",
          "name": "startTimeStamp",
          "type": "uint256"
        },
        {
          "internalType": "enum DDMeshMarket.AgreementStatus",
          "name": "status",
          "type": "uint8"
        }
      ],
      "stateMutability": "view",
      "type": "function"
    },
    {
      "inputs": [],
      "name": "agreementIdTotalCount",
      "outputs": [
        {
          "internalType": "uint256",
          "name": "",
          "type": "uint256"
        }
      ],
      "stateMutability": "view",
      "type": "function"
    },
    {
      "inputs": [
        {
          "internalType": "uint256",
          "name": "",
          "type": "uint256"
        }
      ],
      "name": "agreements",
      "outputs": [
        {
          "internalType": "uint256",
          "name": "",
          "type": "uint256"
        }
      ],
      "stateMutability": "view",
      "type": "function"
    },
    {
      "inputs": [
        {
          "internalType": "uint256",
          "name": "_agreementId",
          "type": "uint256"
        }
      ],
      "name": "closeAgreementByProvider",
      "outputs": [],
      "stateMutability": "nonpayable",
      "type": "function"
    },
    {
      "inputs": [
        {
          "internalType": "uint256",
          "name": "_agreementId",
          "type": "uint256"
        }
      ],
      "name": "closeAgreementByUser",
      "outputs": [],
      "stateMutability": "nonpayable",
      "type": "function"
    },
    {
      "inputs": [
        {
          "internalType": "address",
          "name": "_userAddress",
          "type": "address"
        },
        {
          "internalType": "uint256",
          "name": "_providerId",
          "type": "uint256"
        },
        {
          "internalType": "uint256",
          "name": "_amount",
          "type": "uint256"
        }
      ],
      "name": "enterAgreement",
      "outputs": [],
      "stateMutability": "nonpayable",
      "type": "function"
    },
    {
      "inputs": [
        {
          "internalType": "bytes32",
          "name": "role",
          "type": "bytes32"
        }
      ],
      "name": "getRoleAdmin",
      "outputs": [
        {
          "internalType": "bytes32",
          "name": "",
          "type": "bytes32"
        }
      ],
      "stateMutability": "view",
      "type": "function"
    },
    {
      "inputs": [
        {
          "internalType": "bytes32",
          "name": "role",
          "type": "bytes32"
        },
        {
          "internalType": "address",
          "name": "account",
          "type": "address"
        }
      ],
      "name": "grantRole",
      "outputs": [],
      "stateMutability": "nonpayable",
      "type": "function"
    },
    {
      "inputs": [
        {
          "internalType": "bytes32",
          "name": "role",
          "type": "bytes32"
        },
        {
          "internalType": "address",
          "name": "account",
          "type": "address"
        }
      ],
      "name": "hasRole",
      "outputs": [
        {
          "internalType": "bool",
          "name": "",
          "type": "bool"
        }
      ],
      "stateMutability": "view",
      "type": "function"
    },
    {
      "inputs": [],
      "name": "owner",
      "outputs": [
        {
          "internalType": "address",
          "name": "",
          "type": "address"
        }
      ],
      "stateMutability": "view",
      "type": "function"
    },
    {
      "inputs": [
        {
          "internalType": "address",
          "name": "",
          "type": "address"
        },
        {
          "internalType": "uint256",
          "name": "",
          "type": "uint256"
        }
      ],
      "name": "providerAgreements",
      "outputs": [
        {
          "internalType": "uint256",
          "name": "",
          "type": "uint256"
        }
      ],
      "stateMutability": "view",
      "type": "function"
    },
    {
      "inputs": [
        {
          "internalType": "uint256",
          "name": "",
          "type": "uint256"
        },
        {
          "internalType": "uint256",
          "name": "",
          "type": "uint256"
        }
      ],
      "name": "providerIdToAgreements",
      "outputs": [
        {
          "internalType": "uint256",
          "name": "",
          "type": "uint256"
        }
      ],
      "stateMutability": "view",
      "type": "function"
    },
    {
      "inputs": [
        {
          "internalType": "uint256",
          "name": "",
          "type": "uint256"
        }
      ],
      "name": "providerIdToProvider",
      "outputs": [
        {
          "internalType": "uint256",
          "name": "id",
          "type": "uint256"
        },
        {
          "internalType": "address",
          "name": "pAddress",
          "type": "address"
        },
        {
          "internalType": "uint256",
          "name": "fee",
          "type": "uint256"
        },
        {
          "internalType": "string",
          "name": "encApiKey",
          "type": "string"
        },
        {
          "internalType": "string",
          "name": "ensName",
          "type": "string"
        },
        {
          "internalType": "uint256",
          "name": "noOfDbAgreements",
          "type": "uint256"
        },
        {
          "internalType": "uint256",
          "name": "activeAgreements",
          "type": "uint256"
        }
      ],
      "stateMutability": "view",
      "type": "function"
    },
    {
      "inputs": [],
      "name": "providerIdTotalCount",
      "outputs": [
        {
          "internalType": "uint256",
          "name": "",
          "type": "uint256"
        }
      ],
      "stateMutability": "view",
      "type": "function"
    },
    {
      "inputs": [
        {
          "internalType": "address",
          "name": "_providerAddress",
          "type": "address"
        },
        {
          "internalType": "uint256",
          "name": "_fee",
          "type": "uint256"
        },
        {
          "internalType": "string",
          "name": "_enc_apiKey",
          "type": "string"
        },
        {
          "internalType": "string",
          "name": "_ensName",
          "type": "string"
        },
        {
          "internalType": "uint256",
          "name": "_noOfDbAgreements",
          "type": "uint256"
        }
      ],
      "name": "registerProvider",
      "outputs": [],
      "stateMutability": "nonpayable",
      "type": "function"
    },
    {
      "inputs": [],
      "name": "renounceOwnership",
      "outputs": [],
      "stateMutability": "nonpayable",
      "type": "function"
    },
    {
      "inputs": [
        {
          "internalType": "bytes32",
          "name": "role",
          "type": "bytes32"
        },
        {
          "internalType": "address",
          "name": "callerConfirmation",
          "type": "address"
        }
      ],
      "name": "renounceRole",
      "outputs": [],
      "stateMutability": "nonpayable",
      "type": "function"
    },
    {
      "inputs": [
        {
          "internalType": "bytes32",
          "name": "role",
          "type": "bytes32"
        },
        {
          "internalType": "address",
          "name": "account",
          "type": "address"
        }
      ],
      "name": "revokeRole",
      "outputs": [],
      "stateMutability": "nonpayable",
      "type": "function"
    },
    {
      "inputs": [
        {
          "internalType": "uint256",
          "name": "_agreementId",
          "type": "uint256"
        },
        {
          "internalType": "string",
          "name": "_encConnectionString",
          "type": "string"
        }
      ],
      "name": "setConnectionStringAndActivateAggrement",
      "outputs": [],
      "stateMutability": "nonpayable",
      "type": "function"
    },
    {
      "inputs": [
        {
          "internalType": "bytes4",
          "name": "interfaceId",
          "type": "bytes4"
        }
      ],
      "name": "supportsInterface",
      "outputs": [
        {
          "internalType": "bool",
          "name": "",
          "type": "bool"
        }
      ],
      "stateMutability": "view",
      "type": "function"
    },
    {
      "inputs": [],
      "name": "token",
      "outputs": [
        {
          "internalType": "contract IToken",
          "name": "",
          "type": "address"
        }
      ],
      "stateMutability": "view",
      "type": "function"
    },
    {
      "inputs": [
        {
          "internalType": "address",
          "name": "newOwner",
          "type": "address"
        }
      ],
      "name": "transferOwnership",
      "outputs": [],
      "stateMutability": "nonpayable",
      "type": "function"
    },
    {
      "inputs": [
        {
          "internalType": "address",
          "name": "",
          "type": "address"
        },
        {
          "internalType": "uint256",
          "name": "",
          "type": "uint256"
        }
      ],
      "name": "userAgreements",
      "outputs": [
        {
          "internalType": "uint256",
          "name": "",
          "type": "uint256"
        }
      ],
      "stateMutability": "view",
      "type": "function"
    },
    {
      "inputs": [
        {
          "internalType": "uint256",
          "name": "_amount",
          "type": "uint256"
        },
        {
          "internalType": "uint256",
          "name": "_agreementId",
          "type": "uint256"
        }
      ],
      "name": "withdrawBalanceUser",
      "outputs": [],
      "stateMutability": "nonpayable",
      "type": "function"
    },
    {
      "inputs": [
        {
          "internalType": "uint256",
          "name": "_amount",
          "type": "uint256"
        },
        {
          "internalType": "address",
          "name": "_user",
          "type": "address"
        },
        {
          "internalType": "uint256",
          "name": "_agreementId",
          "type": "uint256"
        }
      ],
      "name": "withdrawReward",
      "outputs": [],
      "stateMutability": "nonpayable",
      "type": "function"
    }
  ],
  "transactionHash": "0x7579563fffed955cd52acf4f9f6d91d5edd7c680a0909bc19502b248c79fc719",
  "args": [
    "0x15223Dee9891d84609889798bb63ADe5e1FDcB15"
  ],
  "numDeployments": 3,
  "solcInputHash": "5e8e240ce0ec28eb38a7d1dfc817ff3b",
  "bytecode": "0x60806040523480156200001157600080fd5b50604051620025f7380380620025f783398101604081905262000034916200019c565b33806200005b57604051631e4fbdf760e01b81526000600482015260240160405180910390fd5b62000066816200009b565b5062000074600033620000ed565b50600280546001600160a01b0319166001600160a01b0392909216919091179055620001ce565b600180546001600160a01b038381166001600160a01b0319831681179093556040519116919082907f8be0079c531659141344cd1fd0a4f28419497f9722a3daafe3b4186f6b6457e090600090a35050565b6000828152602081815260408083206001600160a01b038516845290915281205460ff1662000192576000838152602081815260408083206001600160a01b03861684529091529020805460ff19166001179055620001493390565b6001600160a01b0316826001600160a01b0316847f2f8788117e7eff1d82e926ec794901d17c78024a50270940304540a733656f0d60405160405180910390a450600162000196565b5060005b92915050565b600060208284031215620001af57600080fd5b81516001600160a01b0381168114620001c757600080fd5b9392505050565b61241980620001de6000396000f3fe608060405234801561001057600080fd5b50600436106101a95760003560e01c8063864739e3116100f9578063d547741f11610097578063f2fde38b11610071578063f2fde38b146103a8578063fc0c546a146103bb578063fc6bcf39146103ce578063fdf73bd6146103e157600080fd5b8063d547741f14610379578063e610492e1461038c578063ece495ec1461039f57600080fd5b806393202d07116100d357806393202d0714610342578063a217fddf14610355578063bd14de961461035d578063c5262c931461037057600080fd5b8063864739e3146102e25780638da5cb5b1461030a57806391d148541461032f57600080fd5b80633500a95311610166578063593be20d11610140578063593be20d146102a15780636f124f1c146102b4578063715018a6146102c7578063749f101e146102cf57600080fd5b80633500a9531461026857806336568abe1461027b5780634c27984e1461028e57600080fd5b806301ffc9a7146101ae57806309c8da22146101d6578063144161e5146101eb5780631d82404614610211578063248a9ca3146102325780632f2ff15d14610255575b600080fd5b6101c16101bc366004611c6a565b6103f4565b60405190151581526020015b60405180910390f35b6101e96101e4366004611cb7565b61042b565b005b6101fe6101f9366004611cea565b610935565b6040516101cd9796959493929190611d4b565b61022461021f366004611da1565b610a8c565b6040519081526020016101cd565b610224610240366004611dc3565b60009081526020819052604090206001015490565b6101e9610263366004611ddc565b610abd565b610224610276366004611e08565b610ae8565b6101e9610289366004611ddc565b610b04565b61022461029c366004611e08565b610b3c565b6101fe6102af366004611dc3565b610b58565b6101e96102c2366004611da1565b610b92565b6101e9610d09565b6101e96102dd366004611ed5565b610d1d565b6102f56102f0366004611dc3565b610e4e565b6040516101cd99989796959493929190611f32565b6001546001600160a01b03165b6040516001600160a01b0390911681526020016101cd565b6101c161033d366004611ddc565b610f33565b6101e9610350366004611dc3565b610f5c565b610224600081565b61022461036b366004611dc3565b611335565b61022460045481565b6101e9610387366004611ddc565b611356565b6101e961039a366004611fb6565b61137b565b61022460055481565b6101e96103b6366004611cea565b61159e565b600254610317906001600160a01b031681565b6101e96103dc36600461203c565b6115dc565b6101e96103ef366004611dc3565b6117c1565b60006001600160e01b03198216637965db0b60e01b148061042557506301ffc9a760e01b6001600160e01b03198316145b92915050565b600081116104805760405162461bcd60e51b815260206004820152601d60248201527f616d6f756e74206d7573742062652067726561746572207468616e203000000060448201526064015b60405180910390fd5b600060046000815461049190612087565b91829055506000848152600760209081526040808320815160e0810183528154815260018201546001600160a01b0316938101939093526002810154918301919091526003810180549495509293919290916060840191906104f2906120a0565b80601f016020809104026020016040519081016040528092919081815260200182805461051e906120a0565b801561056b5780601f106105405761010080835404028352916020019161056b565b820191906000526020600020905b81548152906001019060200180831161054e57829003601f168201915b50505050508152602001600482018054610584906120a0565b80601f01602080910402602001604051908101604052809291908181526020018280546105b0906120a0565b80156105fd5780601f106105d2576101008083540402835291602001916105fd565b820191906000526020600020905b8154815290600101906020018083116105e057829003601f168201915b505050505081526020016005820154815260200160068201548152505090508060c001518160a00151116106735760405162461bcd60e51b815260206004820152601960248201527f6e6f206f662061677265656d656e7473206578636565646564000000000000006044820152606401610477565b6002546040516323b872dd60e01b8152336004820152306024820152604481018590526001600160a01b03909116906323b872dd906064016020604051808303816000875af11580156106ca573d6000803e3d6000fd5b505050506040513d601f19601f820116820180604052508101906106ee91906120da565b506000604051806101200160405280848152602001876001600160a01b0316815260200185815260200183602001516001600160a01b03168152602001868152602001600081526020016040518060200160405280600081525081526020014281526020016001600581111561076657610766611f1c565b815250905060018260c00181815161077e91906120fc565b9052506040810180518591906107959083906120fc565b90525060008381526006602081815260409283902084518155908401516001820180546001600160a01b03199081166001600160a01b039384161790915593850151600283015560608501516003830180549095169116179092556080830151600483015560a0830151600583015560c0830151839291820190610819908261215f565b5060e0820151600782015561010082015160088201805460ff1916600183600581111561084857610848611f1c565b021790555050600c805460018181019092557fdf6966c971051c3d54ec59162606531493a51404a002842f56009d7e5cf4a8c7018590556001600160a01b038089166000908152600960209081526040808320805480870182559084528284200189905587820180519094168352600a825280832080548087018255908452828420018990558a8352600b8252808320805495860181558352912090920186905551606085015191517f8159ca23ddfb64a3383082fa3d8bfe372e5cf4e0235f04b5eb4eec8ac690237f93506109259287928b9290918b9161221f565b60405180910390a1505050505050565b600860205260009081526040902080546001820154600283015460038401805493946001600160a01b039093169391929161096f906120a0565b80601f016020809104026020016040519081016040528092919081815260200182805461099b906120a0565b80156109e85780601f106109bd576101008083540402835291602001916109e8565b820191906000526020600020905b8154815290600101906020018083116109cb57829003601f168201915b5050505050908060040180546109fd906120a0565b80601f0160208091040260200160405190810160405280929190818152602001828054610a29906120a0565b8015610a765780601f10610a4b57610100808354040283529160200191610a76565b820191906000526020600020905b815481529060010190602001808311610a5957829003601f168201915b5050505050908060050154908060060154905087565b600b6020528160005260406000208181548110610aa857600080fd5b90600052602060002001600091509150505481565b600082815260208190526040902060010154610ad881611aa7565b610ae28383611ab1565b50505050565b600a6020528160005260406000208181548110610aa857600080fd5b6001600160a01b0381163314610b2d5760405163334bd91960e11b815260040160405180910390fd5b610b378282611b43565b505050565b60096020528160005260406000208181548110610aa857600080fd5b600760205260009081526040902080546001820154600283015460038401805493946001600160a01b039093169391929161096f906120a0565b600081815260066020526040902060018101546001600160a01b03163314610bf15760405162461bcd60e51b81526020600482015260126024820152711b9bdd081e5bdd5c881859dc99595b595b9d60721b6044820152606401610477565b8281600201541015610c3c5760405162461bcd60e51b8152602060048201526014602482015273696e73756666696369656e742062616c616e636560601b6044820152606401610477565b82816002016000828254610c509190612275565b909155505060025460405163a9059cbb60e01b8152336004820152602481018590526001600160a01b039091169063a9059cbb906044016020604051808303816000875af1158015610ca6573d6000803e3d6000fd5b505050506040513d601f19601f82011682018060405250810190610cca91906120da565b50604080518481523360208201527f2a35086a32cc78fc59bb7cd99982f96f28b1d70d40449b36f0b62d06dfff155391015b60405180910390a1505050565b610d11611bae565b610d1b6000611bdb565b565b600082815260066020526040902080548314610d715760405162461bcd60e51b81526020600482015260136024820152721859dc99595b595b9d081b9bdd08199bdd5b99606a1b6044820152606401610477565b6001600882015460ff166005811115610d8c57610d8c611f1c565b14610dd95760405162461bcd60e51b815260206004820152601b60248201527f61677265656d656e7420616c72656164792061637469766174656400000000006044820152606401610477565b60068101610de7838261215f565b5060088101805460ff1916600217905580546001820154600383015460048401546040517f378a301fbbc85083e6935c8c543eceb5080659f50d3ac2cf482f4015b69de0a994610cfc9490936001600160a01b039182169391169160068801908990612288565b6006602081905260009182526040909120805460018201546002830154600384015460048501546005860154968601805495976001600160a01b039586169794969590931694919391610ea0906120a0565b80601f0160208091040260200160405190810160405280929190818152602001828054610ecc906120a0565b8015610f195780601f10610eee57610100808354040283529160200191610f19565b820191906000526020600020905b815481529060010190602001808311610efc57829003601f168201915b50505050600783015460089093015491929160ff16905089565b6000918252602082815260408084206001600160a01b0393909316845291905290205460ff1690565b60008181526006602081815260408084208151610120810183528154815260018201546001600160a01b03908116948201949094526002820154928101929092526003810154909216606082015260048201546080820152600582015460a0820152918101805460c084019190610fd2906120a0565b80601f0160208091040260200160405190810160405280929190818152602001828054610ffe906120a0565b801561104b5780601f106110205761010080835404028352916020019161104b565b820191906000526020600020905b81548152906001019060200180831161102e57829003601f168201915b505050918352505060078201546020820152600882015460409091019060ff16600581111561107c5761107c611f1c565b600581111561108d5761108d611f1c565b90525060808101516000908152600760209081526040808320815160e0810183528154815260018201546001600160a01b0316938101939093526002810154918301919091526003810180549495509293919290916060840191906110f1906120a0565b80601f016020809104026020016040519081016040528092919081815260200182805461111d906120a0565b801561116a5780601f1061113f5761010080835404028352916020019161116a565b820191906000526020600020905b81548152906001019060200180831161114d57829003601f168201915b50505050508152602001600482018054611183906120a0565b80601f01602080910402602001604051908101604052809291908181526020018280546111af906120a0565b80156111fc5780601f106111d1576101008083540402835291602001916111fc565b820191906000526020600020905b8154815290600101906020018083116111df57829003601f168201915b50505050508152602001600582015481526020016006820154815250509050336001600160a01b031682602001516001600160a01b0316146112755760405162461bcd60e51b81526020600482015260126024820152711b9bdd081e5bdd5c881859dc99595b595b9d60721b6044820152606401610477565b6002826101000151600581111561128e5761128e611f1c565b146112d55760405162461bcd60e51b815260206004820152601760248201527661677265656d656e74206973206e6f742061637469766560481b6044820152606401610477565b6003610100830152604082015182516112ee9190610b92565b7f71507ff9e86a05dbd30bfc867d695007f1a3e9ef24debb58ee1cced0f614d3be838360200151846060015184600001518560600151604051610cfc959493929190612354565b600c818154811061134557600080fd5b600091825260209091200154905081565b60008281526020819052604090206001015461137181611aa7565b610ae28383611b43565b600060046000815461138c90612087565b91829055506040805160e0810182528281526001600160a01b0389811660208084019182528385018b8152606085018b8152608086018b905260a086018a9052600060c087018190528881526007909352959091208451815591516001830180546001600160a01b031916919094161790925590516002820155915192935091829190600382019061141e908261215f565b5060808201516004820190611433908261215f565b5060a0820151600582015560c0909101516006909101556003805460018101825560009190915281517fc2575a0e9e593c00f959f8c92f12db2869c3395a3b0502d05e2516446f71f85b600790920291820190815560208301517fc2575a0e9e593c00f959f8c92f12db2869c3395a3b0502d05e2516446f71f85c830180546001600160a01b0319166001600160a01b0390921691909117905560408301517fc2575a0e9e593c00f959f8c92f12db2869c3395a3b0502d05e2516446f71f85d830155606083015183927fc2575a0e9e593c00f959f8c92f12db2869c3395a3b0502d05e2516446f71f85e019061152a908261215f565b506080820151600482019061153f908261215f565b5060a0820151816005015560c0820151816006015550507f40ebfac2153d289b4b4b35149bc5c041508301d9a9a1f898c625f52ae2041d99828888888860405161158d959493929190612398565b60405180910390a150505050505050565b6115a6611bae565b6001600160a01b0381166115d057604051631e4fbdf760e01b815260006004820152602401610477565b6115d981611bdb565b50565b600081815260066020526040902060038101543391906001600160a01b0316821461163e5760405162461bcd60e51b81526020600482015260126024820152711c1c9bdd9a59195c881b9bdd08199bdd5b9960721b6044820152606401610477565b60018101546001600160a01b0385811691161461168d5760405162461bcd60e51b815260206004820152600d60248201526c3737ba103cb7bab9103ab9b2b960991b6044820152606401610477565b84816002015410156116d85760405162461bcd60e51b8152602060048201526014602482015273696e73756666696369656e742062616c616e636560601b6044820152606401610477565b848160020160008282546116ec9190612275565b925050819055508481600501600082825461170791906120fc565b909155505060025460405163a9059cbb60e01b8152336004820152602481018790526001600160a01b039091169063a9059cbb906044016020604051808303816000875af115801561175d573d6000803e3d6000fd5b505050506040513d601f19601f8201168201806040525081019061178191906120da565b50604080518681523360208201527f1acb03df96ba983734adef93014adb71798de3a870000f17f3cc820d966b1613910160405180910390a15050505050565b60008181526006602090815260408083206004810154845260078352818420825160e0810184528154815260018201546001600160a01b0316948101949094526002810154928401929092526003820180549194939291606084019190611827906120a0565b80601f0160208091040260200160405190810160405280929190818152602001828054611853906120a0565b80156118a05780601f10611875576101008083540402835291602001916118a0565b820191906000526020600020905b81548152906001019060200180831161188357829003601f168201915b505050505081526020016004820180546118b9906120a0565b80601f01602080910402602001604051908101604052809291908181526020018280546118e5906120a0565b80156119325780601f1061190757610100808354040283529160200191611932565b820191906000526020600020905b81548152906001019060200180831161191557829003601f168201915b50505091835250506005820154602082015260069091015460409091015260038301549091506001600160a01b031633146119c45760405162461bcd60e51b815260206004820152602c60248201527f6e6f7420796f75722061677265656d656e742c20796f7520617265206e6f742060448201526b3a343290383937bb34b232b960a11b6064820152608401610477565b6002600883015460ff1660058111156119df576119df611f1c565b14611a265760405162461bcd60e51b815260206004820152601760248201527661677265656d656e74206973206e6f742061637469766560481b6044820152606401610477565b60088201805460ff19166003179055600282015460018301548354611a5592916001600160a01b0316906115dc565b60018201546003830154825160608401516040517f71507ff9e86a05dbd30bfc867d695007f1a3e9ef24debb58ee1cced0f614d3be94610cfc9489946001600160a01b03928316949190921692612354565b6115d98133611c2d565b6000611abd8383610f33565b611b3b576000838152602081815260408083206001600160a01b03861684529091529020805460ff19166001179055611af33390565b6001600160a01b0316826001600160a01b0316847f2f8788117e7eff1d82e926ec794901d17c78024a50270940304540a733656f0d60405160405180910390a4506001610425565b506000610425565b6000611b4f8383610f33565b15611b3b576000838152602081815260408083206001600160a01b0386168085529252808320805460ff1916905551339286917ff6391f5c32d9c69d2a47ea670b442974b53935d1edc7fd64eb21e047a839171b9190a4506001610425565b6001546001600160a01b03163314610d1b5760405163118cdaa760e01b8152336004820152602401610477565b600180546001600160a01b038381166001600160a01b0319831681179093556040519116919082907f8be0079c531659141344cd1fd0a4f28419497f9722a3daafe3b4186f6b6457e090600090a35050565b611c378282610f33565b611c665760405163e2517d3f60e01b81526001600160a01b038216600482015260248101839052604401610477565b5050565b600060208284031215611c7c57600080fd5b81356001600160e01b031981168114611c9457600080fd5b9392505050565b80356001600160a01b0381168114611cb257600080fd5b919050565b600080600060608486031215611ccc57600080fd5b611cd584611c9b565b95602085013595506040909401359392505050565b600060208284031215611cfc57600080fd5b611c9482611c9b565b6000815180845260005b81811015611d2b57602081850181015186830182015201611d0f565b506000602082860101526020601f19601f83011685010191505092915050565b87815260018060a01b038716602082015285604082015260e060608201526000611d7860e0830187611d05565b8281036080840152611d8a8187611d05565b60a0840195909552505060c0015295945050505050565b60008060408385031215611db457600080fd5b50508035926020909101359150565b600060208284031215611dd557600080fd5b5035919050565b60008060408385031215611def57600080fd5b82359150611dff60208401611c9b565b90509250929050565b60008060408385031215611e1b57600080fd5b611e2483611c9b565b946020939093013593505050565b634e487b7160e01b600052604160045260246000fd5b600082601f830112611e5957600080fd5b813567ffffffffffffffff80821115611e7457611e74611e32565b604051601f8301601f19908116603f01168101908282118183101715611e9c57611e9c611e32565b81604052838152866020858801011115611eb557600080fd5b836020870160208301376000602085830101528094505050505092915050565b60008060408385031215611ee857600080fd5b82359150602083013567ffffffffffffffff811115611f0657600080fd5b611f1285828601611e48565b9150509250929050565b634e487b7160e01b600052602160045260246000fd5b8981526001600160a01b03898116602083015260408201899052871660608201526080810186905260a0810185905261012060c08201819052600090611f7a83820187611d05565b9150508360e083015260068310611fa157634e487b7160e01b600052602160045260246000fd5b826101008301529a9950505050505050505050565b600080600080600060a08688031215611fce57600080fd5b611fd786611c9b565b945060208601359350604086013567ffffffffffffffff80821115611ffb57600080fd5b61200789838a01611e48565b9450606088013591508082111561201d57600080fd5b5061202a88828901611e48565b95989497509295608001359392505050565b60008060006060848603121561205157600080fd5b8335925061206160208501611c9b565b9150604084013590509250925092565b634e487b7160e01b600052601160045260246000fd5b60006001820161209957612099612071565b5060010190565b600181811c908216806120b457607f821691505b6020821081036120d457634e487b7160e01b600052602260045260246000fd5b50919050565b6000602082840312156120ec57600080fd5b81518015158114611c9457600080fd5b8082018082111561042557610425612071565b601f821115610b37576000816000526020600020601f850160051c810160208610156121385750805b601f850160051c820191505b8181101561215757828155600101612144565b505050505050565b815167ffffffffffffffff81111561217957612179611e32565b61218d8161218784546120a0565b8461210f565b602080601f8311600181146121c257600084156121aa5750858301515b600019600386901b1c1916600185901b178555612157565b600085815260208120601f198616915b828110156121f1578886015182559484019460019091019084016121d2565b508582101561220f5787850151600019600388901b60f8161c191681555b5050505050600190811b01905550565b8581526001600160a01b038581166020830152841660408201526060810183905260c06080820181905260009061225890830184611d05565b82810360a084015260008152602081019150509695505050505050565b8181038181111561042557610425612071565b8681526000602060018060a01b03808916602085015280881660408501525085606084015260c06080840152600085546122c1816120a0565b8060c087015260e06001808416600081146122e357600181146122ff5761232f565b60ff19851660e08a015260e084151560051b8a0101955061232f565b8a600052602060002060005b858110156123265781548b820186015290830190880161230b565b8a0160e0019650505b505050505083810360a08501526123468186611d05565b9a9950505050505050505050565b8581526001600160a01b038581166020830152841660408201526060810183905260a06080820181905260009061238d90830184611d05565b979650505050505050565b85815260018060a01b038516602082015283604082015260a0606082015260006123c560a0830185611d05565b82810360808401526123d78185611d05565b9897505050505050505056fea2646970667358221220a947dc86a72e308a33e845d467fa3797ebb23e3c1a9f52cf11fc6a5581f81dd764736f6c63430008160033",
  "devdoc": {
    "errors": {
      "AccessControlBadConfirmation()": [
        {
          "details": "The caller of a function is not the expected one. NOTE: Don't confuse with {AccessControlUnauthorizedAccount}."
        }
      ],
      "AccessControlUnauthorizedAccount(address,bytes32)": [
        {
          "details": "The `account` is missing a role."
        }
      ],
      "OwnableInvalidOwner(address)": [
        {
          "details": "The owner is not a valid owner account. (eg. `address(0)`)"
        }
      ],
      "OwnableUnauthorizedAccount(address)": [
        {
          "details": "The caller account is not authorized to perform an operation."
        }
      ]
    },
    "events": {
      "RoleAdminChanged(bytes32,bytes32,bytes32)": {
        "details": "Emitted when `newAdminRole` is set as ``role``'s admin role, replacing `previousAdminRole` `DEFAULT_ADMIN_ROLE` is the starting admin for all roles, despite {RoleAdminChanged} not being emitted signaling this."
      },
      "RoleGranted(bytes32,address,address)": {
        "details": "Emitted when `account` is granted `role`. `sender` is the account that originated the contract call, an admin role bearer except when using {AccessControl-_setupRole}."
      },
      "RoleRevoked(bytes32,address,address)": {
        "details": "Emitted when `account` is revoked `role`. `sender` is the account that originated the contract call:   - if using `revokeRole`, it is the admin role bearer   - if using `renounceRole`, it is the role bearer (i.e. `account`)"
      }
    },
    "kind": "dev",
    "methods": {
      "getRoleAdmin(bytes32)": {
        "details": "Returns the admin role that controls `role`. See {grantRole} and {revokeRole}. To change a role's admin, use {_setRoleAdmin}."
      },
      "grantRole(bytes32,address)": {
        "details": "Grants `role` to `account`. If `account` had not been already granted `role`, emits a {RoleGranted} event. Requirements: - the caller must have ``role``'s admin role. May emit a {RoleGranted} event."
      },
      "hasRole(bytes32,address)": {
        "details": "Returns `true` if `account` has been granted `role`."
      },
      "owner()": {
        "details": "Returns the address of the current owner."
      },
      "renounceOwnership()": {
        "details": "Leaves the contract without owner. It will not be possible to call `onlyOwner` functions. Can only be called by the current owner. NOTE: Renouncing ownership will leave the contract without an owner, thereby disabling any functionality that is only available to the owner."
      },
      "renounceRole(bytes32,address)": {
        "details": "Revokes `role` from the calling account. Roles are often managed via {grantRole} and {revokeRole}: this function's purpose is to provide a mechanism for accounts to lose their privileges if they are compromised (such as when a trusted device is misplaced). If the calling account had been revoked `role`, emits a {RoleRevoked} event. Requirements: - the caller must be `callerConfirmation`. May emit a {RoleRevoked} event."
      },
      "revokeRole(bytes32,address)": {
        "details": "Revokes `role` from `account`. If `account` had been granted `role`, emits a {RoleRevoked} event. Requirements: - the caller must have ``role``'s admin role. May emit a {RoleRevoked} event."
      },
      "supportsInterface(bytes4)": {
        "details": "See {IERC165-supportsInterface}."
      },
      "transferOwnership(address)": {
        "details": "Transfers ownership of the contract to a new account (`newOwner`). Can only be called by the current owner."
      }
    },
    "version": 1
  },
  "userdoc": {
    "kind": "user",
    "methods": {},
    "version": 1
  },
  "storageLayout": {
    "storage": [
      {
        "astId": 26,
        "contract": "contracts/DDMeshMarket.sol:DDMeshMarket",
        "label": "_roles",
        "offset": 0,
        "slot": "0",
        "type": "t_mapping(t_bytes32,t_struct(RoleData)21_storage)"
      },
      {
        "astId": 387,
        "contract": "contracts/DDMeshMarket.sol:DDMeshMarket",
        "label": "_owner",
        "offset": 0,
        "slot": "1",
        "type": "t_address"
      },
      {
        "astId": 4299,
        "contract": "contracts/DDMeshMarket.sol:DDMeshMarket",
        "label": "token",
        "offset": 0,
        "slot": "2",
        "type": "t_contract(IToken)5076"
      },
      {
        "astId": 4345,
        "contract": "contracts/DDMeshMarket.sol:DDMeshMarket",
        "label": "providers",
        "offset": 0,
        "slot": "3",
        "type": "t_array(t_struct(Provider)4341_storage)dyn_storage"
      },
      {
        "astId": 4347,
        "contract": "contracts/DDMeshMarket.sol:DDMeshMarket",
        "label": "agreementIdTotalCount",
        "offset": 0,
        "slot": "4",
        "type": "t_uint256"
      },
      {
        "astId": 4349,
        "contract": "contracts/DDMeshMarket.sol:DDMeshMarket",
        "label": "providerIdTotalCount",
        "offset": 0,
        "slot": "5",
        "type": "t_uint256"
      },
      {
        "astId": 4354,
        "contract": "contracts/DDMeshMarket.sol:DDMeshMarket",
        "label": "agreementIdToAgreement",
        "offset": 0,
        "slot": "6",
        "type": "t_mapping(t_uint256,t_struct(Agreement)4326_storage)"
      },
      {
        "astId": 4359,
        "contract": "contracts/DDMeshMarket.sol:DDMeshMarket",
        "label": "providerIdToProvider",
        "offset": 0,
        "slot": "7",
        "type": "t_mapping(t_uint256,t_struct(Provider)4341_storage)"
      },
      {
        "astId": 4364,
        "contract": "contracts/DDMeshMarket.sol:DDMeshMarket",
        "label": "addressToProvider",
        "offset": 0,
        "slot": "8",
        "type": "t_mapping(t_address,t_struct(Provider)4341_storage)"
      },
      {
        "astId": 4369,
        "contract": "contracts/DDMeshMarket.sol:DDMeshMarket",
        "label": "userAgreements",
        "offset": 0,
        "slot": "9",
        "type": "t_mapping(t_address,t_array(t_uint256)dyn_storage)"
      },
      {
        "astId": 4374,
        "contract": "contracts/DDMeshMarket.sol:DDMeshMarket",
        "label": "providerAgreements",
        "offset": 0,
        "slot": "10",
        "type": "t_mapping(t_address,t_array(t_uint256)dyn_storage)"
      },
      {
        "astId": 4379,
        "contract": "contracts/DDMeshMarket.sol:DDMeshMarket",
        "label": "providerIdToAgreements",
        "offset": 0,
        "slot": "11",
        "type": "t_mapping(t_uint256,t_array(t_uint256)dyn_storage)"
      },
      {
        "astId": 4382,
        "contract": "contracts/DDMeshMarket.sol:DDMeshMarket",
        "label": "agreements",
        "offset": 0,
        "slot": "12",
        "type": "t_array(t_uint256)dyn_storage"
      }
    ],
    "types": {
      "t_address": {
        "encoding": "inplace",
        "label": "address",
        "numberOfBytes": "20"
      },
      "t_array(t_struct(Provider)4341_storage)dyn_storage": {
        "base": "t_struct(Provider)4341_storage",
        "encoding": "dynamic_array",
        "label": "struct DDMeshMarket.Provider[]",
        "numberOfBytes": "32"
      },
      "t_array(t_uint256)dyn_storage": {
        "base": "t_uint256",
        "encoding": "dynamic_array",
        "label": "uint256[]",
        "numberOfBytes": "32"
      },
      "t_bool": {
        "encoding": "inplace",
        "label": "bool",
        "numberOfBytes": "1"
      },
      "t_bytes32": {
        "encoding": "inplace",
        "label": "bytes32",
        "numberOfBytes": "32"
      },
      "t_contract(IToken)5076": {
        "encoding": "inplace",
        "label": "contract IToken",
        "numberOfBytes": "20"
      },
      "t_enum(AgreementStatus)4306": {
        "encoding": "inplace",
        "label": "enum DDMeshMarket.AgreementStatus",
        "numberOfBytes": "1"
      },
      "t_mapping(t_address,t_array(t_uint256)dyn_storage)": {
        "encoding": "mapping",
        "key": "t_address",
        "label": "mapping(address => uint256[])",
        "numberOfBytes": "32",
        "value": "t_array(t_uint256)dyn_storage"
      },
      "t_mapping(t_address,t_bool)": {
        "encoding": "mapping",
        "key": "t_address",
        "label": "mapping(address => bool)",
        "numberOfBytes": "32",
        "value": "t_bool"
      },
      "t_mapping(t_address,t_struct(Provider)4341_storage)": {
        "encoding": "mapping",
        "key": "t_address",
        "label": "mapping(address => struct DDMeshMarket.Provider)",
        "numberOfBytes": "32",
        "value": "t_struct(Provider)4341_storage"
      },
      "t_mapping(t_bytes32,t_struct(RoleData)21_storage)": {
        "encoding": "mapping",
        "key": "t_bytes32",
        "label": "mapping(bytes32 => struct AccessControl.RoleData)",
        "numberOfBytes": "32",
        "value": "t_struct(RoleData)21_storage"
      },
      "t_mapping(t_uint256,t_array(t_uint256)dyn_storage)": {
        "encoding": "mapping",
        "key": "t_uint256",
        "label": "mapping(uint256 => uint256[])",
        "numberOfBytes": "32",
        "value": "t_array(t_uint256)dyn_storage"
      },
      "t_mapping(t_uint256,t_struct(Agreement)4326_storage)": {
        "encoding": "mapping",
        "key": "t_uint256",
        "label": "mapping(uint256 => struct DDMeshMarket.Agreement)",
        "numberOfBytes": "32",
        "value": "t_struct(Agreement)4326_storage"
      },
      "t_mapping(t_uint256,t_struct(Provider)4341_storage)": {
        "encoding": "mapping",
        "key": "t_uint256",
        "label": "mapping(uint256 => struct DDMeshMarket.Provider)",
        "numberOfBytes": "32",
        "value": "t_struct(Provider)4341_storage"
      },
      "t_string_storage": {
        "encoding": "bytes",
        "label": "string",
        "numberOfBytes": "32"
      },
      "t_struct(Agreement)4326_storage": {
        "encoding": "inplace",
        "label": "struct DDMeshMarket.Agreement",
        "members": [
          {
            "astId": 4308,
            "contract": "contracts/DDMeshMarket.sol:DDMeshMarket",
            "label": "id",
            "offset": 0,
            "slot": "0",
            "type": "t_uint256"
          },
          {
            "astId": 4310,
            "contract": "contracts/DDMeshMarket.sol:DDMeshMarket",
            "label": "user",
            "offset": 0,
            "slot": "1",
            "type": "t_address"
          },
          {
            "astId": 4312,
            "contract": "contracts/DDMeshMarket.sol:DDMeshMarket",
            "label": "userBalance",
            "offset": 0,
            "slot": "2",
            "type": "t_uint256"
          },
          {
            "astId": 4314,
            "contract": "contracts/DDMeshMarket.sol:DDMeshMarket",
            "label": "providerAddress",
            "offset": 0,
            "slot": "3",
            "type": "t_address"
          },
          {
            "astId": 4316,
            "contract": "contracts/DDMeshMarket.sol:DDMeshMarket",
            "label": "providerId",
            "offset": 0,
            "slot": "4",
            "type": "t_uint256"
          },
          {
            "astId": 4318,
            "contract": "contracts/DDMeshMarket.sol:DDMeshMarket",
            "label": "providerClaimed",
            "offset": 0,
            "slot": "5",
            "type": "t_uint256"
          },
          {
            "astId": 4320,
            "contract": "contracts/DDMeshMarket.sol:DDMeshMarket",
            "label": "encConnectionString",
            "offset": 0,
            "slot": "6",
            "type": "t_string_storage"
          },
          {
            "astId": 4322,
            "contract": "contracts/DDMeshMarket.sol:DDMeshMarket",
            "label": "startTimeStamp",
            "offset": 0,
            "slot": "7",
            "type": "t_uint256"
          },
          {
            "astId": 4325,
            "contract": "contracts/DDMeshMarket.sol:DDMeshMarket",
            "label": "status",
            "offset": 0,
            "slot": "8",
            "type": "t_enum(AgreementStatus)4306"
          }
        ],
        "numberOfBytes": "288"
      },
      "t_struct(Provider)4341_storage": {
        "encoding": "inplace",
        "label": "struct DDMeshMarket.Provider",
        "members": [
          {
            "astId": 4328,
            "contract": "contracts/DDMeshMarket.sol:DDMeshMarket",
            "label": "id",
            "offset": 0,
            "slot": "0",
            "type": "t_uint256"
          },
          {
            "astId": 4330,
            "contract": "contracts/DDMeshMarket.sol:DDMeshMarket",
            "label": "pAddress",
            "offset": 0,
            "slot": "1",
            "type": "t_address"
          },
          {
            "astId": 4332,
            "contract": "contracts/DDMeshMarket.sol:DDMeshMarket",
            "label": "fee",
            "offset": 0,
            "slot": "2",
            "type": "t_uint256"
          },
          {
            "astId": 4334,
            "contract": "contracts/DDMeshMarket.sol:DDMeshMarket",
            "label": "encApiKey",
            "offset": 0,
            "slot": "3",
            "type": "t_string_storage"
          },
          {
            "astId": 4336,
            "contract": "contracts/DDMeshMarket.sol:DDMeshMarket",
            "label": "ensName",
            "offset": 0,
            "slot": "4",
            "type": "t_string_storage"
          },
          {
            "astId": 4338,
            "contract": "contracts/DDMeshMarket.sol:DDMeshMarket",
            "label": "noOfDbAgreements",
            "offset": 0,
            "slot": "5",
            "type": "t_uint256"
          },
          {
            "astId": 4340,
            "contract": "contracts/DDMeshMarket.sol:DDMeshMarket",
            "label": "activeAgreements",
            "offset": 0,
            "slot": "6",
            "type": "t_uint256"
          }
        ],
        "numberOfBytes": "224"
      },
      "t_struct(RoleData)21_storage": {
        "encoding": "inplace",
        "label": "struct AccessControl.RoleData",
        "members": [
          {
            "astId": 18,
            "contract": "contracts/DDMeshMarket.sol:DDMeshMarket",
            "label": "hasRole",
            "offset": 0,
            "slot": "0",
            "type": "t_mapping(t_address,t_bool)"
          },
          {
            "astId": 20,
            "contract": "contracts/DDMeshMarket.sol:DDMeshMarket",
            "label": "adminRole",
            "offset": 0,
            "slot": "1",
            "type": "t_bytes32"
          }
        ],
        "numberOfBytes": "64"
      },
      "t_uint256": {
        "encoding": "inplace",
        "label": "uint256",
        "numberOfBytes": "32"
      }
    }
  }
}