{
  "address": "0xD443622B458A769bcc2F5961194D02C62d8DF48c",
  "abi": [
    {
      "inputs": [
        {
          "internalType": "address",
          "name": "_tokenAddress",
          "type": "address"
        }
      ],
      "stateMutability": "nonpayable",
      "type": "constructor"
    },
    {
      "inputs": [],
      "name": "AccessControlBadConfirmation",
      "type": "error"
    },
    {
      "inputs": [
        {
          "internalType": "address",
          "name": "account",
          "type": "address"
        },
        {
          "internalType": "bytes32",
          "name": "neededRole",
          "type": "bytes32"
        }
      ],
      "name": "AccessControlUnauthorizedAccount",
      "type": "error"
    },
    {
      "inputs": [
        {
          "internalType": "address",
          "name": "owner",
          "type": "address"
        }
      ],
      "name": "OwnableInvalidOwner",
      "type": "error"
    },
    {
      "inputs": [
        {
          "internalType": "address",
          "name": "account",
          "type": "address"
        }
      ],
      "name": "OwnableUnauthorizedAccount",
      "type": "error"
    },
    {
      "anonymous": false,
      "inputs": [
        {
          "indexed": false,
          "internalType": "uint256",
          "name": "agreementId",
          "type": "uint256"
        },
        {
          "indexed": false,
          "internalType": "address",
          "name": "userAddress",
          "type": "address"
        },
        {
          "indexed": false,
          "internalType": "address",
          "name": "providerAddress",
          "type": "address"
        },
        {
          "indexed": false,
          "internalType": "uint256",
          "name": "providerId",
          "type": "uint256"
        },
        {
          "indexed": false,
          "internalType": "string",
          "name": "encApiKey",
          "type": "string"
        },
        {
          "indexed": false,
          "internalType": "string",
          "name": "encConnectionString",
          "type": "string"
        }
      ],
      "name": "AgreementActivated",
      "type": "event"
    },
    {
      "anonymous": false,
      "inputs": [
        {
          "indexed": false,
          "internalType": "uint256",
          "name": "agreementId",
          "type": "uint256"
        },
        {
          "indexed": false,
          "internalType": "address",
          "name": "userAddress",
          "type": "address"
        },
        {
          "indexed": false,
          "internalType": "address",
          "name": "providerAddress",
          "type": "address"
        },
        {
          "indexed": false,
          "internalType": "uint256",
          "name": "providerId",
          "type": "uint256"
        },
        {
          "indexed": false,
          "internalType": "string",
          "name": "encApiKey",
          "type": "string"
        }
      ],
      "name": "AgreementClosed",
      "type": "event"
    },
    {
      "anonymous": false,
      "inputs": [
        {
          "indexed": false,
          "internalType": "uint256",
          "name": "agreementId",
          "type": "uint256"
        },
        {
          "indexed": false,
          "internalType": "address",
          "name": "userAddress",
          "type": "address"
        },
        {
          "indexed": false,
          "internalType": "address",
          "name": "providerAddress",
          "type": "address"
        },
        {
          "indexed": false,
          "internalType": "uint256",
          "name": "providerId",
          "type": "uint256"
        },
        {
          "indexed": false,
          "internalType": "string",
          "name": "encApiKey",
          "type": "string"
        },
        {
          "indexed": false,
          "internalType": "string",
          "name": "encConnectionString",
          "type": "string"
        }
      ],
      "name": "AgreementCreated",
      "type": "event"
    },
    {
      "anonymous": false,
      "inputs": [
        {
          "indexed": true,
          "internalType": "address",
          "name": "previousOwner",
          "type": "address"
        },
        {
          "indexed": true,
          "internalType": "address",
          "name": "newOwner",
          "type": "address"
        }
      ],
      "name": "OwnershipTransferred",
      "type": "event"
    },
    {
      "anonymous": false,
      "inputs": [
        {
          "indexed": false,
          "internalType": "uint256",
          "name": "id",
          "type": "uint256"
        },
        {
          "indexed": false,
          "internalType": "address",
          "name": "provider",
          "type": "address"
        },
        {
          "indexed": false,
          "internalType": "uint256",
          "name": "fee",
          "type": "uint256"
        },
        {
          "indexed": false,
          "internalType": "string",
          "name": "encApiKey",
          "type": "string"
        },
        {
          "indexed": false,
          "internalType": "string",
          "name": "ensName",
          "type": "string"
        }
      ],
      "name": "ProviderRegistered",
      "type": "event"
    },
    {
      "anonymous": false,
      "inputs": [
        {
          "indexed": true,
          "internalType": "bytes32",
          "name": "role",
          "type": "bytes32"
        },
        {
          "indexed": true,
          "internalType": "bytes32",
          "name": "previousAdminRole",
          "type": "bytes32"
        },
        {
          "indexed": true,
          "internalType": "bytes32",
          "name": "newAdminRole",
          "type": "bytes32"
        }
      ],
      "name": "RoleAdminChanged",
      "type": "event"
    },
    {
      "anonymous": false,
      "inputs": [
        {
          "indexed": true,
          "internalType": "bytes32",
          "name": "role",
          "type": "bytes32"
        },
        {
          "indexed": true,
          "internalType": "address",
          "name": "account",
          "type": "address"
        },
        {
          "indexed": true,
          "internalType": "address",
          "name": "sender",
          "type": "address"
        }
      ],
      "name": "RoleGranted",
      "type": "event"
    },
    {
      "anonymous": false,
      "inputs": [
        {
          "indexed": true,
          "internalType": "bytes32",
          "name": "role",
          "type": "bytes32"
        },
        {
          "indexed": true,
          "internalType": "address",
          "name": "account",
          "type": "address"
        },
        {
          "indexed": true,
          "internalType": "address",
          "name": "sender",
          "type": "address"
        }
      ],
      "name": "RoleRevoked",
      "type": "event"
    },
    {
      "anonymous": false,
      "inputs": [
        {
          "indexed": false,
          "internalType": "uint256",
          "name": "amount",
          "type": "uint256"
        },
        {
          "indexed": false,
          "internalType": "address",
          "name": "provider",
          "type": "address"
        }
      ],
      "name": "WithdrawReward",
      "type": "event"
    },
    {
      "anonymous": false,
      "inputs": [
        {
          "indexed": false,
          "internalType": "uint256",
          "name": "amount",
          "type": "uint256"
        },
        {
          "indexed": false,
          "internalType": "address",
          "name": "user",
          "type": "address"
        }
      ],
      "name": "WithdrawUserBalance",
      "type": "event"
    },
    {
      "inputs": [],
      "name": "DEFAULT_ADMIN_ROLE",
      "outputs": [
        {
          "internalType": "bytes32",
          "name": "",
          "type": "bytes32"
        }
      ],
      "stateMutability": "view",
      "type": "function"
    },
    {
      "inputs": [
        {
          "internalType": "address",
          "name": "",
          "type": "address"
        }
      ],
      "name": "addressToProvider",
      "outputs": [
        {
          "internalType": "uint256",
          "name": "id",
          "type": "uint256"
        },
        {
          "internalType": "address",
          "name": "pAddress",
          "type": "address"
        },
        {
          "internalType": "uint256",
          "name": "fee",
          "type": "uint256"
        },
        {
          "internalType": "string",
          "name": "encApiKey",
          "type": "string"
        },
        {
          "internalType": "string",
          "name": "ensName",
          "type": "string"
        },
        {
          "internalType": "string",
          "name": "description",
          "type": "string"
        },
        {
          "internalType": "uint256",
          "name": "noOfDbAgreements",
          "type": "uint256"
        },
        {
          "internalType": "uint256",
          "name": "activeAgreements",
          "type": "uint256"
        }
      ],
      "stateMutability": "view",
      "type": "function"
    },
    {
      "inputs": [
        {
          "internalType": "uint256",
          "name": "",
          "type": "uint256"
        }
      ],
      "name": "agreementIdToAgreement",
      "outputs": [
        {
          "internalType": "uint256",
          "name": "id",
          "type": "uint256"
        },
        {
          "internalType": "address",
          "name": "user",
          "type": "address"
        },
        {
          "internalType": "uint256",
          "name": "userBalance",
          "type": "uint256"
        },
        {
          "internalType": "address",
          "name": "providerAddress",
          "type": "address"
        },
        {
          "internalType": "uint256",
          "name": "providerId",
          "type": "uint256"
        },
        {
          "internalType": "uint256",
          "name": "providerClaimed",
          "type": "uint256"
        },
        {
          "internalType": "string",
          "name": "encConnectionString",
          "type": "string"
        },
        {
          "internalType": "uint256",
          "name": "startTimeStamp",
          "type": "uint256"
        },
        {
          "internalType": "enum DDMeshMarket.AgreementStatus",
          "name": "status",
          "type": "uint8"
        }
      ],
      "stateMutability": "view",
      "type": "function"
    },
    {
      "inputs": [],
      "name": "agreementIdTotalCount",
      "outputs": [
        {
          "internalType": "uint256",
          "name": "",
          "type": "uint256"
        }
      ],
      "stateMutability": "view",
      "type": "function"
    },
    {
      "inputs": [
        {
          "internalType": "uint256",
          "name": "",
          "type": "uint256"
        }
      ],
      "name": "agreements",
      "outputs": [
        {
          "internalType": "uint256",
          "name": "",
          "type": "uint256"
        }
      ],
      "stateMutability": "view",
      "type": "function"
    },
    {
      "inputs": [
        {
          "internalType": "uint256",
          "name": "_agreementId",
          "type": "uint256"
        }
      ],
      "name": "closeAgreementByProvider",
      "outputs": [],
      "stateMutability": "nonpayable",
      "type": "function"
    },
    {
      "inputs": [
        {
          "internalType": "uint256",
          "name": "_agreementId",
          "type": "uint256"
        }
      ],
      "name": "closeAgreementByUser",
      "outputs": [],
      "stateMutability": "nonpayable",
      "type": "function"
    },
    {
      "inputs": [
        {
          "internalType": "uint256",
          "name": "_providerId",
          "type": "uint256"
        },
        {
          "internalType": "uint256",
          "name": "_amount",
          "type": "uint256"
        }
      ],
      "name": "enterAgreement",
      "outputs": [],
      "stateMutability": "nonpayable",
      "type": "function"
    },
    {
      "inputs": [
        {
          "internalType": "uint256",
          "name": "_agreementId",
          "type": "uint256"
        }
      ],
      "name": "getAgreement",
      "outputs": [
        {
          "components": [
            {
              "internalType": "uint256",
              "name": "id",
              "type": "uint256"
            },
            {
              "internalType": "address",
              "name": "user",
              "type": "address"
            },
            {
              "internalType": "uint256",
              "name": "userBalance",
              "type": "uint256"
            },
            {
              "internalType": "address",
              "name": "providerAddress",
              "type": "address"
            },
            {
              "internalType": "uint256",
              "name": "providerId",
              "type": "uint256"
            },
            {
              "internalType": "uint256",
              "name": "providerClaimed",
              "type": "uint256"
            },
            {
              "internalType": "string",
              "name": "encConnectionString",
              "type": "string"
            },
            {
              "internalType": "uint256",
              "name": "startTimeStamp",
              "type": "uint256"
            },
            {
              "internalType": "enum DDMeshMarket.AgreementStatus",
              "name": "status",
              "type": "uint8"
            }
          ],
          "internalType": "struct DDMeshMarket.Agreement",
          "name": "",
          "type": "tuple"
        }
      ],
      "stateMutability": "view",
      "type": "function"
    },
    {
      "inputs": [],
      "name": "getAllAgreements",
      "outputs": [
        {
          "internalType": "uint256[]",
          "name": "",
          "type": "uint256[]"
        }
      ],
      "stateMutability": "view",
      "type": "function"
    },
    {
      "inputs": [],
      "name": "getAllProviders",
      "outputs": [
        {
          "components": [
            {
              "internalType": "uint256",
              "name": "id",
              "type": "uint256"
            },
            {
              "internalType": "address",
              "name": "pAddress",
              "type": "address"
            },
            {
              "internalType": "uint256",
              "name": "fee",
              "type": "uint256"
            },
            {
              "internalType": "string",
              "name": "encApiKey",
              "type": "string"
            },
            {
              "internalType": "string",
              "name": "ensName",
              "type": "string"
            },
            {
              "internalType": "string",
              "name": "description",
              "type": "string"
            },
            {
              "internalType": "uint256",
              "name": "noOfDbAgreements",
              "type": "uint256"
            },
            {
              "internalType": "uint256",
              "name": "activeAgreements",
              "type": "uint256"
            }
          ],
          "internalType": "struct DDMeshMarket.Provider[]",
          "name": "",
          "type": "tuple[]"
        }
      ],
      "stateMutability": "view",
      "type": "function"
    },
    {
      "inputs": [
        {
          "internalType": "address",
          "name": "_providerAddress",
          "type": "address"
        }
      ],
      "name": "getProviderAgreements",
      "outputs": [
        {
          "internalType": "uint256[]",
          "name": "",
          "type": "uint256[]"
        }
      ],
      "stateMutability": "view",
      "type": "function"
    },
    {
      "inputs": [
        {
          "internalType": "address",
          "name": "_providerAddress",
          "type": "address"
        }
      ],
      "name": "getProviderByAddress",
      "outputs": [
        {
          "components": [
            {
              "internalType": "uint256",
              "name": "id",
              "type": "uint256"
            },
            {
              "internalType": "address",
              "name": "pAddress",
              "type": "address"
            },
            {
              "internalType": "uint256",
              "name": "fee",
              "type": "uint256"
            },
            {
              "internalType": "string",
              "name": "encApiKey",
              "type": "string"
            },
            {
              "internalType": "string",
              "name": "ensName",
              "type": "string"
            },
            {
              "internalType": "string",
              "name": "description",
              "type": "string"
            },
            {
              "internalType": "uint256",
              "name": "noOfDbAgreements",
              "type": "uint256"
            },
            {
              "internalType": "uint256",
              "name": "activeAgreements",
              "type": "uint256"
            }
          ],
          "internalType": "struct DDMeshMarket.Provider",
          "name": "",
          "type": "tuple"
        }
      ],
      "stateMutability": "view",
      "type": "function"
    },
    {
      "inputs": [
        {
          "internalType": "uint256",
          "name": "_providerId",
          "type": "uint256"
        }
      ],
      "name": "getProviderByProviderId",
      "outputs": [
        {
          "components": [
            {
              "internalType": "uint256",
              "name": "id",
              "type": "uint256"
            },
            {
              "internalType": "address",
              "name": "pAddress",
              "type": "address"
            },
            {
              "internalType": "uint256",
              "name": "fee",
              "type": "uint256"
            },
            {
              "internalType": "string",
              "name": "encApiKey",
              "type": "string"
            },
            {
              "internalType": "string",
              "name": "ensName",
              "type": "string"
            },
            {
              "internalType": "string",
              "name": "description",
              "type": "string"
            },
            {
              "internalType": "uint256",
              "name": "noOfDbAgreements",
              "type": "uint256"
            },
            {
              "internalType": "uint256",
              "name": "activeAgreements",
              "type": "uint256"
            }
          ],
          "internalType": "struct DDMeshMarket.Provider",
          "name": "",
          "type": "tuple"
        }
      ],
      "stateMutability": "view",
      "type": "function"
    },
    {
      "inputs": [
        {
          "internalType": "uint256",
          "name": "_providerId",
          "type": "uint256"
        }
      ],
      "name": "getProviderIdToAgreements",
      "outputs": [
        {
          "internalType": "uint256[]",
          "name": "",
          "type": "uint256[]"
        }
      ],
      "stateMutability": "view",
      "type": "function"
    },
    {
      "inputs": [],
      "name": "getProviderTVLs",
      "outputs": [
        {
          "internalType": "address[]",
          "name": "",
          "type": "address[]"
        },
        {
          "internalType": "uint256[]",
          "name": "",
          "type": "uint256[]"
        }
      ],
      "stateMutability": "view",
      "type": "function"
    },
    {
      "inputs": [
        {
          "internalType": "bytes32",
          "name": "role",
          "type": "bytes32"
        }
      ],
      "name": "getRoleAdmin",
      "outputs": [
        {
          "internalType": "bytes32",
          "name": "",
          "type": "bytes32"
        }
      ],
      "stateMutability": "view",
      "type": "function"
    },
    {
      "inputs": [
        {
          "internalType": "address",
          "name": "_userAddress",
          "type": "address"
        }
      ],
      "name": "getUserAgreements",
      "outputs": [
        {
          "internalType": "uint256[]",
          "name": "",
          "type": "uint256[]"
        }
      ],
      "stateMutability": "view",
      "type": "function"
    },
    {
      "inputs": [
        {
          "internalType": "bytes32",
          "name": "role",
          "type": "bytes32"
        },
        {
          "internalType": "address",
          "name": "account",
          "type": "address"
        }
      ],
      "name": "grantRole",
      "outputs": [],
      "stateMutability": "nonpayable",
      "type": "function"
    },
    {
      "inputs": [
        {
          "internalType": "bytes32",
          "name": "role",
          "type": "bytes32"
        },
        {
          "internalType": "address",
          "name": "account",
          "type": "address"
        }
      ],
      "name": "hasRole",
      "outputs": [
        {
          "internalType": "bool",
          "name": "",
          "type": "bool"
        }
      ],
      "stateMutability": "view",
      "type": "function"
    },
    {
      "inputs": [],
      "name": "owner",
      "outputs": [
        {
          "internalType": "address",
          "name": "",
          "type": "address"
        }
      ],
      "stateMutability": "view",
      "type": "function"
    },
    {
      "inputs": [
        {
          "internalType": "address",
          "name": "",
          "type": "address"
        },
        {
          "internalType": "uint256",
          "name": "",
          "type": "uint256"
        }
      ],
      "name": "providerAgreements",
      "outputs": [
        {
          "internalType": "uint256",
          "name": "",
          "type": "uint256"
        }
      ],
      "stateMutability": "view",
      "type": "function"
    },
    {
      "inputs": [
        {
          "internalType": "uint256",
          "name": "",
          "type": "uint256"
        },
        {
          "internalType": "uint256",
          "name": "",
          "type": "uint256"
        }
      ],
      "name": "providerIdToAgreements",
      "outputs": [
        {
          "internalType": "uint256",
          "name": "",
          "type": "uint256"
        }
      ],
      "stateMutability": "view",
      "type": "function"
    },
    {
      "inputs": [
        {
          "internalType": "uint256",
          "name": "",
          "type": "uint256"
        }
      ],
      "name": "providerIdToProvider",
      "outputs": [
        {
          "internalType": "uint256",
          "name": "id",
          "type": "uint256"
        },
        {
          "internalType": "address",
          "name": "pAddress",
          "type": "address"
        },
        {
          "internalType": "uint256",
          "name": "fee",
          "type": "uint256"
        },
        {
          "internalType": "string",
          "name": "encApiKey",
          "type": "string"
        },
        {
          "internalType": "string",
          "name": "ensName",
          "type": "string"
        },
        {
          "internalType": "string",
          "name": "description",
          "type": "string"
        },
        {
          "internalType": "uint256",
          "name": "noOfDbAgreements",
          "type": "uint256"
        },
        {
          "internalType": "uint256",
          "name": "activeAgreements",
          "type": "uint256"
        }
      ],
      "stateMutability": "view",
      "type": "function"
    },
    {
      "inputs": [],
      "name": "providerIdTotalCount",
      "outputs": [
        {
          "internalType": "uint256",
          "name": "",
          "type": "uint256"
        }
      ],
      "stateMutability": "view",
      "type": "function"
    },
    {
      "inputs": [
        {
          "internalType": "address",
          "name": "",
          "type": "address"
        }
      ],
      "name": "providerToTVLAcrossAllAgreements",
      "outputs": [
        {
          "internalType": "uint256",
          "name": "",
          "type": "uint256"
        }
      ],
      "stateMutability": "view",
      "type": "function"
    },
    {
      "inputs": [
        {
          "internalType": "uint256",
          "name": "",
          "type": "uint256"
        }
      ],
      "name": "providers",
      "outputs": [
        {
          "internalType": "uint256",
          "name": "id",
          "type": "uint256"
        },
        {
          "internalType": "address",
          "name": "pAddress",
          "type": "address"
        },
        {
          "internalType": "uint256",
          "name": "fee",
          "type": "uint256"
        },
        {
          "internalType": "string",
          "name": "encApiKey",
          "type": "string"
        },
        {
          "internalType": "string",
          "name": "ensName",
          "type": "string"
        },
        {
          "internalType": "string",
          "name": "description",
          "type": "string"
        },
        {
          "internalType": "uint256",
          "name": "noOfDbAgreements",
          "type": "uint256"
        },
        {
          "internalType": "uint256",
          "name": "activeAgreements",
          "type": "uint256"
        }
      ],
      "stateMutability": "view",
      "type": "function"
    },
    {
      "inputs": [
        {
          "internalType": "uint256",
          "name": "_fee",
          "type": "uint256"
        },
        {
          "internalType": "string",
          "name": "_enc_apiKey",
          "type": "string"
        },
        {
          "internalType": "string",
          "name": "_ensName",
          "type": "string"
        },
        {
          "internalType": "string",
          "name": "_description",
          "type": "string"
        },
        {
          "internalType": "uint256",
          "name": "_noOfDbAgreements",
          "type": "uint256"
        }
      ],
      "name": "registerProvider",
      "outputs": [],
      "stateMutability": "nonpayable",
      "type": "function"
    },
    {
      "inputs": [],
      "name": "renounceOwnership",
      "outputs": [],
      "stateMutability": "nonpayable",
      "type": "function"
    },
    {
      "inputs": [
        {
          "internalType": "bytes32",
          "name": "role",
          "type": "bytes32"
        },
        {
          "internalType": "address",
          "name": "callerConfirmation",
          "type": "address"
        }
      ],
      "name": "renounceRole",
      "outputs": [],
      "stateMutability": "nonpayable",
      "type": "function"
    },
    {
      "inputs": [
        {
          "internalType": "bytes32",
          "name": "role",
          "type": "bytes32"
        },
        {
          "internalType": "address",
          "name": "account",
          "type": "address"
        }
      ],
      "name": "revokeRole",
      "outputs": [],
      "stateMutability": "nonpayable",
      "type": "function"
    },
    {
      "inputs": [
        {
          "internalType": "uint256",
          "name": "_agreementId",
          "type": "uint256"
        },
        {
          "internalType": "string",
          "name": "_encConnectionString",
          "type": "string"
        }
      ],
      "name": "setConnectionStringAndActivateAgreement",
      "outputs": [],
      "stateMutability": "nonpayable",
      "type": "function"
    },
    {
      "inputs": [
        {
          "internalType": "bytes4",
          "name": "interfaceId",
          "type": "bytes4"
        }
      ],
      "name": "supportsInterface",
      "outputs": [
        {
          "internalType": "bool",
          "name": "",
          "type": "bool"
        }
      ],
      "stateMutability": "view",
      "type": "function"
    },
    {
      "inputs": [],
      "name": "token",
      "outputs": [
        {
          "internalType": "contract IToken",
          "name": "",
          "type": "address"
        }
      ],
      "stateMutability": "view",
      "type": "function"
    },
    {
      "inputs": [
        {
          "internalType": "address",
          "name": "newOwner",
          "type": "address"
        }
      ],
      "name": "transferOwnership",
      "outputs": [],
      "stateMutability": "nonpayable",
      "type": "function"
    },
    {
      "inputs": [
        {
          "internalType": "address",
          "name": "",
          "type": "address"
        },
        {
          "internalType": "uint256",
          "name": "",
          "type": "uint256"
        }
      ],
      "name": "userAgreements",
      "outputs": [
        {
          "internalType": "uint256",
          "name": "",
          "type": "uint256"
        }
      ],
      "stateMutability": "view",
      "type": "function"
    },
    {
      "inputs": [
        {
          "internalType": "uint256",
          "name": "_amount",
          "type": "uint256"
        },
        {
          "internalType": "uint256",
          "name": "_agreementId",
          "type": "uint256"
        }
      ],
      "name": "withdrawBalanceUser",
      "outputs": [],
      "stateMutability": "nonpayable",
      "type": "function"
    },
    {
      "inputs": [
        {
          "internalType": "uint256",
          "name": "_amount",
          "type": "uint256"
        },
        {
          "internalType": "address",
          "name": "_user",
          "type": "address"
        },
        {
          "internalType": "uint256",
          "name": "_agreementId",
          "type": "uint256"
        }
      ],
      "name": "withdrawReward",
      "outputs": [],
      "stateMutability": "nonpayable",
      "type": "function"
    }
  ],
  "transactionHash": "0x873edf39234aa788e2548052a99aa80e32ab5f105ad917ad3b6ee540400baf88",
  "args": [
    "0x15223Dee9891d84609889798bb63ADe5e1FDcB15"
  ],
  "numDeployments": 6,
  "solcInputHash": "2c1f9e55ed570f1fcdd1fccde4e44583",
  "bytecode": "0x60806040523480156200001157600080fd5b50604051620035a7380380620035a783398101604081905262000034916200019c565b33806200005b57604051631e4fbdf760e01b81526000600482015260240160405180910390fd5b62000066816200009b565b5062000074600033620000ed565b50600280546001600160a01b0319166001600160a01b0392909216919091179055620001ce565b600180546001600160a01b038381166001600160a01b0319831681179093556040519116919082907f8be0079c531659141344cd1fd0a4f28419497f9722a3daafe3b4186f6b6457e090600090a35050565b6000828152602081815260408083206001600160a01b038516845290915281205460ff1662000192576000838152602081815260408083206001600160a01b03861684529091529020805460ff19166001179055620001493390565b6001600160a01b0316826001600160a01b0316847f2f8788117e7eff1d82e926ec794901d17c78024a50270940304540a733656f0d60405160405180910390a450600162000196565b5060005b92915050565b600060208284031215620001af57600080fd5b81516001600160a01b0381168114620001c757600080fd5b9392505050565b6133c980620001de6000396000f3fe608060405234801561001057600080fd5b50600436106102325760003560e01c8063864739e311610130578063bd14de96116100b8578063ece495ec1161007c578063ece495ec14610528578063f2fde38b14610531578063fc0c546a14610544578063fc6bcf3914610557578063fdf73bd61461056a57600080fd5b8063bd14de96146104d3578063c5262c93146104e6578063d547741f146104ef578063d5b548f514610502578063e845bdae1461051557600080fd5b80639c1a0482116100ff5780639c1a04821461047c5780639e68377c1461048f578063a217fddf146104a2578063a9f8d60d146104aa578063adb9cae6146104c057600080fd5b8063864739e3146104095780638da5cb5b1461043157806391d148541461045657806393202d071461046957600080fd5b806336568abe116101be5780634f9f6fe6116101825780634f9f6fe6146103a857806350f3fc81146103c8578063593be20d146103db5780636f124f1c146103ee578063715018a61461040157600080fd5b806336568abe1461035257806338808aaf146103655780633bb4497c146103785780634c27984e1461038d5780634e6873c7146103a057600080fd5b80632335bde0116102055780632335bde0146102c7578063237a39f9146102e7578063248a9ca3146103075780632f2ff15d1461032a5780633500a9531461033f57600080fd5b8063013f478f1461023757806301ffc9a71461026a578063144161e51461028d5780631d824046146102b4575b600080fd5b6102576102453660046129af565b600b6020526000908152604090205481565b6040519081526020015b60405180910390f35b61027d6102783660046129d1565b61057d565b6040519015158152602001610261565b6102a061029b3660046129af565b6105b4565b604051610261989796959493929190612a41565b6102576102c2366004612ab3565b610799565b6102da6102d53660046129af565b6107ca565b6040516102619190612b66565b6102fa6102f53660046129af565b6109ed565b6040516102619190612bb5565b610257610315366004612bc8565b60009081526020819052604090206001015490565b61033d610338366004612be1565b610a59565b005b61025761034d366004612c0d565b610a84565b61033d610360366004612be1565b610aa0565b61033d610373366004612cda565b610ad8565b610380610c1b565b6040516102619190612d21565b61025761039b366004612c0d565b610e70565b6102fa610e8c565b6103bb6103b6366004612bc8565b610ee4565b6040516102619190612dbd565b6102a06103d6366004612bc8565b611027565b6102a06103e9366004612bc8565b611076565b61033d6103fc366004612ab3565b6110b0565b61033d61121e565b61041c610417366004612bc8565b611232565b60405161026199989796959493929190612e65565b6001546001600160a01b03165b6040516001600160a01b039091168152602001610261565b61027d610464366004612be1565b611317565b61033d610477366004612bc8565b611340565b6102fa61048a366004612bc8565b6117f0565b6102da61049d366004612bc8565b611850565b610257600081565b6104b26118b0565b604051610261929190612ed2565b6102fa6104ce3660046129af565b611a36565b6102576104e1366004612bc8565b611aa0565b61025760035481565b61033d6104fd366004612be1565b611ac1565b61033d610510366004612ab3565b611ae6565b61033d610523366004612f33565b611e9d565b61025760045481565b61033d61053f3660046129af565b612140565b60025461043e906001600160a01b031681565b61033d610565366004612fcd565b61217e565b61033d610578366004612bc8565b612359565b60006001600160e01b03198216637965db0b60e01b14806105ae57506301ffc9a760e01b6001600160e01b03198316145b92915050565b600760205260009081526040902080546001820154600283015460038401805493946001600160a01b03909316939192916105ee90613002565b80601f016020809104026020016040519081016040528092919081815260200182805461061a90613002565b80156106675780601f1061063c57610100808354040283529160200191610667565b820191906000526020600020905b81548152906001019060200180831161064a57829003601f168201915b50505050509080600401805461067c90613002565b80601f01602080910402602001604051908101604052809291908181526020018280546106a890613002565b80156106f55780601f106106ca576101008083540402835291602001916106f5565b820191906000526020600020905b8154815290600101906020018083116106d857829003601f168201915b50505050509080600501805461070a90613002565b80601f016020809104026020016040519081016040528092919081815260200182805461073690613002565b80156107835780601f1061075857610100808354040283529160200191610783565b820191906000526020600020905b81548152906001019060200180831161076657829003601f168201915b5050505050908060060154908060070154905088565b600a60205281600052604060002081815481106107b557600080fd5b90600052602060002001600091509150505481565b6107d26128d7565b6001600160a01b038083166000908152600760209081526040918290208251610100810184528154815260018201549094169184019190915260028101549183019190915260038101805460608401919061082c90613002565b80601f016020809104026020016040519081016040528092919081815260200182805461085890613002565b80156108a55780601f1061087a576101008083540402835291602001916108a5565b820191906000526020600020905b81548152906001019060200180831161088857829003601f168201915b505050505081526020016004820180546108be90613002565b80601f01602080910402602001604051908101604052809291908181526020018280546108ea90613002565b80156109375780601f1061090c57610100808354040283529160200191610937565b820191906000526020600020905b81548152906001019060200180831161091a57829003601f168201915b5050505050815260200160058201805461095090613002565b80601f016020809104026020016040519081016040528092919081815260200182805461097c90613002565b80156109c95780601f1061099e576101008083540402835291602001916109c9565b820191906000526020600020905b8154815290600101906020018083116109ac57829003601f168201915b50505050508152602001600682015481526020016007820154815250509050919050565b6001600160a01b038116600090815260096020908152604091829020805483518184028101840190945280845260609392830182828015610a4d57602002820191906000526020600020905b815481526020019060010190808311610a39575b50505050509050919050565b600082815260208190526040902060010154610a7481612714565b610a7e838361271e565b50505050565b600960205281600052604060002081815481106107b557600080fd5b6001600160a01b0381163314610ac95760405163334bd91960e11b815260040160405180910390fd5b610ad382826127b0565b505050565b600082815260056020526040902080548314610b315760405162461bcd60e51b81526020600482015260136024820152721859dc99595b595b9d081b9bdd08199bdd5b99606a1b60448201526064015b60405180910390fd5b6001600882015460ff166005811115610b4c57610b4c612d85565b14610b995760405162461bcd60e51b815260206004820152601b60248201527f61677265656d656e7420616c72656164792061637469766174656400000000006044820152606401610b28565b60068101610ba7838261308c565b5060088101805460ff1916600217905580546001820154600383015460048401546040517f378a301fbbc85083e6935c8c543eceb5080659f50d3ac2cf482f4015b69de0a994610c0e9490936001600160a01b0391821693911691600688019089906131c9565b60405180910390a1505050565b6060600d805480602002602001604051908101604052809291908181526020016000905b82821015610e675760008481526020908190206040805161010081018252600886029092018054835260018101546001600160a01b031693830193909352600283015490820152600382018054919291606084019190610c9e90613002565b80601f0160208091040260200160405190810160405280929190818152602001828054610cca90613002565b8015610d175780601f10610cec57610100808354040283529160200191610d17565b820191906000526020600020905b815481529060010190602001808311610cfa57829003601f168201915b50505050508152602001600482018054610d3090613002565b80601f0160208091040260200160405190810160405280929190818152602001828054610d5c90613002565b8015610da95780601f10610d7e57610100808354040283529160200191610da9565b820191906000526020600020905b815481529060010190602001808311610d8c57829003601f168201915b50505050508152602001600582018054610dc290613002565b80601f0160208091040260200160405190810160405280929190818152602001828054610dee90613002565b8015610e3b5780601f10610e1057610100808354040283529160200191610e3b565b820191906000526020600020905b815481529060010190602001808311610e1e57829003601f168201915b505050505081526020016006820154815260200160078201548152505081526020019060010190610c3f565b50505050905090565b600860205281600052604060002081815481106107b557600080fd5b6060600c805480602002602001604051908101604052809291908181526020018280548015610eda57602002820191906000526020600020905b815481526020019060010190808311610ec6575b5050505050905090565b610eec612925565b6000828152600560208181526040928390208351610120810185528154815260018201546001600160a01b039081169382019390935260028201549481019490945260038101549091166060840152600481015460808401529081015460a083015260068101805460c084019190610f6390613002565b80601f0160208091040260200160405190810160405280929190818152602001828054610f8f90613002565b8015610fdc5780601f10610fb157610100808354040283529160200191610fdc565b820191906000526020600020905b815481529060010190602001808311610fbf57829003601f168201915b505050918352505060078201546020820152600882015460409091019060ff16600581111561100d5761100d612d85565b600581111561101e5761101e612d85565b90525092915050565b600d818154811061103757600080fd5b600091825260209091206008909102018054600182015460028301546003840180549395506001600160a01b039092169390929091906105ee90613002565b600660205260009081526040902080546001820154600283015460038401805493946001600160a01b03909316939192916105ee90613002565b600081815260056020526040902060018101546001600160a01b0316331461110f5760405162461bcd60e51b81526020600482015260126024820152711b9bdd081e5bdd5c881859dc99595b595b9d60721b6044820152606401610b28565b828160020154101561115a5760405162461bcd60e51b8152602060048201526014602482015273696e73756666696369656e742062616c616e636560601b6044820152606401610b28565b8281600201600082825461116e9190613237565b909155505060025460405163a9059cbb60e01b8152336004820152602481018590526001600160a01b039091169063a9059cbb906044016020604051808303816000875af11580156111c4573d6000803e3d6000fd5b505050506040513d601f19601f820116820180604052508101906111e8919061324a565b50604080518481523360208201527f2a35086a32cc78fc59bb7cd99982f96f28b1d70d40449b36f0b62d06dfff15539101610c0e565b61122661281b565b6112306000612848565b565b6005602081905260009182526040909120805460018201546002830154600384015460048501549585015460068601805495976001600160a01b03958616979496939095169493919261128490613002565b80601f01602080910402602001604051908101604052809291908181526020018280546112b090613002565b80156112fd5780601f106112d2576101008083540402835291602001916112fd565b820191906000526020600020905b8154815290600101906020018083116112e057829003601f168201915b50505050600783015460089093015491929160ff16905089565b6000918252602082815260408084206001600160a01b0393909316845291905290205460ff1690565b60008181526005602081815260408084208151610120810183528154815260018201546001600160a01b039081169482019490945260028201549281019290925260038101549092166060820152600482015460808201529181015460a083015260068101805460c0840191906113b690613002565b80601f01602080910402602001604051908101604052809291908181526020018280546113e290613002565b801561142f5780601f106114045761010080835404028352916020019161142f565b820191906000526020600020905b81548152906001019060200180831161141257829003601f168201915b505050918352505060078201546020820152600882015460409091019060ff16600581111561146057611460612d85565b600581111561147157611471612d85565b905250608081015160009081526006602090815260408083208151610100810183528154815260018201546001600160a01b0316938101939093526002810154918301919091526003810180549495509293919290916060840191906114d690613002565b80601f016020809104026020016040519081016040528092919081815260200182805461150290613002565b801561154f5780601f106115245761010080835404028352916020019161154f565b820191906000526020600020905b81548152906001019060200180831161153257829003601f168201915b5050505050815260200160048201805461156890613002565b80601f016020809104026020016040519081016040528092919081815260200182805461159490613002565b80156115e15780601f106115b6576101008083540402835291602001916115e1565b820191906000526020600020905b8154815290600101906020018083116115c457829003601f168201915b505050505081526020016005820180546115fa90613002565b80601f016020809104026020016040519081016040528092919081815260200182805461162690613002565b80156116735780601f1061164857610100808354040283529160200191611673565b820191906000526020600020905b81548152906001019060200180831161165657829003601f168201915b50505050508152602001600682015481526020016007820154815250509050336001600160a01b031682602001516001600160a01b0316146116ec5760405162461bcd60e51b81526020600482015260126024820152711b9bdd081e5bdd5c881859dc99595b595b9d60721b6044820152606401610b28565b6002826101000151600581111561170557611705612d85565b1461174c5760405162461bcd60e51b815260206004820152601760248201527661677265656d656e74206973206e6f742061637469766560481b6044820152606401610b28565b60036101008301526040820151825161176591906110b0565b8060400151600b600083602001516001600160a01b03166001600160a01b0316815260200190815260200160002060008282546117a29190613237565b925050819055507f71507ff9e86a05dbd30bfc867d695007f1a3e9ef24debb58ee1cced0f614d3be838360200151846060015184600001518560600151604051610c0e95949392919061326c565b6000818152600a6020908152604091829020805483518184028101840190945280845260609392830182828015610a4d5760200282019190600052602060002090815481526020019060010190808311610a395750505050509050919050565b6118586128d7565b6000828152600660209081526040918290208251610100810184528154815260018201546001600160a01b03169281019290925260028101549282019290925260038201805491929160608401919061082c90613002565b6060806000600d8054905067ffffffffffffffff8111156118d3576118d3612c37565b6040519080825280602002602001820160405280156118fc578160200160208202803683370190505b50600d5490915060009067ffffffffffffffff81111561191e5761191e612c37565b604051908082528060200260200182016040528015611947578160200160208202803683370190505b50905060005b600d54811015611a2d57600d818154811061196a5761196a6132b0565b906000526020600020906008020160010160009054906101000a90046001600160a01b03168282815181106119a1576119a16132b0565b60200260200101906001600160a01b031690816001600160a01b031681525050600b6000600d83815481106119d8576119d86132b0565b60009182526020808320600160089093020191909101546001600160a01b031683528201929092526040019020548351849083908110611a1a57611a1a6132b0565b602090810291909101015260010161194d565b50939092509050565b6001600160a01b038116600090815260086020908152604091829020805483518184028101840190945280845260609392830182828015610a4d5760200282019190600052602060002090815481526020019060010190808311610a395750505050509050919050565b600c8181548110611ab057600080fd5b600091825260209091200154905081565b600082815260208190526040902060010154611adc81612714565b610a7e83836127b0565b60008111611b365760405162461bcd60e51b815260206004820152601d60248201527f616d6f756e74206d7573742062652067726561746572207468616e20300000006044820152606401610b28565b6000600360008154611b47906132c6565b918290555060008481526006602081905260409091206007810154918101549293509111611bb75760405162461bcd60e51b815260206004820152601960248201527f6e6f206f662061677265656d656e7473206578636565646564000000000000006044820152606401610b28565b6002546040516323b872dd60e01b8152336004820152306024820152604481018590526001600160a01b03909116906323b872dd906064016020604051808303816000875af1158015611c0e573d6000803e3d6000fd5b505050506040513d601f19601f82011682018060405250810190611c32919061324a565b506040805161012081018252838152336020808301919091528183018690526001808501546001600160a01b0316606084015260808301889052600060a08401819052845192830190945283825260c08301919091524260e083015261010082019081525090506001826007016000828254611cae91906132df565b925050819055508381604001818151611cc791906132df565b90525060008381526005602081815260409283902084518155908401516001820180546001600160a01b03199081166001600160a01b039384161790915593850151600283015560608501516003830180549095169116179092556080830151600483015560a08301519082015560c08201518291906006820190611d4c908261308c565b5060e0820151600782015561010082015160088201805460ff19166001836005811115611d7b57611d7b612d85565b021790555050600c805460018181019092557fdf6966c971051c3d54ec59162606531493a51404a002842f56009d7e5cf4a8c701859055336000908152600860209081526040808320805480860182559084528284200188905586840180546001600160a01b0390811685526009845282852080548088018255908652848620018a90558b8552600a8452828520805496870181558552838520909501899055600288015490549094168352600b9091528120805492935091611e3f9084906132df565b909155505060018201546040517f8159ca23ddfb64a3383082fa3d8bfe372e5cf4e0235f04b5eb4eec8ac690237f91611e8e91869133916001600160a01b03909116908a9060038901906132f2565b60405180910390a15050505050565b60008511611eed5760405162461bcd60e51b815260206004820152601a60248201527f666565206d7573742062652067726561746572207468616e20300000000000006044820152606401610b28565b6000600360008154611efe906132c6565b918290555060408051610100810182528281523360208083019182528284018b8152606084018b8152608085018b905260a085018a905260c08501899052600060e086018190528781526006909352949091208351815591516001830180546001600160a01b0319166001600160a01b039092169190911790555160028201559151929350918291906003820190611f96908261308c565b5060808201516004820190611fab908261308c565b5060a08201516005820190611fc0908261308c565b5060c0820151600682015560e090910151600790910155600d805460018101825560009190915281517fd7b6990105719101dabeb77144f2a3385c8033acd3af97e9423a695e81ad1eb5600890920291820190815560208301517fd7b6990105719101dabeb77144f2a3385c8033acd3af97e9423a695e81ad1eb6830180546001600160a01b0319166001600160a01b0390921691909117905560408301517fd7b6990105719101dabeb77144f2a3385c8033acd3af97e9423a695e81ad1eb7830155606083015183927fd7b6990105719101dabeb77144f2a3385c8033acd3af97e9423a695e81ad1eb801906120b7908261308c565b50608082015160048201906120cc908261308c565b5060a082015160058201906120e1908261308c565b5060c0820151816006015560e0820151816007015550507f40ebfac2153d289b4b4b35149bc5c041508301d9a9a1f898c625f52ae2041d99823389898960405161212f959493929190613348565b60405180910390a150505050505050565b61214861281b565b6001600160a01b03811661217257604051631e4fbdf760e01b815260006004820152602401610b28565b61217b81612848565b50565b600081815260056020526040902060038101543391906001600160a01b031682146121e05760405162461bcd60e51b81526020600482015260126024820152711c1c9bdd9a59195c881b9bdd08199bdd5b9960721b6044820152606401610b28565b60018101546001600160a01b0385811691161461222f5760405162461bcd60e51b815260206004820152600d60248201526c3737ba103cb7bab9103ab9b2b960991b6044820152606401610b28565b848160020154101561227a5760405162461bcd60e51b8152602060048201526014602482015273696e73756666696369656e742062616c616e636560601b6044820152606401610b28565b8481600201600082825461228e9190613237565b92505081905550848160050160008282546122a991906132df565b909155505060025460405163a9059cbb60e01b8152336004820152602481018790526001600160a01b039091169063a9059cbb906044016020604051808303816000875af11580156122ff573d6000803e3d6000fd5b505050506040513d601f19601f82011682018060405250810190612323919061324a565b50604080518681523360208201527f1acb03df96ba983734adef93014adb71798de3a870000f17f3cc820d966b16139101611e8e565b600081815260056020908152604080832060048101548452600683528184208251610100810184528154815260018201546001600160a01b03169481019490945260028101549284019290925260038201805491949392916060840191906123c090613002565b80601f01602080910402602001604051908101604052809291908181526020018280546123ec90613002565b80156124395780601f1061240e57610100808354040283529160200191612439565b820191906000526020600020905b81548152906001019060200180831161241c57829003601f168201915b5050505050815260200160048201805461245290613002565b80601f016020809104026020016040519081016040528092919081815260200182805461247e90613002565b80156124cb5780601f106124a0576101008083540402835291602001916124cb565b820191906000526020600020905b8154815290600101906020018083116124ae57829003601f168201915b505050505081526020016005820180546124e490613002565b80601f016020809104026020016040519081016040528092919081815260200182805461251090613002565b801561255d5780601f106125325761010080835404028352916020019161255d565b820191906000526020600020905b81548152906001019060200180831161254057829003601f168201915b50505091835250506006820154602082015260079091015460409091015260038301549091506001600160a01b031633146125ef5760405162461bcd60e51b815260206004820152602c60248201527f6e6f7420796f75722061677265656d656e742c20796f7520617265206e6f742060448201526b3a343290383937bb34b232b960a11b6064820152608401610b28565b6002600883015460ff16600581111561260a5761260a612d85565b146126515760405162461bcd60e51b815260206004820152601760248201527661677265656d656e74206973206e6f742061637469766560481b6044820152606401610b28565b60088201805460ff1916600317905560028201546001830154835461268092916001600160a01b03169061217e565b8060400151600b600083602001516001600160a01b03166001600160a01b0316815260200190815260200160002060008282546126bd9190613237565b909155505060018201546003830154825160608401516040517f71507ff9e86a05dbd30bfc867d695007f1a3e9ef24debb58ee1cced0f614d3be94610c0e9489946001600160a01b0392831694919092169261326c565b61217b813361289a565b600061272a8383611317565b6127a8576000838152602081815260408083206001600160a01b03861684529091529020805460ff191660011790556127603390565b6001600160a01b0316826001600160a01b0316847f2f8788117e7eff1d82e926ec794901d17c78024a50270940304540a733656f0d60405160405180910390a45060016105ae565b5060006105ae565b60006127bc8383611317565b156127a8576000838152602081815260408083206001600160a01b0386168085529252808320805460ff1916905551339286917ff6391f5c32d9c69d2a47ea670b442974b53935d1edc7fd64eb21e047a839171b9190a45060016105ae565b6001546001600160a01b031633146112305760405163118cdaa760e01b8152336004820152602401610b28565b600180546001600160a01b038381166001600160a01b0319831681179093556040519116919082907f8be0079c531659141344cd1fd0a4f28419497f9722a3daafe3b4186f6b6457e090600090a35050565b6128a48282611317565b6128d35760405163e2517d3f60e01b81526001600160a01b038216600482015260248101839052604401610b28565b5050565b6040518061010001604052806000815260200160006001600160a01b031681526020016000815260200160608152602001606081526020016060815260200160008152602001600081525090565b6040518061012001604052806000815260200160006001600160a01b031681526020016000815260200160006001600160a01b03168152602001600081526020016000815260200160608152602001600081526020016000600581111561298e5761298e612d85565b905290565b80356001600160a01b03811681146129aa57600080fd5b919050565b6000602082840312156129c157600080fd5b6129ca82612993565b9392505050565b6000602082840312156129e357600080fd5b81356001600160e01b0319811681146129ca57600080fd5b6000815180845260005b81811015612a2157602081850181015186830182015201612a05565b506000602082860101526020601f19601f83011685010191505092915050565b8881526001600160a01b03881660208201526040810187905261010060608201819052600090612a73838201896129fb565b90508281036080840152612a8781886129fb565b905082810360a0840152612a9b81876129fb565b60c0840195909552505060e001529695505050505050565b60008060408385031215612ac657600080fd5b50508035926020909101359150565b60006101008251845260018060a01b036020840151166020850152604083015160408501526060830151816060860152612b11828601826129fb565b91505060808301518482036080860152612b2b82826129fb565b91505060a083015184820360a0860152612b4582826129fb565b91505060c083015160c085015260e083015160e08501528091505092915050565b6020815260006129ca6020830184612ad5565b60008151808452602080850194506020840160005b83811015612baa57815187529582019590820190600101612b8e565b509495945050505050565b6020815260006129ca6020830184612b79565b600060208284031215612bda57600080fd5b5035919050565b60008060408385031215612bf457600080fd5b82359150612c0460208401612993565b90509250929050565b60008060408385031215612c2057600080fd5b612c2983612993565b946020939093013593505050565b634e487b7160e01b600052604160045260246000fd5b600082601f830112612c5e57600080fd5b813567ffffffffffffffff80821115612c7957612c79612c37565b604051601f8301601f19908116603f01168101908282118183101715612ca157612ca1612c37565b81604052838152866020858801011115612cba57600080fd5b836020870160208301376000602085830101528094505050505092915050565b60008060408385031215612ced57600080fd5b82359150602083013567ffffffffffffffff811115612d0b57600080fd5b612d1785828601612c4d565b9150509250929050565b600060208083016020845280855180835260408601915060408160051b87010192506020870160005b82811015612d7857603f19888603018452612d66858351612ad5565b94509285019290850190600101612d4a565b5092979650505050505050565b634e487b7160e01b600052602160045260246000fd5b60068110612db957634e487b7160e01b600052602160045260246000fd5b9052565b602081528151602082015260006020830151612de460408401826001600160a01b03169052565b50604083015160608301526060830151612e0960808401826001600160a01b03169052565b50608083015160a083015260a083015160c083015260c08301516101208060e0850152612e3a6101408501836129fb565b60e086015161010086810191909152860151909250612e5b82860182612d9b565b5090949350505050565b8981526001600160a01b03898116602083015260408201899052871660608201526080810186905260a0810185905261012060c08201819052600090612ead838201876129fb565b9150508360e0830152612ec4610100830184612d9b565b9a9950505050505050505050565b604080825283519082018190526000906020906060840190828701845b82811015612f145781516001600160a01b031684529284019290840190600101612eef565b5050508381036020850152612f298186612b79565b9695505050505050565b600080600080600060a08688031215612f4b57600080fd5b85359450602086013567ffffffffffffffff80821115612f6a57600080fd5b612f7689838a01612c4d565b95506040880135915080821115612f8c57600080fd5b612f9889838a01612c4d565b94506060880135915080821115612fae57600080fd5b50612fbb88828901612c4d565b95989497509295608001359392505050565b600080600060608486031215612fe257600080fd5b83359250612ff260208501612993565b9150604084013590509250925092565b600181811c9082168061301657607f821691505b60208210810361303657634e487b7160e01b600052602260045260246000fd5b50919050565b601f821115610ad3576000816000526020600020601f850160051c810160208610156130655750805b601f850160051c820191505b8181101561308457828155600101613071565b505050505050565b815167ffffffffffffffff8111156130a6576130a6612c37565b6130ba816130b48454613002565b8461303c565b602080601f8311600181146130ef57600084156130d75750858301515b600019600386901b1c1916600185901b178555613084565b600085815260208120601f198616915b8281101561311e578886015182559484019460019091019084016130ff565b508582101561313c5787850151600019600388901b60f8161c191681555b5050505050600190811b01905550565b6000815461315981613002565b8085526020600183811680156131765760018114613190576131be565b60ff1985168884015283151560051b8801830195506131be565b866000528260002060005b858110156131b65781548a820186015290830190840161319b565b890184019650505b505050505092915050565b8681526001600160a01b038681166020830152851660408201526060810184905260c0608082018190526000906132029083018561314c565b82810360a084015261321481856129fb565b9998505050505050505050565b634e487b7160e01b600052601160045260246000fd5b818103818111156105ae576105ae613221565b60006020828403121561325c57600080fd5b815180151581146129ca57600080fd5b8581526001600160a01b038581166020830152841660408201526060810183905260a0608082018190526000906132a5908301846129fb565b979650505050505050565b634e487b7160e01b600052603260045260246000fd5b6000600182016132d8576132d8613221565b5060010190565b808201808211156105ae576105ae613221565b8581526001600160a01b038581166020830152841660408201526060810183905260c06080820181905260009061332b9083018461314c565b82810360a084015260008152602081019150509695505050505050565b85815260018060a01b038516602082015283604082015260a06060820152600061337560a08301856129fb565b828103608084015261338781856129fb565b9897505050505050505056fea26469706673582212204a1cb42eb2353af585756aab2e2ad89f8eb42a9ed577768648cda8a5f814621764736f6c63430008160033",
  "devdoc": {
    "errors": {
      "AccessControlBadConfirmation()": [
        {
          "details": "The caller of a function is not the expected one. NOTE: Don't confuse with {AccessControlUnauthorizedAccount}."
        }
      ],
      "AccessControlUnauthorizedAccount(address,bytes32)": [
        {
          "details": "The `account` is missing a role."
        }
      ],
      "OwnableInvalidOwner(address)": [
        {
          "details": "The owner is not a valid owner account. (eg. `address(0)`)"
        }
      ],
      "OwnableUnauthorizedAccount(address)": [
        {
          "details": "The caller account is not authorized to perform an operation."
        }
      ]
    },
    "events": {
      "RoleAdminChanged(bytes32,bytes32,bytes32)": {
        "details": "Emitted when `newAdminRole` is set as ``role``'s admin role, replacing `previousAdminRole` `DEFAULT_ADMIN_ROLE` is the starting admin for all roles, despite {RoleAdminChanged} not being emitted signaling this."
      },
      "RoleGranted(bytes32,address,address)": {
        "details": "Emitted when `account` is granted `role`. `sender` is the account that originated the contract call, an admin role bearer except when using {AccessControl-_setupRole}."
      },
      "RoleRevoked(bytes32,address,address)": {
        "details": "Emitted when `account` is revoked `role`. `sender` is the account that originated the contract call:   - if using `revokeRole`, it is the admin role bearer   - if using `renounceRole`, it is the role bearer (i.e. `account`)"
      }
    },
    "kind": "dev",
    "methods": {
      "getRoleAdmin(bytes32)": {
        "details": "Returns the admin role that controls `role`. See {grantRole} and {revokeRole}. To change a role's admin, use {_setRoleAdmin}."
      },
      "grantRole(bytes32,address)": {
        "details": "Grants `role` to `account`. If `account` had not been already granted `role`, emits a {RoleGranted} event. Requirements: - the caller must have ``role``'s admin role. May emit a {RoleGranted} event."
      },
      "hasRole(bytes32,address)": {
        "details": "Returns `true` if `account` has been granted `role`."
      },
      "owner()": {
        "details": "Returns the address of the current owner."
      },
      "renounceOwnership()": {
        "details": "Leaves the contract without owner. It will not be possible to call `onlyOwner` functions. Can only be called by the current owner. NOTE: Renouncing ownership will leave the contract without an owner, thereby disabling any functionality that is only available to the owner."
      },
      "renounceRole(bytes32,address)": {
        "details": "Revokes `role` from the calling account. Roles are often managed via {grantRole} and {revokeRole}: this function's purpose is to provide a mechanism for accounts to lose their privileges if they are compromised (such as when a trusted device is misplaced). If the calling account had been revoked `role`, emits a {RoleRevoked} event. Requirements: - the caller must be `callerConfirmation`. May emit a {RoleRevoked} event."
      },
      "revokeRole(bytes32,address)": {
        "details": "Revokes `role` from `account`. If `account` had been granted `role`, emits a {RoleRevoked} event. Requirements: - the caller must have ``role``'s admin role. May emit a {RoleRevoked} event."
      },
      "supportsInterface(bytes4)": {
        "details": "See {IERC165-supportsInterface}."
      },
      "transferOwnership(address)": {
        "details": "Transfers ownership of the contract to a new account (`newOwner`). Can only be called by the current owner."
      }
    },
    "version": 1
  },
  "userdoc": {
    "kind": "user",
    "methods": {},
    "version": 1
  },
  "storageLayout": {
    "storage": [
      {
        "astId": 26,
        "contract": "contracts/DDMeshMarket.sol:DDMeshMarket",
        "label": "_roles",
        "offset": 0,
        "slot": "0",
        "type": "t_mapping(t_bytes32,t_struct(RoleData)21_storage)"
      },
      {
        "astId": 387,
        "contract": "contracts/DDMeshMarket.sol:DDMeshMarket",
        "label": "_owner",
        "offset": 0,
        "slot": "1",
        "type": "t_address"
      },
      {
        "astId": 751,
        "contract": "contracts/DDMeshMarket.sol:DDMeshMarket",
        "label": "token",
        "offset": 0,
        "slot": "2",
        "type": "t_contract(IToken)1595"
      },
      {
        "astId": 797,
        "contract": "contracts/DDMeshMarket.sol:DDMeshMarket",
        "label": "agreementIdTotalCount",
        "offset": 0,
        "slot": "3",
        "type": "t_uint256"
      },
      {
        "astId": 799,
        "contract": "contracts/DDMeshMarket.sol:DDMeshMarket",
        "label": "providerIdTotalCount",
        "offset": 0,
        "slot": "4",
        "type": "t_uint256"
      },
      {
        "astId": 804,
        "contract": "contracts/DDMeshMarket.sol:DDMeshMarket",
        "label": "agreementIdToAgreement",
        "offset": 0,
        "slot": "5",
        "type": "t_mapping(t_uint256,t_struct(Agreement)778_storage)"
      },
      {
        "astId": 809,
        "contract": "contracts/DDMeshMarket.sol:DDMeshMarket",
        "label": "providerIdToProvider",
        "offset": 0,
        "slot": "6",
        "type": "t_mapping(t_uint256,t_struct(Provider)795_storage)"
      },
      {
        "astId": 814,
        "contract": "contracts/DDMeshMarket.sol:DDMeshMarket",
        "label": "addressToProvider",
        "offset": 0,
        "slot": "7",
        "type": "t_mapping(t_address,t_struct(Provider)795_storage)"
      },
      {
        "astId": 819,
        "contract": "contracts/DDMeshMarket.sol:DDMeshMarket",
        "label": "userAgreements",
        "offset": 0,
        "slot": "8",
        "type": "t_mapping(t_address,t_array(t_uint256)dyn_storage)"
      },
      {
        "astId": 824,
        "contract": "contracts/DDMeshMarket.sol:DDMeshMarket",
        "label": "providerAgreements",
        "offset": 0,
        "slot": "9",
        "type": "t_mapping(t_address,t_array(t_uint256)dyn_storage)"
      },
      {
        "astId": 829,
        "contract": "contracts/DDMeshMarket.sol:DDMeshMarket",
        "label": "providerIdToAgreements",
        "offset": 0,
        "slot": "10",
        "type": "t_mapping(t_uint256,t_array(t_uint256)dyn_storage)"
      },
      {
        "astId": 833,
        "contract": "contracts/DDMeshMarket.sol:DDMeshMarket",
        "label": "providerToTVLAcrossAllAgreements",
        "offset": 0,
        "slot": "11",
        "type": "t_mapping(t_address,t_uint256)"
      },
      {
        "astId": 836,
        "contract": "contracts/DDMeshMarket.sol:DDMeshMarket",
        "label": "agreements",
        "offset": 0,
        "slot": "12",
        "type": "t_array(t_uint256)dyn_storage"
      },
      {
        "astId": 840,
        "contract": "contracts/DDMeshMarket.sol:DDMeshMarket",
        "label": "providers",
        "offset": 0,
        "slot": "13",
        "type": "t_array(t_struct(Provider)795_storage)dyn_storage"
      }
    ],
    "types": {
      "t_address": {
        "encoding": "inplace",
        "label": "address",
        "numberOfBytes": "20"
      },
      "t_array(t_struct(Provider)795_storage)dyn_storage": {
        "base": "t_struct(Provider)795_storage",
        "encoding": "dynamic_array",
        "label": "struct DDMeshMarket.Provider[]",
        "numberOfBytes": "32"
      },
      "t_array(t_uint256)dyn_storage": {
        "base": "t_uint256",
        "encoding": "dynamic_array",
        "label": "uint256[]",
        "numberOfBytes": "32"
      },
      "t_bool": {
        "encoding": "inplace",
        "label": "bool",
        "numberOfBytes": "1"
      },
      "t_bytes32": {
        "encoding": "inplace",
        "label": "bytes32",
        "numberOfBytes": "32"
      },
      "t_contract(IToken)1595": {
        "encoding": "inplace",
        "label": "contract IToken",
        "numberOfBytes": "20"
      },
      "t_enum(AgreementStatus)758": {
        "encoding": "inplace",
        "label": "enum DDMeshMarket.AgreementStatus",
        "numberOfBytes": "1"
      },
      "t_mapping(t_address,t_array(t_uint256)dyn_storage)": {
        "encoding": "mapping",
        "key": "t_address",
        "label": "mapping(address => uint256[])",
        "numberOfBytes": "32",
        "value": "t_array(t_uint256)dyn_storage"
      },
      "t_mapping(t_address,t_bool)": {
        "encoding": "mapping",
        "key": "t_address",
        "label": "mapping(address => bool)",
        "numberOfBytes": "32",
        "value": "t_bool"
      },
      "t_mapping(t_address,t_struct(Provider)795_storage)": {
        "encoding": "mapping",
        "key": "t_address",
        "label": "mapping(address => struct DDMeshMarket.Provider)",
        "numberOfBytes": "32",
        "value": "t_struct(Provider)795_storage"
      },
      "t_mapping(t_address,t_uint256)": {
        "encoding": "mapping",
        "key": "t_address",
        "label": "mapping(address => uint256)",
        "numberOfBytes": "32",
        "value": "t_uint256"
      },
      "t_mapping(t_bytes32,t_struct(RoleData)21_storage)": {
        "encoding": "mapping",
        "key": "t_bytes32",
        "label": "mapping(bytes32 => struct AccessControl.RoleData)",
        "numberOfBytes": "32",
        "value": "t_struct(RoleData)21_storage"
      },
      "t_mapping(t_uint256,t_array(t_uint256)dyn_storage)": {
        "encoding": "mapping",
        "key": "t_uint256",
        "label": "mapping(uint256 => uint256[])",
        "numberOfBytes": "32",
        "value": "t_array(t_uint256)dyn_storage"
      },
      "t_mapping(t_uint256,t_struct(Agreement)778_storage)": {
        "encoding": "mapping",
        "key": "t_uint256",
        "label": "mapping(uint256 => struct DDMeshMarket.Agreement)",
        "numberOfBytes": "32",
        "value": "t_struct(Agreement)778_storage"
      },
      "t_mapping(t_uint256,t_struct(Provider)795_storage)": {
        "encoding": "mapping",
        "key": "t_uint256",
        "label": "mapping(uint256 => struct DDMeshMarket.Provider)",
        "numberOfBytes": "32",
        "value": "t_struct(Provider)795_storage"
      },
      "t_string_storage": {
        "encoding": "bytes",
        "label": "string",
        "numberOfBytes": "32"
      },
      "t_struct(Agreement)778_storage": {
        "encoding": "inplace",
        "label": "struct DDMeshMarket.Agreement",
        "members": [
          {
            "astId": 760,
            "contract": "contracts/DDMeshMarket.sol:DDMeshMarket",
            "label": "id",
            "offset": 0,
            "slot": "0",
            "type": "t_uint256"
          },
          {
            "astId": 762,
            "contract": "contracts/DDMeshMarket.sol:DDMeshMarket",
            "label": "user",
            "offset": 0,
            "slot": "1",
            "type": "t_address"
          },
          {
            "astId": 764,
            "contract": "contracts/DDMeshMarket.sol:DDMeshMarket",
            "label": "userBalance",
            "offset": 0,
            "slot": "2",
            "type": "t_uint256"
          },
          {
            "astId": 766,
            "contract": "contracts/DDMeshMarket.sol:DDMeshMarket",
            "label": "providerAddress",
            "offset": 0,
            "slot": "3",
            "type": "t_address"
          },
          {
            "astId": 768,
            "contract": "contracts/DDMeshMarket.sol:DDMeshMarket",
            "label": "providerId",
            "offset": 0,
            "slot": "4",
            "type": "t_uint256"
          },
          {
            "astId": 770,
            "contract": "contracts/DDMeshMarket.sol:DDMeshMarket",
            "label": "providerClaimed",
            "offset": 0,
            "slot": "5",
            "type": "t_uint256"
          },
          {
            "astId": 772,
            "contract": "contracts/DDMeshMarket.sol:DDMeshMarket",
            "label": "encConnectionString",
            "offset": 0,
            "slot": "6",
            "type": "t_string_storage"
          },
          {
            "astId": 774,
            "contract": "contracts/DDMeshMarket.sol:DDMeshMarket",
            "label": "startTimeStamp",
            "offset": 0,
            "slot": "7",
            "type": "t_uint256"
          },
          {
            "astId": 777,
            "contract": "contracts/DDMeshMarket.sol:DDMeshMarket",
            "label": "status",
            "offset": 0,
            "slot": "8",
            "type": "t_enum(AgreementStatus)758"
          }
        ],
        "numberOfBytes": "288"
      },
      "t_struct(Provider)795_storage": {
        "encoding": "inplace",
        "label": "struct DDMeshMarket.Provider",
        "members": [
          {
            "astId": 780,
            "contract": "contracts/DDMeshMarket.sol:DDMeshMarket",
            "label": "id",
            "offset": 0,
            "slot": "0",
            "type": "t_uint256"
          },
          {
            "astId": 782,
            "contract": "contracts/DDMeshMarket.sol:DDMeshMarket",
            "label": "pAddress",
            "offset": 0,
            "slot": "1",
            "type": "t_address"
          },
          {
            "astId": 784,
            "contract": "contracts/DDMeshMarket.sol:DDMeshMarket",
            "label": "fee",
            "offset": 0,
            "slot": "2",
            "type": "t_uint256"
          },
          {
            "astId": 786,
            "contract": "contracts/DDMeshMarket.sol:DDMeshMarket",
            "label": "encApiKey",
            "offset": 0,
            "slot": "3",
            "type": "t_string_storage"
          },
          {
            "astId": 788,
            "contract": "contracts/DDMeshMarket.sol:DDMeshMarket",
            "label": "ensName",
            "offset": 0,
            "slot": "4",
            "type": "t_string_storage"
          },
          {
            "astId": 790,
            "contract": "contracts/DDMeshMarket.sol:DDMeshMarket",
            "label": "description",
            "offset": 0,
            "slot": "5",
            "type": "t_string_storage"
          },
          {
            "astId": 792,
            "contract": "contracts/DDMeshMarket.sol:DDMeshMarket",
            "label": "noOfDbAgreements",
            "offset": 0,
            "slot": "6",
            "type": "t_uint256"
          },
          {
            "astId": 794,
            "contract": "contracts/DDMeshMarket.sol:DDMeshMarket",
            "label": "activeAgreements",
            "offset": 0,
            "slot": "7",
            "type": "t_uint256"
          }
        ],
        "numberOfBytes": "256"
      },
      "t_struct(RoleData)21_storage": {
        "encoding": "inplace",
        "label": "struct AccessControl.RoleData",
        "members": [
          {
            "astId": 18,
            "contract": "contracts/DDMeshMarket.sol:DDMeshMarket",
            "label": "hasRole",
            "offset": 0,
            "slot": "0",
            "type": "t_mapping(t_address,t_bool)"
          },
          {
            "astId": 20,
            "contract": "contracts/DDMeshMarket.sol:DDMeshMarket",
            "label": "adminRole",
            "offset": 0,
            "slot": "1",
            "type": "t_bytes32"
          }
        ],
        "numberOfBytes": "64"
      },
      "t_uint256": {
        "encoding": "inplace",
        "label": "uint256",
        "numberOfBytes": "32"
      }
    }
  }
}