{
  "address": "0xb7242BA36046AD9022AbbcBA4247deD9184a34c0",
  "abi": [
    {
      "inputs": [
        {
          "internalType": "address",
          "name": "_tokenAddress",
          "type": "address"
        }
      ],
      "stateMutability": "nonpayable",
      "type": "constructor"
    },
    {
      "inputs": [],
      "name": "AccessControlBadConfirmation",
      "type": "error"
    },
    {
      "inputs": [
        {
          "internalType": "address",
          "name": "account",
          "type": "address"
        },
        {
          "internalType": "bytes32",
          "name": "neededRole",
          "type": "bytes32"
        }
      ],
      "name": "AccessControlUnauthorizedAccount",
      "type": "error"
    },
    {
      "inputs": [
        {
          "internalType": "address",
          "name": "owner",
          "type": "address"
        }
      ],
      "name": "OwnableInvalidOwner",
      "type": "error"
    },
    {
      "inputs": [
        {
          "internalType": "address",
          "name": "account",
          "type": "address"
        }
      ],
      "name": "OwnableUnauthorizedAccount",
      "type": "error"
    },
    {
      "anonymous": false,
      "inputs": [
        {
          "indexed": false,
          "internalType": "uint256",
          "name": "agreementId",
          "type": "uint256"
        },
        {
          "indexed": false,
          "internalType": "address",
          "name": "userAddress",
          "type": "address"
        },
        {
          "indexed": false,
          "internalType": "address",
          "name": "providerAddress",
          "type": "address"
        },
        {
          "indexed": false,
          "internalType": "uint256",
          "name": "providerId",
          "type": "uint256"
        },
        {
          "indexed": false,
          "internalType": "string",
          "name": "encApiKey",
          "type": "string"
        },
        {
          "indexed": false,
          "internalType": "string",
          "name": "encConnectionString",
          "type": "string"
        }
      ],
      "name": "AgreementActivated",
      "type": "event"
    },
    {
      "anonymous": false,
      "inputs": [
        {
          "indexed": false,
          "internalType": "uint256",
          "name": "agreementId",
          "type": "uint256"
        },
        {
          "indexed": false,
          "internalType": "address",
          "name": "userAddress",
          "type": "address"
        },
        {
          "indexed": false,
          "internalType": "address",
          "name": "providerAddress",
          "type": "address"
        },
        {
          "indexed": false,
          "internalType": "uint256",
          "name": "providerId",
          "type": "uint256"
        },
        {
          "indexed": false,
          "internalType": "string",
          "name": "encApiKey",
          "type": "string"
        },
        {
          "indexed": false,
          "internalType": "string",
          "name": "encConnectionString",
          "type": "string"
        }
      ],
      "name": "AgreementClosed",
      "type": "event"
    },
    {
      "anonymous": false,
      "inputs": [
        {
          "indexed": false,
          "internalType": "uint256",
          "name": "agreementId",
          "type": "uint256"
        },
        {
          "indexed": false,
          "internalType": "address",
          "name": "userAddress",
          "type": "address"
        },
        {
          "indexed": false,
          "internalType": "address",
          "name": "providerAddress",
          "type": "address"
        },
        {
          "indexed": false,
          "internalType": "uint256",
          "name": "providerId",
          "type": "uint256"
        },
        {
          "indexed": false,
          "internalType": "string",
          "name": "encApiKey",
          "type": "string"
        },
        {
          "indexed": false,
          "internalType": "string",
          "name": "encConnectionString",
          "type": "string"
        }
      ],
      "name": "AgreementCreated",
      "type": "event"
    },
    {
      "anonymous": false,
      "inputs": [
        {
          "indexed": true,
          "internalType": "address",
          "name": "previousOwner",
          "type": "address"
        },
        {
          "indexed": true,
          "internalType": "address",
          "name": "newOwner",
          "type": "address"
        }
      ],
      "name": "OwnershipTransferred",
      "type": "event"
    },
    {
      "anonymous": false,
      "inputs": [
        {
          "indexed": false,
          "internalType": "uint256",
          "name": "id",
          "type": "uint256"
        },
        {
          "indexed": false,
          "internalType": "address",
          "name": "provider",
          "type": "address"
        },
        {
          "indexed": false,
          "internalType": "uint256",
          "name": "fee",
          "type": "uint256"
        },
        {
          "indexed": false,
          "internalType": "string",
          "name": "encApiKey",
          "type": "string"
        },
        {
          "indexed": false,
          "internalType": "string",
          "name": "ensName",
          "type": "string"
        }
      ],
      "name": "ProviderRegistered",
      "type": "event"
    },
    {
      "anonymous": false,
      "inputs": [
        {
          "indexed": true,
          "internalType": "bytes32",
          "name": "role",
          "type": "bytes32"
        },
        {
          "indexed": true,
          "internalType": "bytes32",
          "name": "previousAdminRole",
          "type": "bytes32"
        },
        {
          "indexed": true,
          "internalType": "bytes32",
          "name": "newAdminRole",
          "type": "bytes32"
        }
      ],
      "name": "RoleAdminChanged",
      "type": "event"
    },
    {
      "anonymous": false,
      "inputs": [
        {
          "indexed": true,
          "internalType": "bytes32",
          "name": "role",
          "type": "bytes32"
        },
        {
          "indexed": true,
          "internalType": "address",
          "name": "account",
          "type": "address"
        },
        {
          "indexed": true,
          "internalType": "address",
          "name": "sender",
          "type": "address"
        }
      ],
      "name": "RoleGranted",
      "type": "event"
    },
    {
      "anonymous": false,
      "inputs": [
        {
          "indexed": true,
          "internalType": "bytes32",
          "name": "role",
          "type": "bytes32"
        },
        {
          "indexed": true,
          "internalType": "address",
          "name": "account",
          "type": "address"
        },
        {
          "indexed": true,
          "internalType": "address",
          "name": "sender",
          "type": "address"
        }
      ],
      "name": "RoleRevoked",
      "type": "event"
    },
    {
      "anonymous": false,
      "inputs": [
        {
          "indexed": false,
          "internalType": "uint256",
          "name": "agreementId",
          "type": "uint256"
        },
        {
          "indexed": false,
          "internalType": "uint256",
          "name": "amount",
          "type": "uint256"
        },
        {
          "indexed": false,
          "internalType": "address",
          "name": "provider",
          "type": "address"
        }
      ],
      "name": "WithdrawReward",
      "type": "event"
    },
    {
      "anonymous": false,
      "inputs": [
        {
          "indexed": false,
          "internalType": "uint256",
          "name": "agreementId",
          "type": "uint256"
        },
        {
          "indexed": false,
          "internalType": "uint256",
          "name": "amount",
          "type": "uint256"
        },
        {
          "indexed": false,
          "internalType": "address",
          "name": "user",
          "type": "address"
        }
      ],
      "name": "WithdrawUserBalance",
      "type": "event"
    },
    {
      "inputs": [],
      "name": "DEFAULT_ADMIN_ROLE",
      "outputs": [
        {
          "internalType": "bytes32",
          "name": "",
          "type": "bytes32"
        }
      ],
      "stateMutability": "view",
      "type": "function"
    },
    {
      "inputs": [
        {
          "internalType": "address",
          "name": "",
          "type": "address"
        }
      ],
      "name": "addressToProvider",
      "outputs": [
        {
          "internalType": "uint256",
          "name": "id",
          "type": "uint256"
        },
        {
          "internalType": "address",
          "name": "pAddress",
          "type": "address"
        },
        {
          "internalType": "uint256",
          "name": "fee",
          "type": "uint256"
        },
        {
          "internalType": "string",
          "name": "encApiKey",
          "type": "string"
        },
        {
          "internalType": "string",
          "name": "ensName",
          "type": "string"
        },
        {
          "internalType": "string",
          "name": "description",
          "type": "string"
        },
        {
          "internalType": "uint256",
          "name": "noOfDbAgreements",
          "type": "uint256"
        },
        {
          "internalType": "uint256",
          "name": "activeAgreements",
          "type": "uint256"
        }
      ],
      "stateMutability": "view",
      "type": "function"
    },
    {
      "inputs": [
        {
          "internalType": "uint256",
          "name": "",
          "type": "uint256"
        }
      ],
      "name": "agreementIdToAgreement",
      "outputs": [
        {
          "internalType": "uint256",
          "name": "id",
          "type": "uint256"
        },
        {
          "internalType": "address",
          "name": "user",
          "type": "address"
        },
        {
          "internalType": "uint256",
          "name": "userBalance",
          "type": "uint256"
        },
        {
          "internalType": "address",
          "name": "providerAddress",
          "type": "address"
        },
        {
          "internalType": "uint256",
          "name": "providerId",
          "type": "uint256"
        },
        {
          "internalType": "uint256",
          "name": "providerClaimed",
          "type": "uint256"
        },
        {
          "internalType": "string",
          "name": "encConnectionString",
          "type": "string"
        },
        {
          "internalType": "uint256",
          "name": "startTimeStamp",
          "type": "uint256"
        },
        {
          "internalType": "uint256",
          "name": "providerRewardsWithdrawLastTimeStamp",
          "type": "uint256"
        },
        {
          "internalType": "enum DDMeshMarket.AgreementStatus",
          "name": "status",
          "type": "uint8"
        }
      ],
      "stateMutability": "view",
      "type": "function"
    },
    {
      "inputs": [],
      "name": "agreementIdTotalCount",
      "outputs": [
        {
          "internalType": "uint256",
          "name": "",
          "type": "uint256"
        }
      ],
      "stateMutability": "view",
      "type": "function"
    },
    {
      "inputs": [
        {
          "internalType": "uint256",
          "name": "",
          "type": "uint256"
        }
      ],
      "name": "agreements",
      "outputs": [
        {
          "internalType": "uint256",
          "name": "",
          "type": "uint256"
        }
      ],
      "stateMutability": "view",
      "type": "function"
    },
    {
      "inputs": [
        {
          "internalType": "uint256",
          "name": "_agreementId",
          "type": "uint256"
        }
      ],
      "name": "closeAgreementByProvider",
      "outputs": [],
      "stateMutability": "nonpayable",
      "type": "function"
    },
    {
      "inputs": [
        {
          "internalType": "uint256",
          "name": "_agreementId",
          "type": "uint256"
        }
      ],
      "name": "closeAgreementByUser",
      "outputs": [],
      "stateMutability": "nonpayable",
      "type": "function"
    },
    {
      "inputs": [
        {
          "internalType": "uint256",
          "name": "_providerId",
          "type": "uint256"
        },
        {
          "internalType": "uint256",
          "name": "_amount",
          "type": "uint256"
        }
      ],
      "name": "enterAgreement",
      "outputs": [],
      "stateMutability": "nonpayable",
      "type": "function"
    },
    {
      "inputs": [
        {
          "internalType": "uint256",
          "name": "_agreementId",
          "type": "uint256"
        }
      ],
      "name": "getAgreement",
      "outputs": [
        {
          "components": [
            {
              "internalType": "uint256",
              "name": "id",
              "type": "uint256"
            },
            {
              "internalType": "address",
              "name": "user",
              "type": "address"
            },
            {
              "internalType": "uint256",
              "name": "userBalance",
              "type": "uint256"
            },
            {
              "internalType": "address",
              "name": "providerAddress",
              "type": "address"
            },
            {
              "internalType": "uint256",
              "name": "providerId",
              "type": "uint256"
            },
            {
              "internalType": "uint256",
              "name": "providerClaimed",
              "type": "uint256"
            },
            {
              "internalType": "string",
              "name": "encConnectionString",
              "type": "string"
            },
            {
              "internalType": "uint256",
              "name": "startTimeStamp",
              "type": "uint256"
            },
            {
              "internalType": "uint256",
              "name": "providerRewardsWithdrawLastTimeStamp",
              "type": "uint256"
            },
            {
              "internalType": "enum DDMeshMarket.AgreementStatus",
              "name": "status",
              "type": "uint8"
            }
          ],
          "internalType": "struct DDMeshMarket.Agreement",
          "name": "",
          "type": "tuple"
        }
      ],
      "stateMutability": "view",
      "type": "function"
    },
    {
      "inputs": [],
      "name": "getAllAgreements",
      "outputs": [
        {
          "internalType": "uint256[]",
          "name": "",
          "type": "uint256[]"
        }
      ],
      "stateMutability": "view",
      "type": "function"
    },
    {
      "inputs": [],
      "name": "getAllProviders",
      "outputs": [
        {
          "components": [
            {
              "internalType": "uint256",
              "name": "id",
              "type": "uint256"
            },
            {
              "internalType": "address",
              "name": "pAddress",
              "type": "address"
            },
            {
              "internalType": "uint256",
              "name": "fee",
              "type": "uint256"
            },
            {
              "internalType": "string",
              "name": "encApiKey",
              "type": "string"
            },
            {
              "internalType": "string",
              "name": "ensName",
              "type": "string"
            },
            {
              "internalType": "string",
              "name": "description",
              "type": "string"
            },
            {
              "internalType": "uint256",
              "name": "noOfDbAgreements",
              "type": "uint256"
            },
            {
              "internalType": "uint256",
              "name": "activeAgreements",
              "type": "uint256"
            }
          ],
          "internalType": "struct DDMeshMarket.Provider[]",
          "name": "",
          "type": "tuple[]"
        }
      ],
      "stateMutability": "view",
      "type": "function"
    },
    {
      "inputs": [
        {
          "internalType": "address",
          "name": "_providerAddress",
          "type": "address"
        }
      ],
      "name": "getProviderAgreements",
      "outputs": [
        {
          "internalType": "uint256[]",
          "name": "",
          "type": "uint256[]"
        }
      ],
      "stateMutability": "view",
      "type": "function"
    },
    {
      "inputs": [
        {
          "internalType": "address",
          "name": "_providerAddress",
          "type": "address"
        }
      ],
      "name": "getProviderByAddress",
      "outputs": [
        {
          "components": [
            {
              "internalType": "uint256",
              "name": "id",
              "type": "uint256"
            },
            {
              "internalType": "address",
              "name": "pAddress",
              "type": "address"
            },
            {
              "internalType": "uint256",
              "name": "fee",
              "type": "uint256"
            },
            {
              "internalType": "string",
              "name": "encApiKey",
              "type": "string"
            },
            {
              "internalType": "string",
              "name": "ensName",
              "type": "string"
            },
            {
              "internalType": "string",
              "name": "description",
              "type": "string"
            },
            {
              "internalType": "uint256",
              "name": "noOfDbAgreements",
              "type": "uint256"
            },
            {
              "internalType": "uint256",
              "name": "activeAgreements",
              "type": "uint256"
            }
          ],
          "internalType": "struct DDMeshMarket.Provider",
          "name": "",
          "type": "tuple"
        }
      ],
      "stateMutability": "view",
      "type": "function"
    },
    {
      "inputs": [
        {
          "internalType": "uint256",
          "name": "_providerId",
          "type": "uint256"
        }
      ],
      "name": "getProviderByProviderId",
      "outputs": [
        {
          "components": [
            {
              "internalType": "uint256",
              "name": "id",
              "type": "uint256"
            },
            {
              "internalType": "address",
              "name": "pAddress",
              "type": "address"
            },
            {
              "internalType": "uint256",
              "name": "fee",
              "type": "uint256"
            },
            {
              "internalType": "string",
              "name": "encApiKey",
              "type": "string"
            },
            {
              "internalType": "string",
              "name": "ensName",
              "type": "string"
            },
            {
              "internalType": "string",
              "name": "description",
              "type": "string"
            },
            {
              "internalType": "uint256",
              "name": "noOfDbAgreements",
              "type": "uint256"
            },
            {
              "internalType": "uint256",
              "name": "activeAgreements",
              "type": "uint256"
            }
          ],
          "internalType": "struct DDMeshMarket.Provider",
          "name": "",
          "type": "tuple"
        }
      ],
      "stateMutability": "view",
      "type": "function"
    },
    {
      "inputs": [
        {
          "internalType": "uint256",
          "name": "_providerId",
          "type": "uint256"
        }
      ],
      "name": "getProviderIdToAgreements",
      "outputs": [
        {
          "internalType": "uint256[]",
          "name": "",
          "type": "uint256[]"
        }
      ],
      "stateMutability": "view",
      "type": "function"
    },
    {
      "inputs": [],
      "name": "getProviderTVLs",
      "outputs": [
        {
          "internalType": "address[]",
          "name": "",
          "type": "address[]"
        },
        {
          "internalType": "uint256[]",
          "name": "",
          "type": "uint256[]"
        }
      ],
      "stateMutability": "view",
      "type": "function"
    },
    {
      "inputs": [
        {
          "internalType": "bytes32",
          "name": "role",
          "type": "bytes32"
        }
      ],
      "name": "getRoleAdmin",
      "outputs": [
        {
          "internalType": "bytes32",
          "name": "",
          "type": "bytes32"
        }
      ],
      "stateMutability": "view",
      "type": "function"
    },
    {
      "inputs": [
        {
          "internalType": "address",
          "name": "_userAddress",
          "type": "address"
        }
      ],
      "name": "getUserAgreements",
      "outputs": [
        {
          "internalType": "uint256[]",
          "name": "",
          "type": "uint256[]"
        }
      ],
      "stateMutability": "view",
      "type": "function"
    },
    {
      "inputs": [
        {
          "internalType": "bytes32",
          "name": "role",
          "type": "bytes32"
        },
        {
          "internalType": "address",
          "name": "account",
          "type": "address"
        }
      ],
      "name": "grantRole",
      "outputs": [],
      "stateMutability": "nonpayable",
      "type": "function"
    },
    {
      "inputs": [
        {
          "internalType": "bytes32",
          "name": "role",
          "type": "bytes32"
        },
        {
          "internalType": "address",
          "name": "account",
          "type": "address"
        }
      ],
      "name": "hasRole",
      "outputs": [
        {
          "internalType": "bool",
          "name": "",
          "type": "bool"
        }
      ],
      "stateMutability": "view",
      "type": "function"
    },
    {
      "inputs": [],
      "name": "owner",
      "outputs": [
        {
          "internalType": "address",
          "name": "",
          "type": "address"
        }
      ],
      "stateMutability": "view",
      "type": "function"
    },
    {
      "inputs": [
        {
          "internalType": "address",
          "name": "",
          "type": "address"
        },
        {
          "internalType": "uint256",
          "name": "",
          "type": "uint256"
        }
      ],
      "name": "providerAgreements",
      "outputs": [
        {
          "internalType": "uint256",
          "name": "",
          "type": "uint256"
        }
      ],
      "stateMutability": "view",
      "type": "function"
    },
    {
      "inputs": [
        {
          "internalType": "uint256",
          "name": "",
          "type": "uint256"
        },
        {
          "internalType": "uint256",
          "name": "",
          "type": "uint256"
        }
      ],
      "name": "providerIdToAgreements",
      "outputs": [
        {
          "internalType": "uint256",
          "name": "",
          "type": "uint256"
        }
      ],
      "stateMutability": "view",
      "type": "function"
    },
    {
      "inputs": [
        {
          "internalType": "uint256",
          "name": "",
          "type": "uint256"
        }
      ],
      "name": "providerIdToProvider",
      "outputs": [
        {
          "internalType": "uint256",
          "name": "id",
          "type": "uint256"
        },
        {
          "internalType": "address",
          "name": "pAddress",
          "type": "address"
        },
        {
          "internalType": "uint256",
          "name": "fee",
          "type": "uint256"
        },
        {
          "internalType": "string",
          "name": "encApiKey",
          "type": "string"
        },
        {
          "internalType": "string",
          "name": "ensName",
          "type": "string"
        },
        {
          "internalType": "string",
          "name": "description",
          "type": "string"
        },
        {
          "internalType": "uint256",
          "name": "noOfDbAgreements",
          "type": "uint256"
        },
        {
          "internalType": "uint256",
          "name": "activeAgreements",
          "type": "uint256"
        }
      ],
      "stateMutability": "view",
      "type": "function"
    },
    {
      "inputs": [],
      "name": "providerIdTotalCount",
      "outputs": [
        {
          "internalType": "uint256",
          "name": "",
          "type": "uint256"
        }
      ],
      "stateMutability": "view",
      "type": "function"
    },
    {
      "inputs": [
        {
          "internalType": "address",
          "name": "",
          "type": "address"
        }
      ],
      "name": "providerToTVLAcrossAllAgreements",
      "outputs": [
        {
          "internalType": "uint256",
          "name": "",
          "type": "uint256"
        }
      ],
      "stateMutability": "view",
      "type": "function"
    },
    {
      "inputs": [
        {
          "internalType": "uint256",
          "name": "",
          "type": "uint256"
        }
      ],
      "name": "providers",
      "outputs": [
        {
          "internalType": "uint256",
          "name": "id",
          "type": "uint256"
        },
        {
          "internalType": "address",
          "name": "pAddress",
          "type": "address"
        },
        {
          "internalType": "uint256",
          "name": "fee",
          "type": "uint256"
        },
        {
          "internalType": "string",
          "name": "encApiKey",
          "type": "string"
        },
        {
          "internalType": "string",
          "name": "ensName",
          "type": "string"
        },
        {
          "internalType": "string",
          "name": "description",
          "type": "string"
        },
        {
          "internalType": "uint256",
          "name": "noOfDbAgreements",
          "type": "uint256"
        },
        {
          "internalType": "uint256",
          "name": "activeAgreements",
          "type": "uint256"
        }
      ],
      "stateMutability": "view",
      "type": "function"
    },
    {
      "inputs": [
        {
          "internalType": "uint256",
          "name": "_fee",
          "type": "uint256"
        },
        {
          "internalType": "string",
          "name": "_enc_apiKey",
          "type": "string"
        },
        {
          "internalType": "string",
          "name": "_ensName",
          "type": "string"
        },
        {
          "internalType": "string",
          "name": "_description",
          "type": "string"
        },
        {
          "internalType": "uint256",
          "name": "_noOfDbAgreements",
          "type": "uint256"
        }
      ],
      "name": "registerProvider",
      "outputs": [],
      "stateMutability": "nonpayable",
      "type": "function"
    },
    {
      "inputs": [],
      "name": "renounceOwnership",
      "outputs": [],
      "stateMutability": "nonpayable",
      "type": "function"
    },
    {
      "inputs": [
        {
          "internalType": "bytes32",
          "name": "role",
          "type": "bytes32"
        },
        {
          "internalType": "address",
          "name": "callerConfirmation",
          "type": "address"
        }
      ],
      "name": "renounceRole",
      "outputs": [],
      "stateMutability": "nonpayable",
      "type": "function"
    },
    {
      "inputs": [
        {
          "internalType": "bytes32",
          "name": "role",
          "type": "bytes32"
        },
        {
          "internalType": "address",
          "name": "account",
          "type": "address"
        }
      ],
      "name": "revokeRole",
      "outputs": [],
      "stateMutability": "nonpayable",
      "type": "function"
    },
    {
      "inputs": [
        {
          "internalType": "uint256",
          "name": "_agreementId",
          "type": "uint256"
        },
        {
          "internalType": "string",
          "name": "_encConnectionString",
          "type": "string"
        }
      ],
      "name": "setConnectionStringAndActivateAgreement",
      "outputs": [],
      "stateMutability": "nonpayable",
      "type": "function"
    },
    {
      "inputs": [
        {
          "internalType": "bytes4",
          "name": "interfaceId",
          "type": "bytes4"
        }
      ],
      "name": "supportsInterface",
      "outputs": [
        {
          "internalType": "bool",
          "name": "",
          "type": "bool"
        }
      ],
      "stateMutability": "view",
      "type": "function"
    },
    {
      "inputs": [],
      "name": "token",
      "outputs": [
        {
          "internalType": "contract IToken",
          "name": "",
          "type": "address"
        }
      ],
      "stateMutability": "view",
      "type": "function"
    },
    {
      "inputs": [
        {
          "internalType": "address",
          "name": "newOwner",
          "type": "address"
        }
      ],
      "name": "transferOwnership",
      "outputs": [],
      "stateMutability": "nonpayable",
      "type": "function"
    },
    {
      "inputs": [
        {
          "internalType": "address",
          "name": "",
          "type": "address"
        },
        {
          "internalType": "uint256",
          "name": "",
          "type": "uint256"
        }
      ],
      "name": "userAgreements",
      "outputs": [
        {
          "internalType": "uint256",
          "name": "",
          "type": "uint256"
        }
      ],
      "stateMutability": "view",
      "type": "function"
    },
    {
      "inputs": [
        {
          "internalType": "uint256",
          "name": "_agreementId",
          "type": "uint256"
        }
      ],
      "name": "withdrawReward",
      "outputs": [],
      "stateMutability": "nonpayable",
      "type": "function"
    }
  ],
  "transactionHash": "0x0652278c6fc19654c53611338de9f94c7cc7b5182024bf3cad3ef40d8c9aa2a5",
  "args": [
    "0x15223Dee9891d84609889798bb63ADe5e1FDcB15"
  ],
  "numDeployments": 8,
  "solcInputHash": "831a584149b4c492ce5e16dbece91faf",
  "bytecode": "0x60806040523480156200001157600080fd5b50604051620032c2380380620032c283398101604081905262000034916200019c565b33806200005b57604051631e4fbdf760e01b81526000600482015260240160405180910390fd5b62000066816200009b565b5062000074600033620000ed565b50600280546001600160a01b0319166001600160a01b0392909216919091179055620001ce565b600180546001600160a01b038381166001600160a01b0319831681179093556040519116919082907f8be0079c531659141344cd1fd0a4f28419497f9722a3daafe3b4186f6b6457e090600090a35050565b6000828152602081815260408083206001600160a01b038516845290915281205460ff1662000192576000838152602081815260408083206001600160a01b03861684529091529020805460ff19166001179055620001493390565b6001600160a01b0316826001600160a01b0316847f2f8788117e7eff1d82e926ec794901d17c78024a50270940304540a733656f0d60405160405180910390a450600162000196565b5060005b92915050565b600060208284031215620001af57600080fd5b81516001600160a01b0381168114620001c757600080fd5b9392505050565b6130e480620001de6000396000f3fe608060405234801561001057600080fd5b50600436106102275760003560e01c8063715018a611610130578063adb9cae6116100b8578063e845bdae1161007c578063e845bdae1461050b578063ece495ec1461051e578063f2fde38b14610527578063fc0c546a1461053a578063fdf73bd61461054d57600080fd5b8063adb9cae6146104b6578063bd14de96146104c9578063c5262c93146104dc578063d547741f146104e5578063d5b548f5146104f857600080fd5b806393202d07116100ff57806393202d071461045f5780639c1a0482146104725780639e68377c14610485578063a217fddf14610498578063a9f8d60d146104a057600080fd5b8063715018a6146103f6578063864739e3146103fe5780638da5cb5b1461042757806391d148541461044c57600080fd5b806336568abe116101b35780634e6873c7116101825780634e6873c7146103955780634f9f6fe61461039d57806350f3fc81146103bd578063523a3f08146103d0578063593be20d146103e357600080fd5b806336568abe1461034757806338808aaf1461035a5780633bb4497c1461036d5780634c27984e1461038257600080fd5b80632335bde0116101fa5780632335bde0146102bc578063237a39f9146102dc578063248a9ca3146102fc5780632f2ff15d1461031f5780633500a9531461033457600080fd5b8063013f478f1461022c57806301ffc9a71461025f578063144161e5146102825780631d824046146102a9575b600080fd5b61024c61023a366004612693565b600b6020526000908152604090205481565b6040519081526020015b60405180910390f35b61027261026d3660046126b5565b610560565b6040519015158152602001610256565b610295610290366004612693565b610597565b604051610256989796959493929190612725565b61024c6102b7366004612797565b61077c565b6102cf6102ca366004612693565b6107ad565b604051610256919061284a565b6102ef6102ea366004612693565b6109d0565b6040516102569190612899565b61024c61030a3660046128ac565b60009081526020819052604090206001015490565b61033261032d3660046128c5565b610a3c565b005b61024c6103423660046128f1565b610a67565b6103326103553660046128c5565b610a83565b6103326103683660046129be565b610abb565b610375610bfe565b6040516102569190612a05565b61024c6103903660046128f1565b610e53565b6102ef610e6f565b6103b06103ab3660046128ac565b610ec7565b6040516102569190612aa1565b6102956103cb3660046128ac565b611014565b6103326103de3660046128ac565b611063565b6102956103f13660046128ac565b611203565b61033261123d565b61041161040c3660046128ac565b611251565b6040516102569a99989796959493929190612b56565b6001546001600160a01b03165b6040516001600160a01b039091168152602001610256565b61027261045a3660046128c5565b61133d565b61033261046d3660046128ac565b611366565b6102ef6104803660046128ac565b6114e3565b6102cf6104933660046128ac565b611543565b61024c600081565b6104a86115a3565b604051610256929190612bcb565b6102ef6104c4366004612693565b611729565b61024c6104d73660046128ac565b611793565b61024c60035481565b6103326104f33660046128c5565b6117b4565b610332610506366004612797565b6117d9565b610332610519366004612c2c565b611ba3565b61024c60045481565b610332610535366004612693565b611e46565b600254610434906001600160a01b031681565b61033261055b3660046128ac565b611e84565b60006001600160e01b03198216637965db0b60e01b148061059157506301ffc9a760e01b6001600160e01b03198316145b92915050565b600760205260009081526040902080546001820154600283015460038401805493946001600160a01b03909316939192916105d190612cc6565b80601f01602080910402602001604051908101604052809291908181526020018280546105fd90612cc6565b801561064a5780601f1061061f5761010080835404028352916020019161064a565b820191906000526020600020905b81548152906001019060200180831161062d57829003601f168201915b50505050509080600401805461065f90612cc6565b80601f016020809104026020016040519081016040528092919081815260200182805461068b90612cc6565b80156106d85780601f106106ad576101008083540402835291602001916106d8565b820191906000526020600020905b8154815290600101906020018083116106bb57829003601f168201915b5050505050908060050180546106ed90612cc6565b80601f016020809104026020016040519081016040528092919081815260200182805461071990612cc6565b80156107665780601f1061073b57610100808354040283529160200191610766565b820191906000526020600020905b81548152906001019060200180831161074957829003601f168201915b5050505050908060060154908060070154905088565b600a602052816000526040600020818154811061079857600080fd5b90600052602060002001600091509150505481565b6107b56125b4565b6001600160a01b038083166000908152600760209081526040918290208251610100810184528154815260018201549094169184019190915260028101549183019190915260038101805460608401919061080f90612cc6565b80601f016020809104026020016040519081016040528092919081815260200182805461083b90612cc6565b80156108885780601f1061085d57610100808354040283529160200191610888565b820191906000526020600020905b81548152906001019060200180831161086b57829003601f168201915b505050505081526020016004820180546108a190612cc6565b80601f01602080910402602001604051908101604052809291908181526020018280546108cd90612cc6565b801561091a5780601f106108ef5761010080835404028352916020019161091a565b820191906000526020600020905b8154815290600101906020018083116108fd57829003601f168201915b5050505050815260200160058201805461093390612cc6565b80601f016020809104026020016040519081016040528092919081815260200182805461095f90612cc6565b80156109ac5780601f10610981576101008083540402835291602001916109ac565b820191906000526020600020905b81548152906001019060200180831161098f57829003601f168201915b50505050508152602001600682015481526020016007820154815250509050919050565b6001600160a01b038116600090815260096020908152604091829020805483518184028101840190945280845260609392830182828015610a3057602002820191906000526020600020905b815481526020019060010190808311610a1c575b50505050509050919050565b600082815260208190526040902060010154610a5781612278565b610a618383612282565b50505050565b6009602052816000526040600020818154811061079857600080fd5b6001600160a01b0381163314610aac5760405163334bd91960e11b815260040160405180910390fd5b610ab68282612314565b505050565b600082815260056020526040902080548314610b145760405162461bcd60e51b81526020600482015260136024820152721859dc99595b595b9d081b9bdd08199bdd5b99606a1b60448201526064015b60405180910390fd5b6001600982015460ff166005811115610b2f57610b2f612a69565b14610b7c5760405162461bcd60e51b815260206004820152601b60248201527f61677265656d656e7420616c72656164792061637469766174656400000000006044820152606401610b0b565b60068101610b8a8382612d50565b5060098101805460ff1916600217905580546001820154600383015460048401546040517f378a301fbbc85083e6935c8c543eceb5080659f50d3ac2cf482f4015b69de0a994610bf19490936001600160a01b039182169391169160068801908990612e8d565b60405180910390a1505050565b6060600d805480602002602001604051908101604052809291908181526020016000905b82821015610e4a5760008481526020908190206040805161010081018252600886029092018054835260018101546001600160a01b031693830193909352600283015490820152600382018054919291606084019190610c8190612cc6565b80601f0160208091040260200160405190810160405280929190818152602001828054610cad90612cc6565b8015610cfa5780601f10610ccf57610100808354040283529160200191610cfa565b820191906000526020600020905b815481529060010190602001808311610cdd57829003601f168201915b50505050508152602001600482018054610d1390612cc6565b80601f0160208091040260200160405190810160405280929190818152602001828054610d3f90612cc6565b8015610d8c5780601f10610d6157610100808354040283529160200191610d8c565b820191906000526020600020905b815481529060010190602001808311610d6f57829003601f168201915b50505050508152602001600582018054610da590612cc6565b80601f0160208091040260200160405190810160405280929190818152602001828054610dd190612cc6565b8015610e1e5780601f10610df357610100808354040283529160200191610e1e565b820191906000526020600020905b815481529060010190602001808311610e0157829003601f168201915b505050505081526020016006820154815260200160078201548152505081526020019060010190610c22565b50505050905090565b6008602052816000526040600020818154811061079857600080fd5b6060600c805480602002602001604051908101604052809291908181526020018280548015610ebd57602002820191906000526020600020905b815481526020019060010190808311610ea9575b5050505050905090565b610ecf612602565b6000828152600560208181526040928390208351610140810185528154815260018201546001600160a01b039081169382019390935260028201549481019490945260038101549091166060840152600481015460808401529081015460a083015260068101805460c084019190610f4690612cc6565b80601f0160208091040260200160405190810160405280929190818152602001828054610f7290612cc6565b8015610fbf5780601f10610f9457610100808354040283529160200191610fbf565b820191906000526020600020905b815481529060010190602001808311610fa257829003601f168201915b50505091835250506007820154602082015260088201546040820152600982015460609091019060ff166005811115610ffa57610ffa612a69565b600581111561100b5761100b612a69565b90525092915050565b600d818154811061102457600080fd5b600091825260209091206008909102018054600182015460028301546003840180549395506001600160a01b039092169390929091906105d190612cc6565b600081815260056020526040902060038101546001600160a01b031633146110c25760405162461bcd60e51b81526020600482015260126024820152711c1c9bdd9a59195c881b9bdd08199bdd5b9960721b6044820152606401610b0b565b600481015460009081526006602052604081206002015460088301546110e9904290612efb565b6110f39190612f0e565b905080826002015410156111105750600281015461111083611e84565b4282600801819055508082600201600082825461112d9190612efb565b92505081905550808260050160008282546111489190612f25565b909155505060025460405163a9059cbb60e01b8152336004820152602481018390526001600160a01b039091169063a9059cbb906044016020604051808303816000875af115801561119e573d6000803e3d6000fd5b505050506040513d601f19601f820116820180604052508101906111c29190612f38565b50604080518481526020810183905233918101919091527fd87151350e1bbb72f18f34be4129fa56a2aa6bb7f9d1bbf1a48defa0e67ebd6190606001610bf1565b600660205260009081526040902080546001820154600283015460038401805493946001600160a01b03909316939192916105d190612cc6565b61124561237f565b61124f60006123ac565b565b6005602081905260009182526040909120805460018201546002830154600384015460048501549585015460068601805495976001600160a01b0395861697949693909516949391926112a390612cc6565b80601f01602080910402602001604051908101604052809291908181526020018280546112cf90612cc6565b801561131c5780601f106112f15761010080835404028352916020019161131c565b820191906000526020600020905b8154815290600101906020018083116112ff57829003601f168201915b50505050600783015460088401546009909401549293909290915060ff168a565b6000918252602082815260408084206001600160a01b0393909316845291905290205460ff1690565b600081815260056020908152604080832060048101548452600690925290912060018201546001600160a01b031633146113d75760405162461bcd60e51b81526020600482015260126024820152711b9bdd081e5bdd5c881859dc99595b595b9d60721b6044820152606401610b0b565b6002600983015460ff1660058111156113f2576113f2612a69565b146114395760405162461bcd60e51b815260206004820152601760248201527661677265656d656e74206973206e6f742061637469766560481b6044820152606401610b0b565b60098201805460ff191660031790556002820154825461145991906123fe565b600281015460018201546001600160a01b03166000908152600b60205260408120805490919061148a908490612efb565b9091555050600182015460038084015483546040517ed7ba45d1728c90fbe80acee8d98233c67e315bb7c2324521d3cacd92da943a94610bf19489946001600160a01b03928316949216929088019060068a0190612f5a565b6000818152600a6020908152604091829020805483518184028101840190945280845260609392830182828015610a305760200282019190600052602060002090815481526020019060010190808311610a1c5750505050509050919050565b61154b6125b4565b6000828152600660209081526040918290208251610100810184528154815260018201546001600160a01b03169281019290925260028101549282019290925260038201805491929160608401919061080f90612cc6565b6060806000600d8054905067ffffffffffffffff8111156115c6576115c661291b565b6040519080825280602002602001820160405280156115ef578160200160208202803683370190505b50600d5490915060009067ffffffffffffffff8111156116115761161161291b565b60405190808252806020026020018201604052801561163a578160200160208202803683370190505b50905060005b600d5481101561172057600d818154811061165d5761165d612fa5565b906000526020600020906008020160010160009054906101000a90046001600160a01b031682828151811061169457611694612fa5565b60200260200101906001600160a01b031690816001600160a01b031681525050600b6000600d83815481106116cb576116cb612fa5565b60009182526020808320600160089093020191909101546001600160a01b03168352820192909252604001902054835184908390811061170d5761170d612fa5565b6020908102919091010152600101611640565b50939092509050565b6001600160a01b038116600090815260086020908152604091829020805483518184028101840190945280845260609392830182828015610a305760200282019190600052602060002090815481526020019060010190808311610a1c5750505050509050919050565b600c81815481106117a357600080fd5b600091825260209091200154905081565b6000828152602081905260409020600101546117cf81612278565b610a618383612314565b600081116118295760405162461bcd60e51b815260206004820152601d60248201527f616d6f756e74206d7573742062652067726561746572207468616e20300000006044820152606401610b0b565b600060036000815461183a90612fbb565b9182905550600084815260066020819052604090912060078101549181015492935091116118aa5760405162461bcd60e51b815260206004820152601960248201527f6e6f206f662061677265656d656e7473206578636565646564000000000000006044820152606401610b0b565b6002546040516323b872dd60e01b8152336004820152306024820152604481018590526001600160a01b03909116906323b872dd906064016020604051808303816000875af1158015611901573d6000803e3d6000fd5b505050506040513d601f19601f820116820180604052508101906119259190612f38565b506040805161014081018252838152336020808301919091528183018690526001808501546001600160a01b0316606084015260808301889052600060a08401819052845192830190945283825260c08301919091524260e08301819052610100830152610120820190815250905060018260070160008282546119a99190612f25565b9250508190555083816040018181516119c29190612f25565b90525060008381526005602081815260409283902084518155908401516001820180546001600160a01b03199081166001600160a01b039384161790915593850151600283015560608501516003830180549095169116179092556080830151600483015560a08301519082015560c08201518291906006820190611a479082612d50565b5060e08201516007820155610100820151600882015561012082015160098201805460ff19166001836005811115611a8157611a81612a69565b021790555050600c805460018181019092557fdf6966c971051c3d54ec59162606531493a51404a002842f56009d7e5cf4a8c701859055336000908152600860209081526040808320805480860182559084528284200188905586840180546001600160a01b0390811685526009845282852080548088018255908652848620018a90558b8552600a8452828520805496870181558552838520909501899055600288015490549094168352600b9091528120805492935091611b45908490612f25565b909155505060018201546040517f8159ca23ddfb64a3383082fa3d8bfe372e5cf4e0235f04b5eb4eec8ac690237f91611b9491869133916001600160a01b03909116908a906003890190612fd4565b60405180910390a15050505050565b60008511611bf35760405162461bcd60e51b815260206004820152601a60248201527f666565206d7573742062652067726561746572207468616e20300000000000006044820152606401610b0b565b6000600460008154611c0490612fbb565b918290555060408051610100810182528281523360208083019182528284018b8152606084018b8152608085018b905260a085018a905260c08501899052600060e086018190528781526006909352949091208351815591516001830180546001600160a01b0319166001600160a01b039092169190911790555160028201559151929350918291906003820190611c9c9082612d50565b5060808201516004820190611cb19082612d50565b5060a08201516005820190611cc69082612d50565b5060c0820151600682015560e090910151600790910155600d805460018101825560009190915281517fd7b6990105719101dabeb77144f2a3385c8033acd3af97e9423a695e81ad1eb5600890920291820190815560208301517fd7b6990105719101dabeb77144f2a3385c8033acd3af97e9423a695e81ad1eb6830180546001600160a01b0319166001600160a01b0390921691909117905560408301517fd7b6990105719101dabeb77144f2a3385c8033acd3af97e9423a695e81ad1eb7830155606083015183927fd7b6990105719101dabeb77144f2a3385c8033acd3af97e9423a695e81ad1eb80190611dbd9082612d50565b5060808201516004820190611dd29082612d50565b5060a08201516005820190611de79082612d50565b5060c0820151816006015560e0820151816007015550507f40ebfac2153d289b4b4b35149bc5c041508301d9a9a1f898c625f52ae2041d998233898989604051611e3595949392919061302a565b60405180910390a150505050505050565b611e4e61237f565b6001600160a01b038116611e7857604051631e4fbdf760e01b815260006004820152602401610b0b565b611e81816123ac565b50565b600081815260056020908152604080832060048101548452600683528184208251610100810184528154815260018201546001600160a01b0316948101949094526002810154928401929092526003820180549194939291606084019190611eeb90612cc6565b80601f0160208091040260200160405190810160405280929190818152602001828054611f1790612cc6565b8015611f645780601f10611f3957610100808354040283529160200191611f64565b820191906000526020600020905b815481529060010190602001808311611f4757829003601f168201915b50505050508152602001600482018054611f7d90612cc6565b80601f0160208091040260200160405190810160405280929190818152602001828054611fa990612cc6565b8015611ff65780601f10611fcb57610100808354040283529160200191611ff6565b820191906000526020600020905b815481529060010190602001808311611fd957829003601f168201915b5050505050815260200160058201805461200f90612cc6565b80601f016020809104026020016040519081016040528092919081815260200182805461203b90612cc6565b80156120885780601f1061205d57610100808354040283529160200191612088565b820191906000526020600020905b81548152906001019060200180831161206b57829003601f168201915b5050505050815260200160068201548152602001600782015481525050905081600201546000146120f35760405162461bcd60e51b81526020600482015260156024820152740557365722062616c616e6365206973206e6f74203605c1b6044820152606401610b0b565b60038201546001600160a01b031633146121645760405162461bcd60e51b815260206004820152602c60248201527f6e6f7420796f75722061677265656d656e742c20796f7520617265206e6f742060448201526b3a343290383937bb34b232b960a11b6064820152608401610b0b565b6002600983015460ff16600581111561217f5761217f612a69565b146121c65760405162461bcd60e51b815260206004820152601760248201527661677265656d656e74206973206e6f742061637469766560481b6044820152606401610b0b565b60098201805460ff1916600317905581546121e090611063565b8060400151600b600083602001516001600160a01b03166001600160a01b03168152602001908152602001600020600082825461221d9190612efb565b909155505060018201546003830154825160608401516040517ed7ba45d1728c90fbe80acee8d98233c67e315bb7c2324521d3cacd92da943a94610bf19489946001600160a01b0392831694919092169260068a0190613075565b611e818133612577565b600061228e838361133d565b61230c576000838152602081815260408083206001600160a01b03861684529091529020805460ff191660011790556122c43390565b6001600160a01b0316826001600160a01b0316847f2f8788117e7eff1d82e926ec794901d17c78024a50270940304540a733656f0d60405160405180910390a4506001610591565b506000610591565b6000612320838361133d565b1561230c576000838152602081815260408083206001600160a01b0386168085529252808320805460ff1916905551339286917ff6391f5c32d9c69d2a47ea670b442974b53935d1edc7fd64eb21e047a839171b9190a4506001610591565b6001546001600160a01b0316331461124f5760405163118cdaa760e01b8152336004820152602401610b0b565b600180546001600160a01b038381166001600160a01b0319831681179093556040519116919082907f8be0079c531659141344cd1fd0a4f28419497f9722a3daafe3b4186f6b6457e090600090a35050565b600081815260056020526040902060018101546001600160a01b0316331461245d5760405162461bcd60e51b81526020600482015260126024820152711b9bdd081e5bdd5c881859dc99595b595b9d60721b6044820152606401610b0b565b82816002015410156124a85760405162461bcd60e51b8152602060048201526014602482015273696e73756666696369656e742062616c616e636560601b6044820152606401610b0b565b828160020160008282546124bc9190612efb565b909155505060025460405163a9059cbb60e01b8152336004820152602481018590526001600160a01b039091169063a9059cbb906044016020604051808303816000875af1158015612512573d6000803e3d6000fd5b505050506040513d601f19601f820116820180604052508101906125369190612f38565b50604080518381526020810185905233918101919091527f40e4573562e6371894d454760624092834d732fa3c863d0bcda4ae9d64c9a66d90606001610bf1565b612581828261133d565b6125b05760405163e2517d3f60e01b81526001600160a01b038216600482015260248101839052604401610b0b565b5050565b6040518061010001604052806000815260200160006001600160a01b031681526020016000815260200160608152602001606081526020016060815260200160008152602001600081525090565b6040518061014001604052806000815260200160006001600160a01b031681526020016000815260200160006001600160a01b0316815260200160008152602001600081526020016060815260200160008152602001600081526020016000600581111561267257612672612a69565b905290565b80356001600160a01b038116811461268e57600080fd5b919050565b6000602082840312156126a557600080fd5b6126ae82612677565b9392505050565b6000602082840312156126c757600080fd5b81356001600160e01b0319811681146126ae57600080fd5b6000815180845260005b81811015612705576020818501810151868301820152016126e9565b506000602082860101526020601f19601f83011685010191505092915050565b8881526001600160a01b03881660208201526040810187905261010060608201819052600090612757838201896126df565b9050828103608084015261276b81886126df565b905082810360a084015261277f81876126df565b60c0840195909552505060e001529695505050505050565b600080604083850312156127aa57600080fd5b50508035926020909101359150565b60006101008251845260018060a01b0360208401511660208501526040830151604085015260608301518160608601526127f5828601826126df565b9150506080830151848203608086015261280f82826126df565b91505060a083015184820360a086015261282982826126df565b91505060c083015160c085015260e083015160e08501528091505092915050565b6020815260006126ae60208301846127b9565b60008151808452602080850194506020840160005b8381101561288e57815187529582019590820190600101612872565b509495945050505050565b6020815260006126ae602083018461285d565b6000602082840312156128be57600080fd5b5035919050565b600080604083850312156128d857600080fd5b823591506128e860208401612677565b90509250929050565b6000806040838503121561290457600080fd5b61290d83612677565b946020939093013593505050565b634e487b7160e01b600052604160045260246000fd5b600082601f83011261294257600080fd5b813567ffffffffffffffff8082111561295d5761295d61291b565b604051601f8301601f19908116603f011681019082821181831017156129855761298561291b565b8160405283815286602085880101111561299e57600080fd5b836020870160208301376000602085830101528094505050505092915050565b600080604083850312156129d157600080fd5b82359150602083013567ffffffffffffffff8111156129ef57600080fd5b6129fb85828601612931565b9150509250929050565b600060208083016020845280855180835260408601915060408160051b87010192506020870160005b82811015612a5c57603f19888603018452612a4a8583516127b9565b94509285019290850190600101612a2e565b5092979650505050505050565b634e487b7160e01b600052602160045260246000fd5b60068110612a9d57634e487b7160e01b600052602160045260246000fd5b9052565b602081528151602082015260006020830151612ac860408401826001600160a01b03169052565b50604083015160608301526060830151612aed60808401826001600160a01b03169052565b50608083015160a083015260a083015160c083015260c08301516101408060e0850152612b1e6101608501836126df565b60e08601516101008681019190915286015161012080870191909152860151909250612b4c82860182612a7f565b5090949350505050565b8a81526001600160a01b038a81166020830152604082018a9052881660608201526080810187905260a0810186905261014060c08201819052600090612b9e838201886126df565b9150508460e083015283610100830152612bbc610120830184612a7f565b9b9a5050505050505050505050565b604080825283519082018190526000906020906060840190828701845b82811015612c0d5781516001600160a01b031684529284019290840190600101612be8565b5050508381036020850152612c22818661285d565b9695505050505050565b600080600080600060a08688031215612c4457600080fd5b85359450602086013567ffffffffffffffff80821115612c6357600080fd5b612c6f89838a01612931565b95506040880135915080821115612c8557600080fd5b612c9189838a01612931565b94506060880135915080821115612ca757600080fd5b50612cb488828901612931565b95989497509295608001359392505050565b600181811c90821680612cda57607f821691505b602082108103612cfa57634e487b7160e01b600052602260045260246000fd5b50919050565b601f821115610ab6576000816000526020600020601f850160051c81016020861015612d295750805b601f850160051c820191505b81811015612d4857828155600101612d35565b505050505050565b815167ffffffffffffffff811115612d6a57612d6a61291b565b612d7e81612d788454612cc6565b84612d00565b602080601f831160018114612db35760008415612d9b5750858301515b600019600386901b1c1916600185901b178555612d48565b600085815260208120601f198616915b82811015612de257888601518255948401946001909101908401612dc3565b5085821015612e005787850151600019600388901b60f8161c191681555b5050505050600190811b01905550565b60008154612e1d81612cc6565b808552602060018381168015612e3a5760018114612e5457612e82565b60ff1985168884015283151560051b880183019550612e82565b866000528260002060005b85811015612e7a5781548a8201860152908301908401612e5f565b890184019650505b505050505092915050565b8681526001600160a01b038681166020830152851660408201526060810184905260c060808201819052600090612ec690830185612e10565b82810360a0840152612ed881856126df565b9998505050505050505050565b634e487b7160e01b600052601160045260246000fd5b8181038181111561059157610591612ee5565b808202811582820484141761059157610591612ee5565b8082018082111561059157610591612ee5565b600060208284031215612f4a57600080fd5b815180151581146126ae57600080fd5b8681526001600160a01b038681166020830152851660408201526060810184905260c060808201819052600090612f9390830185612e10565b82810360a0840152612ed88185612e10565b634e487b7160e01b600052603260045260246000fd5b600060018201612fcd57612fcd612ee5565b5060010190565b8581526001600160a01b038581166020830152841660408201526060810183905260c06080820181905260009061300d90830184612e10565b82810360a084015260008152602081019150509695505050505050565b85815260018060a01b038516602082015283604082015260a06060820152600061305760a08301856126df565b828103608084015261306981856126df565b98975050505050505050565b8681526001600160a01b038681166020830152851660408201526060810184905260c060808201819052600090612f93908301856126df56fea2646970667358221220d45dd0d24f1b6c82b3000f94bddf7db3df0fe84cc9c2329c25ec2bbace6c666864736f6c63430008160033",
  "devdoc": {
    "errors": {
      "AccessControlBadConfirmation()": [
        {
          "details": "The caller of a function is not the expected one. NOTE: Don't confuse with {AccessControlUnauthorizedAccount}."
        }
      ],
      "AccessControlUnauthorizedAccount(address,bytes32)": [
        {
          "details": "The `account` is missing a role."
        }
      ],
      "OwnableInvalidOwner(address)": [
        {
          "details": "The owner is not a valid owner account. (eg. `address(0)`)"
        }
      ],
      "OwnableUnauthorizedAccount(address)": [
        {
          "details": "The caller account is not authorized to perform an operation."
        }
      ]
    },
    "events": {
      "RoleAdminChanged(bytes32,bytes32,bytes32)": {
        "details": "Emitted when `newAdminRole` is set as ``role``'s admin role, replacing `previousAdminRole` `DEFAULT_ADMIN_ROLE` is the starting admin for all roles, despite {RoleAdminChanged} not being emitted signaling this."
      },
      "RoleGranted(bytes32,address,address)": {
        "details": "Emitted when `account` is granted `role`. `sender` is the account that originated the contract call, an admin role bearer except when using {AccessControl-_setupRole}."
      },
      "RoleRevoked(bytes32,address,address)": {
        "details": "Emitted when `account` is revoked `role`. `sender` is the account that originated the contract call:   - if using `revokeRole`, it is the admin role bearer   - if using `renounceRole`, it is the role bearer (i.e. `account`)"
      }
    },
    "kind": "dev",
    "methods": {
      "getRoleAdmin(bytes32)": {
        "details": "Returns the admin role that controls `role`. See {grantRole} and {revokeRole}. To change a role's admin, use {_setRoleAdmin}."
      },
      "grantRole(bytes32,address)": {
        "details": "Grants `role` to `account`. If `account` had not been already granted `role`, emits a {RoleGranted} event. Requirements: - the caller must have ``role``'s admin role. May emit a {RoleGranted} event."
      },
      "hasRole(bytes32,address)": {
        "details": "Returns `true` if `account` has been granted `role`."
      },
      "owner()": {
        "details": "Returns the address of the current owner."
      },
      "renounceOwnership()": {
        "details": "Leaves the contract without owner. It will not be possible to call `onlyOwner` functions. Can only be called by the current owner. NOTE: Renouncing ownership will leave the contract without an owner, thereby disabling any functionality that is only available to the owner."
      },
      "renounceRole(bytes32,address)": {
        "details": "Revokes `role` from the calling account. Roles are often managed via {grantRole} and {revokeRole}: this function's purpose is to provide a mechanism for accounts to lose their privileges if they are compromised (such as when a trusted device is misplaced). If the calling account had been revoked `role`, emits a {RoleRevoked} event. Requirements: - the caller must be `callerConfirmation`. May emit a {RoleRevoked} event."
      },
      "revokeRole(bytes32,address)": {
        "details": "Revokes `role` from `account`. If `account` had been granted `role`, emits a {RoleRevoked} event. Requirements: - the caller must have ``role``'s admin role. May emit a {RoleRevoked} event."
      },
      "supportsInterface(bytes4)": {
        "details": "See {IERC165-supportsInterface}."
      },
      "transferOwnership(address)": {
        "details": "Transfers ownership of the contract to a new account (`newOwner`). Can only be called by the current owner."
      }
    },
    "version": 1
  },
  "userdoc": {
    "kind": "user",
    "methods": {},
    "version": 1
  },
  "storageLayout": {
    "storage": [
      {
        "astId": 26,
        "contract": "contracts/DDMeshMarket.sol:DDMeshMarket",
        "label": "_roles",
        "offset": 0,
        "slot": "0",
        "type": "t_mapping(t_bytes32,t_struct(RoleData)21_storage)"
      },
      {
        "astId": 387,
        "contract": "contracts/DDMeshMarket.sol:DDMeshMarket",
        "label": "_owner",
        "offset": 0,
        "slot": "1",
        "type": "t_address"
      },
      {
        "astId": 757,
        "contract": "contracts/DDMeshMarket.sol:DDMeshMarket",
        "label": "token",
        "offset": 0,
        "slot": "2",
        "type": "t_contract(IToken)1628"
      },
      {
        "astId": 805,
        "contract": "contracts/DDMeshMarket.sol:DDMeshMarket",
        "label": "agreementIdTotalCount",
        "offset": 0,
        "slot": "3",
        "type": "t_uint256"
      },
      {
        "astId": 807,
        "contract": "contracts/DDMeshMarket.sol:DDMeshMarket",
        "label": "providerIdTotalCount",
        "offset": 0,
        "slot": "4",
        "type": "t_uint256"
      },
      {
        "astId": 812,
        "contract": "contracts/DDMeshMarket.sol:DDMeshMarket",
        "label": "agreementIdToAgreement",
        "offset": 0,
        "slot": "5",
        "type": "t_mapping(t_uint256,t_struct(Agreement)786_storage)"
      },
      {
        "astId": 817,
        "contract": "contracts/DDMeshMarket.sol:DDMeshMarket",
        "label": "providerIdToProvider",
        "offset": 0,
        "slot": "6",
        "type": "t_mapping(t_uint256,t_struct(Provider)803_storage)"
      },
      {
        "astId": 822,
        "contract": "contracts/DDMeshMarket.sol:DDMeshMarket",
        "label": "addressToProvider",
        "offset": 0,
        "slot": "7",
        "type": "t_mapping(t_address,t_struct(Provider)803_storage)"
      },
      {
        "astId": 827,
        "contract": "contracts/DDMeshMarket.sol:DDMeshMarket",
        "label": "userAgreements",
        "offset": 0,
        "slot": "8",
        "type": "t_mapping(t_address,t_array(t_uint256)dyn_storage)"
      },
      {
        "astId": 832,
        "contract": "contracts/DDMeshMarket.sol:DDMeshMarket",
        "label": "providerAgreements",
        "offset": 0,
        "slot": "9",
        "type": "t_mapping(t_address,t_array(t_uint256)dyn_storage)"
      },
      {
        "astId": 837,
        "contract": "contracts/DDMeshMarket.sol:DDMeshMarket",
        "label": "providerIdToAgreements",
        "offset": 0,
        "slot": "10",
        "type": "t_mapping(t_uint256,t_array(t_uint256)dyn_storage)"
      },
      {
        "astId": 841,
        "contract": "contracts/DDMeshMarket.sol:DDMeshMarket",
        "label": "providerToTVLAcrossAllAgreements",
        "offset": 0,
        "slot": "11",
        "type": "t_mapping(t_address,t_uint256)"
      },
      {
        "astId": 844,
        "contract": "contracts/DDMeshMarket.sol:DDMeshMarket",
        "label": "agreements",
        "offset": 0,
        "slot": "12",
        "type": "t_array(t_uint256)dyn_storage"
      },
      {
        "astId": 848,
        "contract": "contracts/DDMeshMarket.sol:DDMeshMarket",
        "label": "providers",
        "offset": 0,
        "slot": "13",
        "type": "t_array(t_struct(Provider)803_storage)dyn_storage"
      }
    ],
    "types": {
      "t_address": {
        "encoding": "inplace",
        "label": "address",
        "numberOfBytes": "20"
      },
      "t_array(t_struct(Provider)803_storage)dyn_storage": {
        "base": "t_struct(Provider)803_storage",
        "encoding": "dynamic_array",
        "label": "struct DDMeshMarket.Provider[]",
        "numberOfBytes": "32"
      },
      "t_array(t_uint256)dyn_storage": {
        "base": "t_uint256",
        "encoding": "dynamic_array",
        "label": "uint256[]",
        "numberOfBytes": "32"
      },
      "t_bool": {
        "encoding": "inplace",
        "label": "bool",
        "numberOfBytes": "1"
      },
      "t_bytes32": {
        "encoding": "inplace",
        "label": "bytes32",
        "numberOfBytes": "32"
      },
      "t_contract(IToken)1628": {
        "encoding": "inplace",
        "label": "contract IToken",
        "numberOfBytes": "20"
      },
      "t_enum(AgreementStatus)764": {
        "encoding": "inplace",
        "label": "enum DDMeshMarket.AgreementStatus",
        "numberOfBytes": "1"
      },
      "t_mapping(t_address,t_array(t_uint256)dyn_storage)": {
        "encoding": "mapping",
        "key": "t_address",
        "label": "mapping(address => uint256[])",
        "numberOfBytes": "32",
        "value": "t_array(t_uint256)dyn_storage"
      },
      "t_mapping(t_address,t_bool)": {
        "encoding": "mapping",
        "key": "t_address",
        "label": "mapping(address => bool)",
        "numberOfBytes": "32",
        "value": "t_bool"
      },
      "t_mapping(t_address,t_struct(Provider)803_storage)": {
        "encoding": "mapping",
        "key": "t_address",
        "label": "mapping(address => struct DDMeshMarket.Provider)",
        "numberOfBytes": "32",
        "value": "t_struct(Provider)803_storage"
      },
      "t_mapping(t_address,t_uint256)": {
        "encoding": "mapping",
        "key": "t_address",
        "label": "mapping(address => uint256)",
        "numberOfBytes": "32",
        "value": "t_uint256"
      },
      "t_mapping(t_bytes32,t_struct(RoleData)21_storage)": {
        "encoding": "mapping",
        "key": "t_bytes32",
        "label": "mapping(bytes32 => struct AccessControl.RoleData)",
        "numberOfBytes": "32",
        "value": "t_struct(RoleData)21_storage"
      },
      "t_mapping(t_uint256,t_array(t_uint256)dyn_storage)": {
        "encoding": "mapping",
        "key": "t_uint256",
        "label": "mapping(uint256 => uint256[])",
        "numberOfBytes": "32",
        "value": "t_array(t_uint256)dyn_storage"
      },
      "t_mapping(t_uint256,t_struct(Agreement)786_storage)": {
        "encoding": "mapping",
        "key": "t_uint256",
        "label": "mapping(uint256 => struct DDMeshMarket.Agreement)",
        "numberOfBytes": "32",
        "value": "t_struct(Agreement)786_storage"
      },
      "t_mapping(t_uint256,t_struct(Provider)803_storage)": {
        "encoding": "mapping",
        "key": "t_uint256",
        "label": "mapping(uint256 => struct DDMeshMarket.Provider)",
        "numberOfBytes": "32",
        "value": "t_struct(Provider)803_storage"
      },
      "t_string_storage": {
        "encoding": "bytes",
        "label": "string",
        "numberOfBytes": "32"
      },
      "t_struct(Agreement)786_storage": {
        "encoding": "inplace",
        "label": "struct DDMeshMarket.Agreement",
        "members": [
          {
            "astId": 766,
            "contract": "contracts/DDMeshMarket.sol:DDMeshMarket",
            "label": "id",
            "offset": 0,
            "slot": "0",
            "type": "t_uint256"
          },
          {
            "astId": 768,
            "contract": "contracts/DDMeshMarket.sol:DDMeshMarket",
            "label": "user",
            "offset": 0,
            "slot": "1",
            "type": "t_address"
          },
          {
            "astId": 770,
            "contract": "contracts/DDMeshMarket.sol:DDMeshMarket",
            "label": "userBalance",
            "offset": 0,
            "slot": "2",
            "type": "t_uint256"
          },
          {
            "astId": 772,
            "contract": "contracts/DDMeshMarket.sol:DDMeshMarket",
            "label": "providerAddress",
            "offset": 0,
            "slot": "3",
            "type": "t_address"
          },
          {
            "astId": 774,
            "contract": "contracts/DDMeshMarket.sol:DDMeshMarket",
            "label": "providerId",
            "offset": 0,
            "slot": "4",
            "type": "t_uint256"
          },
          {
            "astId": 776,
            "contract": "contracts/DDMeshMarket.sol:DDMeshMarket",
            "label": "providerClaimed",
            "offset": 0,
            "slot": "5",
            "type": "t_uint256"
          },
          {
            "astId": 778,
            "contract": "contracts/DDMeshMarket.sol:DDMeshMarket",
            "label": "encConnectionString",
            "offset": 0,
            "slot": "6",
            "type": "t_string_storage"
          },
          {
            "astId": 780,
            "contract": "contracts/DDMeshMarket.sol:DDMeshMarket",
            "label": "startTimeStamp",
            "offset": 0,
            "slot": "7",
            "type": "t_uint256"
          },
          {
            "astId": 782,
            "contract": "contracts/DDMeshMarket.sol:DDMeshMarket",
            "label": "providerRewardsWithdrawLastTimeStamp",
            "offset": 0,
            "slot": "8",
            "type": "t_uint256"
          },
          {
            "astId": 785,
            "contract": "contracts/DDMeshMarket.sol:DDMeshMarket",
            "label": "status",
            "offset": 0,
            "slot": "9",
            "type": "t_enum(AgreementStatus)764"
          }
        ],
        "numberOfBytes": "320"
      },
      "t_struct(Provider)803_storage": {
        "encoding": "inplace",
        "label": "struct DDMeshMarket.Provider",
        "members": [
          {
            "astId": 788,
            "contract": "contracts/DDMeshMarket.sol:DDMeshMarket",
            "label": "id",
            "offset": 0,
            "slot": "0",
            "type": "t_uint256"
          },
          {
            "astId": 790,
            "contract": "contracts/DDMeshMarket.sol:DDMeshMarket",
            "label": "pAddress",
            "offset": 0,
            "slot": "1",
            "type": "t_address"
          },
          {
            "astId": 792,
            "contract": "contracts/DDMeshMarket.sol:DDMeshMarket",
            "label": "fee",
            "offset": 0,
            "slot": "2",
            "type": "t_uint256"
          },
          {
            "astId": 794,
            "contract": "contracts/DDMeshMarket.sol:DDMeshMarket",
            "label": "encApiKey",
            "offset": 0,
            "slot": "3",
            "type": "t_string_storage"
          },
          {
            "astId": 796,
            "contract": "contracts/DDMeshMarket.sol:DDMeshMarket",
            "label": "ensName",
            "offset": 0,
            "slot": "4",
            "type": "t_string_storage"
          },
          {
            "astId": 798,
            "contract": "contracts/DDMeshMarket.sol:DDMeshMarket",
            "label": "description",
            "offset": 0,
            "slot": "5",
            "type": "t_string_storage"
          },
          {
            "astId": 800,
            "contract": "contracts/DDMeshMarket.sol:DDMeshMarket",
            "label": "noOfDbAgreements",
            "offset": 0,
            "slot": "6",
            "type": "t_uint256"
          },
          {
            "astId": 802,
            "contract": "contracts/DDMeshMarket.sol:DDMeshMarket",
            "label": "activeAgreements",
            "offset": 0,
            "slot": "7",
            "type": "t_uint256"
          }
        ],
        "numberOfBytes": "256"
      },
      "t_struct(RoleData)21_storage": {
        "encoding": "inplace",
        "label": "struct AccessControl.RoleData",
        "members": [
          {
            "astId": 18,
            "contract": "contracts/DDMeshMarket.sol:DDMeshMarket",
            "label": "hasRole",
            "offset": 0,
            "slot": "0",
            "type": "t_mapping(t_address,t_bool)"
          },
          {
            "astId": 20,
            "contract": "contracts/DDMeshMarket.sol:DDMeshMarket",
            "label": "adminRole",
            "offset": 0,
            "slot": "1",
            "type": "t_bytes32"
          }
        ],
        "numberOfBytes": "64"
      },
      "t_uint256": {
        "encoding": "inplace",
        "label": "uint256",
        "numberOfBytes": "32"
      }
    }
  }
}