{
  "address": "0xDb5DBA8dd7672D01E3B1199Abd0C718146B67997",
  "abi": [
    {
      "inputs": [
        {
          "internalType": "address",
          "name": "_tokenAddress",
          "type": "address"
        }
      ],
      "stateMutability": "nonpayable",
      "type": "constructor"
    },
    {
      "inputs": [],
      "name": "AccessControlBadConfirmation",
      "type": "error"
    },
    {
      "inputs": [
        {
          "internalType": "address",
          "name": "account",
          "type": "address"
        },
        {
          "internalType": "bytes32",
          "name": "neededRole",
          "type": "bytes32"
        }
      ],
      "name": "AccessControlUnauthorizedAccount",
      "type": "error"
    },
    {
      "inputs": [
        {
          "internalType": "address",
          "name": "owner",
          "type": "address"
        }
      ],
      "name": "OwnableInvalidOwner",
      "type": "error"
    },
    {
      "inputs": [
        {
          "internalType": "address",
          "name": "account",
          "type": "address"
        }
      ],
      "name": "OwnableUnauthorizedAccount",
      "type": "error"
    },
    {
      "anonymous": false,
      "inputs": [
        {
          "indexed": false,
          "internalType": "address",
          "name": "user",
          "type": "address"
        },
        {
          "indexed": false,
          "internalType": "address",
          "name": "provider",
          "type": "address"
        }
      ],
      "name": "AgreementClosed",
      "type": "event"
    },
    {
      "anonymous": false,
      "inputs": [
        {
          "indexed": false,
          "internalType": "uint256",
          "name": "amount",
          "type": "uint256"
        }
      ],
      "name": "EnterAgreementAndPay",
      "type": "event"
    },
    {
      "anonymous": false,
      "inputs": [
        {
          "indexed": true,
          "internalType": "address",
          "name": "previousOwner",
          "type": "address"
        },
        {
          "indexed": true,
          "internalType": "address",
          "name": "newOwner",
          "type": "address"
        }
      ],
      "name": "OwnershipTransferred",
      "type": "event"
    },
    {
      "anonymous": false,
      "inputs": [
        {
          "indexed": false,
          "internalType": "address",
          "name": "provider",
          "type": "address"
        }
      ],
      "name": "ProviderRegistered",
      "type": "event"
    },
    {
      "anonymous": false,
      "inputs": [
        {
          "indexed": true,
          "internalType": "bytes32",
          "name": "role",
          "type": "bytes32"
        },
        {
          "indexed": true,
          "internalType": "bytes32",
          "name": "previousAdminRole",
          "type": "bytes32"
        },
        {
          "indexed": true,
          "internalType": "bytes32",
          "name": "newAdminRole",
          "type": "bytes32"
        }
      ],
      "name": "RoleAdminChanged",
      "type": "event"
    },
    {
      "anonymous": false,
      "inputs": [
        {
          "indexed": true,
          "internalType": "bytes32",
          "name": "role",
          "type": "bytes32"
        },
        {
          "indexed": true,
          "internalType": "address",
          "name": "account",
          "type": "address"
        },
        {
          "indexed": true,
          "internalType": "address",
          "name": "sender",
          "type": "address"
        }
      ],
      "name": "RoleGranted",
      "type": "event"
    },
    {
      "anonymous": false,
      "inputs": [
        {
          "indexed": true,
          "internalType": "bytes32",
          "name": "role",
          "type": "bytes32"
        },
        {
          "indexed": true,
          "internalType": "address",
          "name": "account",
          "type": "address"
        },
        {
          "indexed": true,
          "internalType": "address",
          "name": "sender",
          "type": "address"
        }
      ],
      "name": "RoleRevoked",
      "type": "event"
    },
    {
      "anonymous": false,
      "inputs": [
        {
          "indexed": false,
          "internalType": "uint256",
          "name": "amount",
          "type": "uint256"
        }
      ],
      "name": "WithdrawReward",
      "type": "event"
    },
    {
      "anonymous": false,
      "inputs": [
        {
          "indexed": false,
          "internalType": "uint256",
          "name": "amount",
          "type": "uint256"
        }
      ],
      "name": "WithdrawUserBalance",
      "type": "event"
    },
    {
      "inputs": [],
      "name": "DEFAULT_ADMIN_ROLE",
      "outputs": [
        {
          "internalType": "bytes32",
          "name": "",
          "type": "bytes32"
        }
      ],
      "stateMutability": "view",
      "type": "function"
    },
    {
      "inputs": [],
      "name": "closeAgreementByProvider",
      "outputs": [],
      "stateMutability": "nonpayable",
      "type": "function"
    },
    {
      "inputs": [],
      "name": "closeAgreementByUser",
      "outputs": [],
      "stateMutability": "nonpayable",
      "type": "function"
    },
    {
      "inputs": [
        {
          "internalType": "uint256",
          "name": "_amount",
          "type": "uint256"
        },
        {
          "internalType": "address",
          "name": "_provider",
          "type": "address"
        }
      ],
      "name": "enterAgreement",
      "outputs": [],
      "stateMutability": "nonpayable",
      "type": "function"
    },
    {
      "inputs": [
        {
          "internalType": "bytes32",
          "name": "role",
          "type": "bytes32"
        }
      ],
      "name": "getRoleAdmin",
      "outputs": [
        {
          "internalType": "bytes32",
          "name": "",
          "type": "bytes32"
        }
      ],
      "stateMutability": "view",
      "type": "function"
    },
    {
      "inputs": [
        {
          "internalType": "bytes32",
          "name": "role",
          "type": "bytes32"
        },
        {
          "internalType": "address",
          "name": "account",
          "type": "address"
        }
      ],
      "name": "grantRole",
      "outputs": [],
      "stateMutability": "nonpayable",
      "type": "function"
    },
    {
      "inputs": [
        {
          "internalType": "bytes32",
          "name": "role",
          "type": "bytes32"
        },
        {
          "internalType": "address",
          "name": "account",
          "type": "address"
        }
      ],
      "name": "hasRole",
      "outputs": [
        {
          "internalType": "bool",
          "name": "",
          "type": "bool"
        }
      ],
      "stateMutability": "view",
      "type": "function"
    },
    {
      "inputs": [],
      "name": "owner",
      "outputs": [
        {
          "internalType": "address",
          "name": "",
          "type": "address"
        }
      ],
      "stateMutability": "view",
      "type": "function"
    },
    {
      "inputs": [
        {
          "internalType": "address",
          "name": "",
          "type": "address"
        }
      ],
      "name": "providerToAgreement",
      "outputs": [
        {
          "internalType": "address",
          "name": "user",
          "type": "address"
        },
        {
          "internalType": "uint256",
          "name": "userBalance",
          "type": "uint256"
        },
        {
          "internalType": "address",
          "name": "provider",
          "type": "address"
        },
        {
          "internalType": "uint256",
          "name": "providerClaimed",
          "type": "uint256"
        },
        {
          "internalType": "bool",
          "name": "active",
          "type": "bool"
        }
      ],
      "stateMutability": "view",
      "type": "function"
    },
    {
      "inputs": [
        {
          "internalType": "address",
          "name": "_provider",
          "type": "address"
        }
      ],
      "name": "registerProvider",
      "outputs": [],
      "stateMutability": "nonpayable",
      "type": "function"
    },
    {
      "inputs": [],
      "name": "renounceOwnership",
      "outputs": [],
      "stateMutability": "nonpayable",
      "type": "function"
    },
    {
      "inputs": [
        {
          "internalType": "bytes32",
          "name": "role",
          "type": "bytes32"
        },
        {
          "internalType": "address",
          "name": "callerConfirmation",
          "type": "address"
        }
      ],
      "name": "renounceRole",
      "outputs": [],
      "stateMutability": "nonpayable",
      "type": "function"
    },
    {
      "inputs": [
        {
          "internalType": "bytes32",
          "name": "role",
          "type": "bytes32"
        },
        {
          "internalType": "address",
          "name": "account",
          "type": "address"
        }
      ],
      "name": "revokeRole",
      "outputs": [],
      "stateMutability": "nonpayable",
      "type": "function"
    },
    {
      "inputs": [
        {
          "internalType": "bytes4",
          "name": "interfaceId",
          "type": "bytes4"
        }
      ],
      "name": "supportsInterface",
      "outputs": [
        {
          "internalType": "bool",
          "name": "",
          "type": "bool"
        }
      ],
      "stateMutability": "view",
      "type": "function"
    },
    {
      "inputs": [
        {
          "internalType": "address",
          "name": "newOwner",
          "type": "address"
        }
      ],
      "name": "transferOwnership",
      "outputs": [],
      "stateMutability": "nonpayable",
      "type": "function"
    },
    {
      "inputs": [
        {
          "internalType": "address",
          "name": "",
          "type": "address"
        }
      ],
      "name": "userToAgreement",
      "outputs": [
        {
          "internalType": "address",
          "name": "user",
          "type": "address"
        },
        {
          "internalType": "uint256",
          "name": "userBalance",
          "type": "uint256"
        },
        {
          "internalType": "address",
          "name": "provider",
          "type": "address"
        },
        {
          "internalType": "uint256",
          "name": "providerClaimed",
          "type": "uint256"
        },
        {
          "internalType": "bool",
          "name": "active",
          "type": "bool"
        }
      ],
      "stateMutability": "view",
      "type": "function"
    },
    {
      "inputs": [
        {
          "internalType": "uint256",
          "name": "_amount",
          "type": "uint256"
        }
      ],
      "name": "withdrawBalanceUser",
      "outputs": [],
      "stateMutability": "nonpayable",
      "type": "function"
    },
    {
      "inputs": [
        {
          "internalType": "uint256",
          "name": "_amount",
          "type": "uint256"
        },
        {
          "internalType": "address",
          "name": "_user",
          "type": "address"
        }
      ],
      "name": "withdrawReward",
      "outputs": [],
      "stateMutability": "nonpayable",
      "type": "function"
    }
  ],
  "transactionHash": "0x5b8a4ecd765602b77497bca22578e7379689a5deecf5c83178d0f82595150bc4",
  "args": [
    "0x601c2f884f68308c64d662bb6073e108955e3ed7"
  ],
  "numDeployments": 1,
  "solcInputHash": "158c16c3a5b6213e8b667a64d33a86f8",
  "bytecode": "0x60a060405234801561001057600080fd5b506040516200124a3803806200124a8339810160408190526100319161017c565b338061005757604051631e4fbdf760e01b81526000600482015260240160405180910390fd5b6100608161007e565b5061006c6000336100d0565b506001600160a01b03166080526101ac565b600180546001600160a01b038381166001600160a01b0319831681179093556040519116919082907f8be0079c531659141344cd1fd0a4f28419497f9722a3daafe3b4186f6b6457e090600090a35050565b6000828152602081815260408083206001600160a01b038516845290915281205460ff16610172576000838152602081815260408083206001600160a01b03861684529091529020805460ff1916600117905561012a3390565b6001600160a01b0316826001600160a01b0316847f2f8788117e7eff1d82e926ec794901d17c78024a50270940304540a733656f0d60405160405180910390a4506001610176565b5060005b92915050565b60006020828403121561018e57600080fd5b81516001600160a01b03811681146101a557600080fd5b9392505050565b608051611074620001d66000396000818161065c0152818161099d0152610c3701526110746000f3fe608060405234801561001057600080fd5b50600436106101165760003560e01c8063715018a6116100a257806391d148541161007157806391d14854146102a2578063a217fddf146102b5578063a6da54b1146102bd578063d547741f1461030b578063f2fde38b1461031e57600080fd5b8063715018a6146102645780637f2eef001461026c5780638da5cb5b146102745780638f6426571461028f57600080fd5b806336568abe116100e957806336568abe1461019c5780633cf5553e146101af578063490639891461023657806352e4ef6a146102495780636a2c53521461025157600080fd5b806301ffc9a71461011b5780630e26001614610143578063248a9ca3146101585780632f2ff15d14610189575b600080fd5b61012e610129366004610f33565b610331565b60405190151581526020015b60405180910390f35b610156610151366004610f80565b610368565b005b61017b610166366004610f9b565b60009081526020819052604090206001015490565b60405190815260200161013a565b610156610197366004610fb4565b6103ed565b6101566101aa366004610fb4565b610418565b6101fd6101bd366004610f80565b6004602081905260009182526040909120805460018201546002830154600384015493909401546001600160a01b03928316949193919092169160ff1685565b604080516001600160a01b039687168152602081019590955292909416918301919091526060820152901515608082015260a00161013a565b610156610244366004610fb4565b610450565b610156610745565b61015661025f366004610fb4565b610856565b610156610a4c565b610156610a60565b6001546040516001600160a01b03909116815260200161013a565b61015661029d366004610f9b565b610b57565b61012e6102b0366004610fb4565b610ce4565b61017b600081565b6101fd6102cb366004610f80565b6003602081905260009182526040909120805460018201546002830154938301546004909301546001600160a01b03928316949193919092169160ff1685565b610156610319366004610fb4565b610d0d565b61015661032c366004610f80565b610d32565b60006001600160e01b03198216637965db0b60e01b148061036257506301ffc9a760e01b6001600160e01b03198316145b92915050565b600280546001810182556000919091527f405787fa12a823e0f2b7631cc41b3ba8828b3321ca811111fa75cd3aa3bb5ace0180546001600160a01b0319166001600160a01b0383169081179091556040519081527f70abce74777b3838ae60a33a6b9a87d9d25532668fe4fea548554c55868579c0906020015b60405180910390a150565b60008281526020819052604090206001015461040881610d70565b6104128383610d7a565b50505050565b6001600160a01b03811633146104415760405163334bd91960e11b815260040160405180910390fd5b61044b8282610e0c565b505050565b600082116104a55760405162461bcd60e51b815260206004820152601d60248201527f616d6f756e74206d7573742062652067726561746572207468616e203000000060448201526064015b60405180910390fd5b6040805160a081018252338152602081018481526001600160a01b0384169282019290925260006060820152600160808201529083906104e58280610ff6565b915081815250508060036000336001600160a01b03166001600160a01b0316815260200190815260200160002060008201518160000160006101000a8154816001600160a01b0302191690836001600160a01b031602179055506020820151816001015560408201518160020160006101000a8154816001600160a01b0302191690836001600160a01b031602179055506060820151816003015560808201518160040160006101000a81548160ff0219169083151502179055509050508060046000846001600160a01b03166001600160a01b0316815260200190815260200160002060008201518160000160006101000a8154816001600160a01b0302191690836001600160a01b031602179055506020820151816001015560408201518160020160006101000a8154816001600160a01b0302191690836001600160a01b031602179055506060820151816003015560808201518160040160006101000a81548160ff0219169083151502179055509050507f00000000000000000000000000000000000000000000000000000000000000006001600160a01b03166323b872dd3330866040518463ffffffff1660e01b81526004016106c9939291906001600160a01b039384168152919092166020820152604081019190915260600190565b6020604051808303816000875af11580156106e8573d6000803e3d6000fd5b505050506040513d601f19601f8201168201806040525081019061070c9190611009565b506040518381527fb7b1b4d8e83be3fad5928e56d6bd44e5a1a95fd9002bcc8ab480b1278d2c3ab99060200160405180910390a1505050565b336000818152600360205260409020805490916001600160a01b03909116146107a55760405162461bcd60e51b81526020600482015260126024820152711b9bdd081e5bdd5c881859dc99595b595b9d60721b604482015260640161049c565b600481015460ff166107f35760405162461bcd60e51b815260206004820152601760248201527661677265656d656e74206973206e6f742061637469766560481b604482015260640161049c565b60048101805460ff19169055600181015461080d90610b57565b80546002820154604080516001600160a01b0393841681529290911660208301527f01d7290b0c12433d12579986be39457523c5e745533f9d7d7a6dc21ab320aa0491016103e2565b33600081815260046020526040902060028101546001600160a01b031682146108b65760405162461bcd60e51b81526020600482015260126024820152711c1c9bdd9a59195c881b9bdd08199bdd5b9960721b604482015260640161049c565b80546001600160a01b038481169116146109025760405162461bcd60e51b815260206004820152600d60248201526c3737ba103cb7bab9103ab9b2b960991b604482015260640161049c565b838160010154101561094d5760405162461bcd60e51b8152602060048201526014602482015273696e73756666696369656e742062616c616e636560601b604482015260640161049c565b83816001016000828254610961919061102b565b925050819055508381600301600082825461097c9190610ff6565b909155505060405163a9059cbb60e01b8152336004820152602481018590527f00000000000000000000000000000000000000000000000000000000000000006001600160a01b03169063a9059cbb906044016020604051808303816000875af11580156109ee573d6000803e3d6000fd5b505050506040513d601f19601f82011682018060405250810190610a129190611009565b506040518481527f57b16428e0995660a2371bfccc1866c98df04182d095c00b50648af066dd1ec99060200160405180910390a150505050565b610a54610e77565b610a5e6000610ea4565b565b336000818152600460205260409020600281015490916001600160a01b0390911614610ae35760405162461bcd60e51b815260206004820152602c60248201527f6e6f7420796f75722061677265656d656e742c20796f7520617265206e6f742060448201526b3a343290383937bb34b232b960a11b606482015260840161049c565b600481015460ff16610b315760405162461bcd60e51b815260206004820152601760248201527661677265656d656e74206973206e6f742061637469766560481b604482015260640161049c565b60048101805460ff191690556001810154815461080d91906001600160a01b0316610856565b336000818152600360205260409020805490916001600160a01b0390911614610bb75760405162461bcd60e51b81526020600482015260126024820152711b9bdd081e5bdd5c881859dc99595b595b9d60721b604482015260640161049c565b8181600101541015610c025760405162461bcd60e51b8152602060048201526014602482015273696e73756666696369656e742062616c616e636560601b604482015260640161049c565b81816001016000828254610c16919061102b565b909155505060405163a9059cbb60e01b8152336004820152602481018390527f00000000000000000000000000000000000000000000000000000000000000006001600160a01b03169063a9059cbb906044016020604051808303816000875af1158015610c88573d6000803e3d6000fd5b505050506040513d601f19601f82011682018060405250810190610cac9190611009565b506040518281527fc4e175d3c0d544acec78dc0a0861dbb98dc9f7a51d0c6bdd33d4e88d2b2425549060200160405180910390a15050565b6000918252602082815260408084206001600160a01b0393909316845291905290205460ff1690565b600082815260208190526040902060010154610d2881610d70565b6104128383610e0c565b610d3a610e77565b6001600160a01b038116610d6457604051631e4fbdf760e01b81526000600482015260240161049c565b610d6d81610ea4565b50565b610d6d8133610ef6565b6000610d868383610ce4565b610e04576000838152602081815260408083206001600160a01b03861684529091529020805460ff19166001179055610dbc3390565b6001600160a01b0316826001600160a01b0316847f2f8788117e7eff1d82e926ec794901d17c78024a50270940304540a733656f0d60405160405180910390a4506001610362565b506000610362565b6000610e188383610ce4565b15610e04576000838152602081815260408083206001600160a01b0386168085529252808320805460ff1916905551339286917ff6391f5c32d9c69d2a47ea670b442974b53935d1edc7fd64eb21e047a839171b9190a4506001610362565b6001546001600160a01b03163314610a5e5760405163118cdaa760e01b815233600482015260240161049c565b600180546001600160a01b038381166001600160a01b0319831681179093556040519116919082907f8be0079c531659141344cd1fd0a4f28419497f9722a3daafe3b4186f6b6457e090600090a35050565b610f008282610ce4565b610f2f5760405163e2517d3f60e01b81526001600160a01b03821660048201526024810183905260440161049c565b5050565b600060208284031215610f4557600080fd5b81356001600160e01b031981168114610f5d57600080fd5b9392505050565b80356001600160a01b0381168114610f7b57600080fd5b919050565b600060208284031215610f9257600080fd5b610f5d82610f64565b600060208284031215610fad57600080fd5b5035919050565b60008060408385031215610fc757600080fd5b82359150610fd760208401610f64565b90509250929050565b634e487b7160e01b600052601160045260246000fd5b8082018082111561036257610362610fe0565b60006020828403121561101b57600080fd5b81518015158114610f5d57600080fd5b8181038181111561036257610362610fe056fea26469706673582212205d0f8cd9a1180648ebe3941711337c7fb04cdfe334e9b3d546898bc3ba15b38864736f6c63430008160033",
  "devdoc": {
    "errors": {
      "AccessControlBadConfirmation()": [
        {
          "details": "The caller of a function is not the expected one. NOTE: Don't confuse with {AccessControlUnauthorizedAccount}."
        }
      ],
      "AccessControlUnauthorizedAccount(address,bytes32)": [
        {
          "details": "The `account` is missing a role."
        }
      ],
      "OwnableInvalidOwner(address)": [
        {
          "details": "The owner is not a valid owner account. (eg. `address(0)`)"
        }
      ],
      "OwnableUnauthorizedAccount(address)": [
        {
          "details": "The caller account is not authorized to perform an operation."
        }
      ]
    },
    "events": {
      "RoleAdminChanged(bytes32,bytes32,bytes32)": {
        "details": "Emitted when `newAdminRole` is set as ``role``'s admin role, replacing `previousAdminRole` `DEFAULT_ADMIN_ROLE` is the starting admin for all roles, despite {RoleAdminChanged} not being emitted signaling this."
      },
      "RoleGranted(bytes32,address,address)": {
        "details": "Emitted when `account` is granted `role`. `sender` is the account that originated the contract call, an admin role bearer except when using {AccessControl-_setupRole}."
      },
      "RoleRevoked(bytes32,address,address)": {
        "details": "Emitted when `account` is revoked `role`. `sender` is the account that originated the contract call:   - if using `revokeRole`, it is the admin role bearer   - if using `renounceRole`, it is the role bearer (i.e. `account`)"
      }
    },
    "kind": "dev",
    "methods": {
      "getRoleAdmin(bytes32)": {
        "details": "Returns the admin role that controls `role`. See {grantRole} and {revokeRole}. To change a role's admin, use {_setRoleAdmin}."
      },
      "grantRole(bytes32,address)": {
        "details": "Grants `role` to `account`. If `account` had not been already granted `role`, emits a {RoleGranted} event. Requirements: - the caller must have ``role``'s admin role. May emit a {RoleGranted} event."
      },
      "hasRole(bytes32,address)": {
        "details": "Returns `true` if `account` has been granted `role`."
      },
      "owner()": {
        "details": "Returns the address of the current owner."
      },
      "renounceOwnership()": {
        "details": "Leaves the contract without owner. It will not be possible to call `onlyOwner` functions. Can only be called by the current owner. NOTE: Renouncing ownership will leave the contract without an owner, thereby disabling any functionality that is only available to the owner."
      },
      "renounceRole(bytes32,address)": {
        "details": "Revokes `role` from the calling account. Roles are often managed via {grantRole} and {revokeRole}: this function's purpose is to provide a mechanism for accounts to lose their privileges if they are compromised (such as when a trusted device is misplaced). If the calling account had been revoked `role`, emits a {RoleRevoked} event. Requirements: - the caller must be `callerConfirmation`. May emit a {RoleRevoked} event."
      },
      "revokeRole(bytes32,address)": {
        "details": "Revokes `role` from `account`. If `account` had been granted `role`, emits a {RoleRevoked} event. Requirements: - the caller must have ``role``'s admin role. May emit a {RoleRevoked} event."
      },
      "supportsInterface(bytes4)": {
        "details": "See {IERC165-supportsInterface}."
      },
      "transferOwnership(address)": {
        "details": "Transfers ownership of the contract to a new account (`newOwner`). Can only be called by the current owner."
      }
    },
    "version": 1
  },
  "userdoc": {
    "kind": "user",
    "methods": {},
    "version": 1
  },
  "storageLayout": {
    "storage": [
      {
        "astId": 26,
        "contract": "contracts/DDMeshMarket.sol:DDMeshMarket",
        "label": "_roles",
        "offset": 0,
        "slot": "0",
        "type": "t_mapping(t_bytes32,t_struct(RoleData)21_storage)"
      },
      {
        "astId": 387,
        "contract": "contracts/DDMeshMarket.sol:DDMeshMarket",
        "label": "_owner",
        "offset": 0,
        "slot": "1",
        "type": "t_address"
      },
      {
        "astId": 1489,
        "contract": "contracts/DDMeshMarket.sol:DDMeshMarket",
        "label": "providers",
        "offset": 0,
        "slot": "2",
        "type": "t_array(t_address)dyn_storage"
      },
      {
        "astId": 1505,
        "contract": "contracts/DDMeshMarket.sol:DDMeshMarket",
        "label": "userToAgreement",
        "offset": 0,
        "slot": "3",
        "type": "t_mapping(t_address,t_struct(Agreement)1500_storage)"
      },
      {
        "astId": 1510,
        "contract": "contracts/DDMeshMarket.sol:DDMeshMarket",
        "label": "providerToAgreement",
        "offset": 0,
        "slot": "4",
        "type": "t_mapping(t_address,t_struct(Agreement)1500_storage)"
      }
    ],
    "types": {
      "t_address": {
        "encoding": "inplace",
        "label": "address",
        "numberOfBytes": "20"
      },
      "t_array(t_address)dyn_storage": {
        "base": "t_address",
        "encoding": "dynamic_array",
        "label": "address[]",
        "numberOfBytes": "32"
      },
      "t_bool": {
        "encoding": "inplace",
        "label": "bool",
        "numberOfBytes": "1"
      },
      "t_bytes32": {
        "encoding": "inplace",
        "label": "bytes32",
        "numberOfBytes": "32"
      },
      "t_mapping(t_address,t_bool)": {
        "encoding": "mapping",
        "key": "t_address",
        "label": "mapping(address => bool)",
        "numberOfBytes": "32",
        "value": "t_bool"
      },
      "t_mapping(t_address,t_struct(Agreement)1500_storage)": {
        "encoding": "mapping",
        "key": "t_address",
        "label": "mapping(address => struct DDMeshMarket.Agreement)",
        "numberOfBytes": "32",
        "value": "t_struct(Agreement)1500_storage"
      },
      "t_mapping(t_bytes32,t_struct(RoleData)21_storage)": {
        "encoding": "mapping",
        "key": "t_bytes32",
        "label": "mapping(bytes32 => struct AccessControl.RoleData)",
        "numberOfBytes": "32",
        "value": "t_struct(RoleData)21_storage"
      },
      "t_struct(Agreement)1500_storage": {
        "encoding": "inplace",
        "label": "struct DDMeshMarket.Agreement",
        "members": [
          {
            "astId": 1491,
            "contract": "contracts/DDMeshMarket.sol:DDMeshMarket",
            "label": "user",
            "offset": 0,
            "slot": "0",
            "type": "t_address"
          },
          {
            "astId": 1493,
            "contract": "contracts/DDMeshMarket.sol:DDMeshMarket",
            "label": "userBalance",
            "offset": 0,
            "slot": "1",
            "type": "t_uint256"
          },
          {
            "astId": 1495,
            "contract": "contracts/DDMeshMarket.sol:DDMeshMarket",
            "label": "provider",
            "offset": 0,
            "slot": "2",
            "type": "t_address"
          },
          {
            "astId": 1497,
            "contract": "contracts/DDMeshMarket.sol:DDMeshMarket",
            "label": "providerClaimed",
            "offset": 0,
            "slot": "3",
            "type": "t_uint256"
          },
          {
            "astId": 1499,
            "contract": "contracts/DDMeshMarket.sol:DDMeshMarket",
            "label": "active",
            "offset": 0,
            "slot": "4",
            "type": "t_bool"
          }
        ],
        "numberOfBytes": "160"
      },
      "t_struct(RoleData)21_storage": {
        "encoding": "inplace",
        "label": "struct AccessControl.RoleData",
        "members": [
          {
            "astId": 18,
            "contract": "contracts/DDMeshMarket.sol:DDMeshMarket",
            "label": "hasRole",
            "offset": 0,
            "slot": "0",
            "type": "t_mapping(t_address,t_bool)"
          },
          {
            "astId": 20,
            "contract": "contracts/DDMeshMarket.sol:DDMeshMarket",
            "label": "adminRole",
            "offset": 0,
            "slot": "1",
            "type": "t_bytes32"
          }
        ],
        "numberOfBytes": "64"
      },
      "t_uint256": {
        "encoding": "inplace",
        "label": "uint256",
        "numberOfBytes": "32"
      }
    }
  }
}